{
  "contractName": "Desastre",
  "abi": [
    {
      "anonymous": false,
      "inputs": [
        {
          "indexed": false,
          "name": "",
          "type": "string"
        },
        {
          "indexed": false,
          "name": "",
          "type": "string"
        },
        {
          "indexed": false,
          "name": "",
          "type": "string"
        }
      ],
      "name": "CargaInformacion",
      "type": "event"
    },
    {
      "anonymous": false,
      "inputs": [],
      "name": "ErrorCarga",
      "type": "event"
    },
    {
      "anonymous": false,
      "inputs": [
        {
          "indexed": false,
          "name": "",
          "type": "bool"
        }
      ],
      "name": "correcto",
      "type": "event"
    },
    {
      "anonymous": false,
      "inputs": [
        {
          "indexed": false,
          "name": "",
          "type": "bool"
        }
      ],
      "name": "Fallo",
      "type": "event"
    },
    {
      "constant": false,
      "inputs": [
        {
          "name": "id",
          "type": "uint256"
        },
        {
          "name": "nombre",
          "type": "string"
        },
        {
          "name": "_rol",
          "type": "uint8"
        }
      ],
      "name": "setUser",
      "outputs": [],
      "payable": false,
      "stateMutability": "nonpayable",
      "type": "function"
    },
    {
      "constant": false,
      "inputs": [
        {
          "name": "idUser",
          "type": "uint256"
        },
        {
          "name": "_fecha",
          "type": "string"
        },
        {
          "name": "_latitud",
          "type": "string"
        },
        {
          "name": "_longitud",
          "type": "string"
        },
        {
          "name": "caudal",
          "type": "string"
        }
      ],
      "name": "setRegistro",
      "outputs": [],
      "payable": false,
      "stateMutability": "nonpayable",
      "type": "function"
    },
    {
      "constant": true,
      "inputs": [
        {
          "name": "id",
          "type": "uint256"
        }
      ],
      "name": "getUser",
      "outputs": [
        {
          "name": "",
          "type": "uint256"
        },
        {
          "name": "",
          "type": "string"
        },
        {
          "name": "",
          "type": "uint8"
        }
      ],
      "payable": false,
      "stateMutability": "view",
      "type": "function"
    },
    {
      "constant": false,
      "inputs": [
        {
          "name": "idUser",
          "type": "uint256"
        },
        {
          "name": "Fecha",
          "type": "string"
        }
      ],
      "name": "getRegistro",
      "outputs": [],
      "payable": false,
      "stateMutability": "nonpayable",
      "type": "function"
    }
  ],
  "bytecode": "0x608060405234801561001057600080fd5b50610e46806100206000396000f3fe608060405234801561001057600080fd5b506004361061004c5760003560e01c806374a35a9914610051578063b0467deb14610123578063f78f8b47146101e6578063f7918f1f14610470575b600080fd5b6101216004803603606081101561006757600080fd5b81019080803590602001909291908035906020019064010000000081111561008e57600080fd5b8201836020820111156100a057600080fd5b803590602001918460018302840111640100000000831117156100c257600080fd5b91908080601f016020809104026020016040519081016040528093929190818152602001838380828437600081840152601f19601f820116905080830192505050505050509192919290803560ff169060200190929190505050610535565b005b61014f6004803603602081101561013957600080fd5b81019080803590602001909291905050506105f3565b604051808481526020018060200183600181111561016957fe5b60ff168152602001828103825284818151815260200191508051906020019080838360005b838110156101a957808201518184015260208101905061018e565b50505050905090810190601f1680156101d65780820380516001836020036101000a031916815260200191505b5094505050505060405180910390f35b61046e600480360360a08110156101fc57600080fd5b81019080803590602001909291908035906020019064010000000081111561022357600080fd5b82018360208201111561023557600080fd5b8035906020019184600183028401116401000000008311171561025757600080fd5b91908080601f016020809104026020016040519081016040528093929190818152602001838380828437600081840152601f19601f820116905080830192505050505050509192919290803590602001906401000000008111156102ba57600080fd5b8201836020820111156102cc57600080fd5b803590602001918460018302840111640100000000831117156102ee57600080fd5b91908080601f016020809104026020016040519081016040528093929190818152602001838380828437600081840152601f19601f8201169050808301925050505050505091929192908035906020019064010000000081111561035157600080fd5b82018360208201111561036357600080fd5b8035906020019184600183028401116401000000008311171561038557600080fd5b91908080601f016020809104026020016040519081016040528093929190818152602001838380828437600081840152601f19601f820116905080830192505050505050509192919290803590602001906401000000008111156103e857600080fd5b8201836020820111156103fa57600080fd5b8035906020019184600183028401116401000000008311171561041c57600080fd5b91908080601f016020809104026020016040519081016040528093929190818152602001838380828437600081840152601f19601f8201169050808301925050505050505091929192905050506106f3565b005b6105336004803603604081101561048657600080fd5b8101908080359060200190929190803590602001906401000000008111156104ad57600080fd5b8201836020820111156104bf57600080fd5b803590602001918460018302840111640100000000831117156104e157600080fd5b91908080601f016020809104026020016040519081016040528093929190818152602001838380828437600081840152601f19601f8201169050808301925050505050505091929192905050506109aa565b005b8260016000858152602001908152602001600020600001819055508160016000858152602001908152602001600020600101908051906020019061057a929190610d75565b50806001600085815260200190815260200160002060020160006101000a81548160ff021916908360018111156105ad57fe5b02179055507f1eaa65e59dae2db4a5fa83021e89ab224f1464cb20060e8c55ba8ac1c32a046d6001604051808215151515815260200191505060405180910390a1505050565b6000606060006001600085815260200190815260200160002060000154600160008681526020019081526020016000206001016001600087815260200190815260200160002060020160009054906101000a900460ff16818054600181600116156101000203166002900480601f0160208091040260200160405190810160405280929190818152602001828054600181600116156101000203166002900480156106df5780601f106106b4576101008083540402835291602001916106df565b820191906000526020600020905b8154815290600101906020018083116106c257829003601f168201915b505050505091509250925092509193909250565b6000600181111561070057fe5b6001600087815260200190815260200160002060020160009054906101000a900460ff16600181111561072f57fe5b14156108f957816000856040518082805190602001908083835b6020831061076c5780518252602082019150602081019050602083039250610749565b6001836020036101000a038019825116818451168082178552505050505050905001915050908152602001604051809103902060000190805190602001906107b5929190610d75565b50826000856040518082805190602001908083835b602083106107ed57805182526020820191506020810190506020830392506107ca565b6001836020036101000a03801982511681845116808217855250505050505090500191505090815260200160405180910390206001019080519060200190610836929190610d75565b50806000856040518082805190602001908083835b6020831061086e578051825260208201915060208101905060208303925061084b565b6001836020036101000a038019825116818451168082178552505050505050905001915050908152602001604051809103902060020190805190602001906108b7929190610d75565b507f1eaa65e59dae2db4a5fa83021e89ab224f1464cb20060e8c55ba8ac1c32a046d6001604051808215151515815260200191505060405180910390a16109a3565b7fada7cf7190475a40b58db39907acd4ad9f848fe95d3b277915bb6c637821c9486000604051808215151515815260200191505060405180910390a16040517f08c379a00000000000000000000000000000000000000000000000000000000081526004018080602001828103825260168152602001807f4572726f7220646520417574656e7469636163696f6e0000000000000000000081525060200191505060405180910390fd5b5050505050565b600060016000848152602001908152602001600020600001541415610a63577f9505394c0bd4ab658e4ed429d902ec9b5334051fb5900cd970c58b5e3bdf001a60405160405180910390a16040517f08c379a00000000000000000000000000000000000000000000000000000000081526004018080602001828103825260168152602001807f4572726f7220646520417574656e7469636163696f6e0000000000000000000081525060200191505060405180910390fd5b7f90da3643b314f7d3f85b2b1a2df9ec62d6db4a377ac271c8aef44a95c6b57d6d6000826040518082805190602001908083835b60208310610aba5780518252602082019150602081019050602083039250610a97565b6001836020036101000a03801982511681845116808217855250505050505090500191505090815260200160405180910390206001016000836040518082805190602001908083835b60208310610b265780518252602082019150602081019050602083039250610b03565b6001836020036101000a03801982511681845116808217855250505050505090500191505090815260200160405180910390206000016000846040518082805190602001908083835b60208310610b925780518252602082019150602081019050602083039250610b6f565b6001836020036101000a038019825116818451168082178552505050505050905001915050908152602001604051809103902060020160405180806020018060200180602001848103845287818154600181600116156101000203166002900481526020019150805460018160011615610100020316600290048015610c595780601f10610c2e57610100808354040283529160200191610c59565b820191906000526020600020905b815481529060010190602001808311610c3c57829003601f168201915b5050848103835286818154600181600116156101000203166002900481526020019150805460018160011615610100020316600290048015610cdc5780601f10610cb157610100808354040283529160200191610cdc565b820191906000526020600020905b815481529060010190602001808311610cbf57829003601f168201915b5050848103825285818154600181600116156101000203166002900481526020019150805460018160011615610100020316600290048015610d5f5780601f10610d3457610100808354040283529160200191610d5f565b820191906000526020600020905b815481529060010190602001808311610d4257829003601f168201915b5050965050505050505060405180910390a15050565b828054600181600116156101000203166002900490600052602060002090601f016020900481019282601f10610db657805160ff1916838001178555610de4565b82800160010185558215610de4579182015b82811115610de3578251825591602001919060010190610dc8565b5b509050610df19190610df5565b5090565b610e1791905b80821115610e13576000816000905550600101610dfb565b5090565b9056fea165627a7a723058206f7ec79aae8bc5b328e05587633b1173ee0043148e544db055e33b1a9dc70e750029",
  "source": "pragma solidity ^0.5.0;\r\n\r\ncontract Desastre{\r\n\r\n    event CargaInformacion(string, string, string);\r\n    event ErrorCarga();\r\n\tevent correcto(bool);\r\n\tevent Fallo(bool);\r\n\tstruct Users{\r\n\t    uint idUser;\r\n\t    string  nombre;\r\n\t    Tipo rol;\r\n\t}\r\n\r\n\tenum Tipo {Adminsitracion, ciudadano}\r\n\r\n\tstruct RegistroUbicacion{\r\n\t    string longitud;\r\n\t    string latitud;\r\n\t    string caudal;\r\n\t}\r\n\r\n\tmapping(string=>RegistroUbicacion) registrosUbicacion;\r\n\tmapping(uint => Users) listaUsuarios;\r\n\r\n\tfunction setUser(uint id, string memory nombre, Tipo _rol)public{\r\n\t    listaUsuarios[id].idUser = id;\r\n\t    listaUsuarios[id].nombre = nombre;\r\n\t    listaUsuarios[id].rol = _rol;\r\n\t\temit correcto(true);\r\n\t}\r\n\tfunction setRegistro(uint idUser, string memory _fecha, string memory _latitud, string memory _longitud, string memory caudal) public{\r\n\t   if(listaUsuarios[idUser].rol == Tipo.Adminsitracion){\r\n\t    registrosUbicacion[_fecha].longitud = _longitud;\r\n\t    registrosUbicacion[_fecha].latitud = _latitud;\r\n\t    registrosUbicacion[_fecha].caudal = caudal;\r\n\t    emit correcto(true);\r\n\t   }else{\r\n\t       emit Fallo(false);\r\n\t        revert('Error de Autenticacion');\r\n\t   }\r\n\t}\r\n\tfunction getUser(uint id)public view returns(uint,string memory, Tipo){\r\n\t    return(listaUsuarios[id].idUser,listaUsuarios[id].nombre,listaUsuarios[id].rol);\r\n\t}\r\n\tfunction getRegistro(uint idUser,  string memory Fecha) public{\r\n\t    if(listaUsuarios[idUser].idUser == 0){\r\n\t        emit ErrorCarga();\r\n\t        revert('Error de Autenticacion');\r\n\t    }else{\r\n\t        emit CargaInformacion(registrosUbicacion[Fecha].latitud,registrosUbicacion[Fecha].longitud,registrosUbicacion[Fecha].caudal);\r\n\t    }\r\n\t}\r\n\r\n}\r\n",
  "sourcePath": "c:/Users/danie/Videos/ProyectosBlockchain/Taller25/contracts/Desastre.sol",
  "compiler": {
    "name": "solc",
    "version": "0.5.8+commit.23d335f2.Emscripten.clang"
  },
  "schemaVersion": "3.0.16",
  "updatedAt": "2019-10-27T06:01:04.797Z",
  "devdoc": {
    "methods": {}
  },
  "userdoc": {
    "methods": {}
  }
}