{
  "contractName": "Desastre",
  "abi": [
    {
      "anonymous": false,
      "inputs": [
        {
          "indexed": false,
          "name": "",
          "type": "string"
        },
        {
          "indexed": false,
          "name": "",
          "type": "string"
        },
        {
          "indexed": false,
          "name": "",
          "type": "string"
        }
      ],
      "name": "CargaInformacion",
      "type": "event"
    },
    {
      "anonymous": false,
      "inputs": [],
      "name": "ErrorCarga",
      "type": "event"
    },
    {
      "anonymous": false,
      "inputs": [
        {
          "indexed": false,
          "name": "",
          "type": "bool"
        }
      ],
      "name": "correcto",
      "type": "event"
    },
    {
      "anonymous": false,
      "inputs": [
        {
          "indexed": false,
          "name": "",
          "type": "bool"
        }
      ],
      "name": "Fallo",
      "type": "event"
    },
    {
      "constant": false,
      "inputs": [
        {
          "name": "id",
          "type": "uint256"
        },
        {
          "name": "nombre",
          "type": "string"
        },
        {
          "name": "_rol",
          "type": "uint8"
        }
      ],
      "name": "setUser",
      "outputs": [],
      "payable": false,
      "stateMutability": "nonpayable",
      "type": "function"
    },
    {
      "constant": false,
      "inputs": [
        {
          "name": "idUser",
          "type": "uint256"
        },
        {
          "name": "_fecha",
          "type": "string"
        },
        {
          "name": "_latitud",
          "type": "string"
        },
        {
          "name": "_longitud",
          "type": "string"
        },
        {
          "name": "caudal",
          "type": "string"
        }
      ],
      "name": "setRegistro",
      "outputs": [],
      "payable": false,
      "stateMutability": "nonpayable",
      "type": "function"
    },
    {
      "constant": true,
      "inputs": [
        {
          "name": "id",
          "type": "uint256"
        }
      ],
      "name": "getUser",
      "outputs": [
        {
          "name": "",
          "type": "uint256"
        },
        {
          "name": "",
          "type": "string"
        },
        {
          "name": "",
          "type": "uint8"
        }
      ],
      "payable": false,
      "stateMutability": "view",
      "type": "function"
    },
    {
      "constant": true,
      "inputs": [
        {
          "name": "idUser",
          "type": "uint256"
        },
        {
          "name": "Fecha",
          "type": "string"
        }
      ],
      "name": "getRegistro",
      "outputs": [
        {
          "name": "",
          "type": "string"
        },
        {
          "name": "",
          "type": "string"
        },
        {
          "name": "",
          "type": "string"
        }
      ],
      "payable": false,
      "stateMutability": "view",
      "type": "function"
    }
  ],
  "bytecode": "0x608060405234801561001057600080fd5b50610fa3806100206000396000f3fe608060405234801561001057600080fd5b506004361061004c5760003560e01c806374a35a9914610051578063b0467deb14610123578063f78f8b47146101e6578063f7918f1f14610470575b600080fd5b6101216004803603606081101561006757600080fd5b81019080803590602001909291908035906020019064010000000081111561008e57600080fd5b8201836020820111156100a057600080fd5b803590602001918460018302840111640100000000831117156100c257600080fd5b91908080601f016020809104026020016040519081016040528093929190818152602001838380828437600081840152601f19601f820116905080830192505050505050509192919290803560ff169060200190929190505050610686565b005b61014f6004803603602081101561013957600080fd5b8101908080359060200190929190505050610744565b604051808481526020018060200183600181111561016957fe5b60ff168152602001828103825284818151815260200191508051906020019080838360005b838110156101a957808201518184015260208101905061018e565b50505050905090810190601f1680156101d65780820380516001836020036101000a031916815260200191505b5094505050505060405180910390f35b61046e600480360360a08110156101fc57600080fd5b81019080803590602001909291908035906020019064010000000081111561022357600080fd5b82018360208201111561023557600080fd5b8035906020019184600183028401116401000000008311171561025757600080fd5b91908080601f016020809104026020016040519081016040528093929190818152602001838380828437600081840152601f19601f820116905080830192505050505050509192919290803590602001906401000000008111156102ba57600080fd5b8201836020820111156102cc57600080fd5b803590602001918460018302840111640100000000831117156102ee57600080fd5b91908080601f016020809104026020016040519081016040528093929190818152602001838380828437600081840152601f19601f8201169050808301925050505050505091929192908035906020019064010000000081111561035157600080fd5b82018360208201111561036357600080fd5b8035906020019184600183028401116401000000008311171561038557600080fd5b91908080601f016020809104026020016040519081016040528093929190818152602001838380828437600081840152601f19601f820116905080830192505050505050509192919290803590602001906401000000008111156103e857600080fd5b8201836020820111156103fa57600080fd5b8035906020019184600183028401116401000000008311171561041c57600080fd5b91908080601f016020809104026020016040519081016040528093929190818152602001838380828437600081840152601f19601f820116905080830192505050505050509192919290505050610844565b005b6105336004803603604081101561048657600080fd5b8101908080359060200190929190803590602001906401000000008111156104ad57600080fd5b8201836020820111156104bf57600080fd5b803590602001918460018302840111640100000000831117156104e157600080fd5b91908080601f016020809104026020016040519081016040528093929190818152602001838380828437600081840152601f19601f820116905080830192505050505050509192919290505050610b1b565b60405180806020018060200180602001848103845287818151815260200191508051906020019080838360005b8381101561057b578082015181840152602081019050610560565b50505050905090810190601f1680156105a85780820380516001836020036101000a031916815260200191505b50848103835286818151815260200191508051906020019080838360005b838110156105e15780820151818401526020810190506105c6565b50505050905090810190601f16801561060e5780820380516001836020036101000a031916815260200191505b50848103825285818151815260200191508051906020019080838360005b8381101561064757808201518184015260208101905061062c565b50505050905090810190601f1680156106745780820380516001836020036101000a031916815260200191505b50965050505050505060405180910390f35b826001600085815260200190815260200160002060000181905550816001600085815260200190815260200160002060010190805190602001906106cb929190610ed2565b50806001600085815260200190815260200160002060020160006101000a81548160ff021916908360018111156106fe57fe5b02179055507f1eaa65e59dae2db4a5fa83021e89ab224f1464cb20060e8c55ba8ac1c32a046d6001604051808215151515815260200191505060405180910390a1505050565b6000606060006001600085815260200190815260200160002060000154600160008681526020019081526020016000206001016001600087815260200190815260200160002060020160009054906101000a900460ff16818054600181600116156101000203166002900480601f0160208091040260200160405190810160405280929190818152602001828054600181600116156101000203166002900480156108305780601f1061080557610100808354040283529160200191610830565b820191906000526020600020905b81548152906001019060200180831161081357829003601f168201915b505050505091509250925092509193909250565b8460016000878152602001908152602001600020600001541480156108a1575060018081111561087057fe5b6001600087815260200190815260200160002060020160009054906101000a900460ff16600181111561089f57fe5b145b15610a6a57816000856040518082805190602001908083835b602083106108dd57805182526020820191506020810190506020830392506108ba565b6001836020036101000a03801982511681845116808217855250505050505090500191505090815260200160405180910390206000019080519060200190610926929190610ed2565b50826000856040518082805190602001908083835b6020831061095e578051825260208201915060208101905060208303925061093b565b6001836020036101000a038019825116818451168082178552505050505050905001915050908152602001604051809103902060010190805190602001906109a7929190610ed2565b50806000856040518082805190602001908083835b602083106109df57805182526020820191506020810190506020830392506109bc565b6001836020036101000a03801982511681845116808217855250505050505090500191505090815260200160405180910390206002019080519060200190610a28929190610ed2565b507f1eaa65e59dae2db4a5fa83021e89ab224f1464cb20060e8c55ba8ac1c32a046d6001604051808215151515815260200191505060405180910390a1610b14565b7fada7cf7190475a40b58db39907acd4ad9f848fe95d3b277915bb6c637821c9486000604051808215151515815260200191505060405180910390a16040517f08c379a00000000000000000000000000000000000000000000000000000000081526004018080602001828103825260168152602001807f4572726f7220646520417574656e7469636163696f6e0000000000000000000081525060200191505060405180910390fd5b5050505050565b6060806060600060016000878152602001908152602001600020600001541415610bad576040517f08c379a00000000000000000000000000000000000000000000000000000000081526004018080602001828103825260058152602001807f4572726f7200000000000000000000000000000000000000000000000000000081525060200191505060405180910390fd5b6000846040518082805190602001908083835b60208310610be35780518252602082019150602081019050602083039250610bc0565b6001836020036101000a03801982511681845116808217855250505050505090500191505090815260200160405180910390206001016000856040518082805190602001908083835b60208310610c4f5780518252602082019150602081019050602083039250610c2c565b6001836020036101000a03801982511681845116808217855250505050505090500191505090815260200160405180910390206000016000866040518082805190602001908083835b60208310610cbb5780518252602082019150602081019050602083039250610c98565b6001836020036101000a0380198251168184511680821785525050505050509050019150509081526020016040518091039020600201828054600181600116156101000203166002900480601f016020809104026020016040519081016040528092919081815260200182805460018160011615610100020316600290048015610d865780601f10610d5b57610100808354040283529160200191610d86565b820191906000526020600020905b815481529060010190602001808311610d6957829003601f168201915b50505050509250818054600181600116156101000203166002900480601f016020809104026020016040519081016040528092919081815260200182805460018160011615610100020316600290048015610e225780601f10610df757610100808354040283529160200191610e22565b820191906000526020600020905b815481529060010190602001808311610e0557829003601f168201915b50505050509150808054600181600116156101000203166002900480601f016020809104026020016040519081016040528092919081815260200182805460018160011615610100020316600290048015610ebe5780601f10610e9357610100808354040283529160200191610ebe565b820191906000526020600020905b815481529060010190602001808311610ea157829003601f168201915b505050505090509250925092509250925092565b828054600181600116156101000203166002900490600052602060002090601f016020900481019282601f10610f1357805160ff1916838001178555610f41565b82800160010185558215610f41579182015b82811115610f40578251825591602001919060010190610f25565b5b509050610f4e9190610f52565b5090565b610f7491905b80821115610f70576000816000905550600101610f58565b5090565b9056fea165627a7a72305820ade6ae1ff38cebc2d9a73c3aee5fe84fc186bc88dc0209de93b5106d8bef108a0029",
  "source": "pragma solidity ^0.5.0;\n\ncontract Desastre{\n\n    event CargaInformacion(string, string, string);\n    event ErrorCarga();\n\tevent correcto(bool);\n\tevent Fallo(bool);\n\tstruct Users{\n\t    uint idUser;\n\t    string  nombre;\n\t    Tipo rol;\n\t}\n\n\tenum Tipo {ciudadano,Adminsitracion}\n\n\tstruct RegistroUbicacion{\n\t    string longitud;\n\t    string latitud;\n\t    string caudal;\n\t}\n\n\tmapping(string=>RegistroUbicacion) registrosUbicacion;\n\tmapping(uint => Users) listaUsuarios;\n\n\tfunction setUser(uint id, string memory nombre, Tipo _rol)public{\n\t    listaUsuarios[id].idUser = id;\n\t    listaUsuarios[id].nombre = nombre;\n\t    listaUsuarios[id].rol = _rol;\n\t\temit correcto(true);\n\t}\n\tfunction setRegistro(uint idUser, string memory _fecha, string memory _latitud, string memory _longitud, string memory caudal) public{\n\t   if(listaUsuarios[idUser].idUser == idUser && listaUsuarios[idUser].rol == Tipo.Adminsitracion){\n\t    registrosUbicacion[_fecha].longitud = _longitud;\n\t    registrosUbicacion[_fecha].latitud = _latitud;\n\t    registrosUbicacion[_fecha].caudal = caudal;\n\t    emit correcto(true);\n\t   }else{\n\t       emit Fallo(false);\n\t        revert('Error de Autenticacion');\n\t   }\n\t}\n\tfunction getUser(uint id)public view returns(uint,string memory, Tipo){\n\t    return(listaUsuarios[id].idUser,listaUsuarios[id].nombre,listaUsuarios[id].rol);\n\t}\n\tfunction getRegistro(uint idUser,  string memory Fecha) public view returns(string memory, string memory, string memory){\n\t    if(listaUsuarios[idUser].idUser == 0){\n\t        revert('Error');\n\t    }else{\n\t        return (registrosUbicacion[Fecha].latitud,registrosUbicacion[Fecha].longitud,registrosUbicacion[Fecha].caudal);\n\t    }\n\t}\n\n}\n",
  "sourcePath": "/home/droro/Documents/BlockChain/Blockchain-Solidity/Taller25/contracts/Desastre.sol",
  "compiler": {
    "name": "solc",
    "version": "0.5.8+commit.23d335f2.Emscripten.clang"
  },
  "schemaVersion": "3.0.16",
  "updatedAt": "2019-10-31T05:04:04.067Z",
  "devdoc": {
    "methods": {}
  },
  "userdoc": {
    "methods": {}
  }
}