{
  "contractName": "EstacionGas",
  "abi": [
    {
      "anonymous": false,
      "inputs": [
        {
          "indexed": false,
          "name": "",
          "type": "uint256"
        }
      ],
      "name": "RegistroEstacionExitosa",
      "type": "event"
    },
    {
      "anonymous": false,
      "inputs": [],
      "name": "RegistroCombustibleExitoso",
      "type": "event"
    },
    {
      "anonymous": false,
      "inputs": [
        {
          "indexed": false,
          "name": "",
          "type": "bool"
        }
      ],
      "name": "DepositoRealizado",
      "type": "event"
    },
    {
      "anonymous": false,
      "inputs": [
        {
          "indexed": false,
          "name": "",
          "type": "bool"
        }
      ],
      "name": "DepositoFallido",
      "type": "event"
    },
    {
      "anonymous": false,
      "inputs": [
        {
          "indexed": false,
          "name": "",
          "type": "bool"
        }
      ],
      "name": "DepositoCancelado",
      "type": "event"
    },
    {
      "anonymous": false,
      "inputs": [
        {
          "indexed": false,
          "name": "",
          "type": "bool"
        }
      ],
      "name": "ErrorCancelacion",
      "type": "event"
    },
    {
      "anonymous": false,
      "inputs": [
        {
          "indexed": false,
          "name": "",
          "type": "uint8"
        },
        {
          "indexed": false,
          "name": "",
          "type": "uint256"
        },
        {
          "indexed": false,
          "name": "",
          "type": "uint256"
        },
        {
          "indexed": false,
          "name": "",
          "type": "uint256"
        }
      ],
      "name": "CargaGasolinaExitosa",
      "type": "event"
    },
    {
      "anonymous": false,
      "inputs": [],
      "name": "CargaGasolinaFallida",
      "type": "event"
    },
    {
      "anonymous": false,
      "inputs": [],
      "name": "InformacionGasStation",
      "type": "event"
    },
    {
      "anonymous": false,
      "inputs": [
        {
          "indexed": false,
          "name": "",
          "type": "address"
        },
        {
          "indexed": false,
          "name": "",
          "type": "uint8"
        },
        {
          "indexed": false,
          "name": "",
          "type": "uint256"
        },
        {
          "indexed": false,
          "name": "",
          "type": "uint256"
        },
        {
          "indexed": false,
          "name": "",
          "type": "uint256"
        },
        {
          "indexed": false,
          "name": "",
          "type": "bool"
        }
      ],
      "name": "CargaTransaccion",
      "type": "event"
    },
    {
      "constant": false,
      "inputs": [
        {
          "name": "addEstacion",
          "type": "address"
        },
        {
          "name": "tipo",
          "type": "uint8"
        },
        {
          "name": "_precio",
          "type": "uint256"
        }
      ],
      "name": "setPriceFuel",
      "outputs": [],
      "payable": false,
      "stateMutability": "nonpayable",
      "type": "function"
    },
    {
      "constant": true,
      "inputs": [
        {
          "name": "direccionEstacion",
          "type": "address"
        },
        {
          "name": "tipo",
          "type": "uint8"
        }
      ],
      "name": "getPriceFuel",
      "outputs": [
        {
          "name": "",
          "type": "uint256"
        }
      ],
      "payable": false,
      "stateMutability": "view",
      "type": "function"
    },
    {
      "constant": false,
      "inputs": [
        {
          "name": "direccionEstacion",
          "type": "address"
        },
        {
          "name": "_nombre",
          "type": "string"
        }
      ],
      "name": "setGasInfo",
      "outputs": [],
      "payable": false,
      "stateMutability": "nonpayable",
      "type": "function"
    },
    {
      "constant": true,
      "inputs": [
        {
          "name": "direccionEstacion",
          "type": "address"
        }
      ],
      "name": "getGasInfo",
      "outputs": [
        {
          "name": "",
          "type": "string"
        },
        {
          "name": "",
          "type": "uint8[]"
        },
        {
          "name": "",
          "type": "uint256[3]"
        }
      ],
      "payable": false,
      "stateMutability": "view",
      "type": "function"
    },
    {
      "constant": false,
      "inputs": [
        {
          "name": "direccionEstacion",
          "type": "address"
        },
        {
          "name": "idVehiculo",
          "type": "uint256"
        },
        {
          "name": "tipo",
          "type": "uint8"
        },
        {
          "name": "cantidadFuel",
          "type": "uint256"
        }
      ],
      "name": "sendDeposit",
      "outputs": [],
      "payable": true,
      "stateMutability": "payable",
      "type": "function"
    },
    {
      "constant": false,
      "inputs": [
        {
          "name": "direccionEstacion",
          "type": "address"
        },
        {
          "name": "idVehiculo",
          "type": "uint256"
        }
      ],
      "name": "enviarFuel",
      "outputs": [],
      "payable": true,
      "stateMutability": "payable",
      "type": "function"
    },
    {
      "constant": true,
      "inputs": [
        {
          "name": "direccionEstacion",
          "type": "address"
        },
        {
          "name": "idVehiculo",
          "type": "uint256"
        }
      ],
      "name": "verifyDeposit",
      "outputs": [
        {
          "name": "",
          "type": "bool"
        }
      ],
      "payable": false,
      "stateMutability": "view",
      "type": "function"
    },
    {
      "constant": false,
      "inputs": [
        {
          "name": "direccionEstacion",
          "type": "address"
        },
        {
          "name": "idVehiculo",
          "type": "uint256"
        }
      ],
      "name": "cancelDeposit",
      "outputs": [],
      "payable": true,
      "stateMutability": "payable",
      "type": "function"
    },
    {
      "constant": true,
      "inputs": [
        {
          "name": "direccionEstacion",
          "type": "address"
        }
      ],
      "name": "getSaldoEstacion",
      "outputs": [
        {
          "name": "",
          "type": "uint256"
        }
      ],
      "payable": false,
      "stateMutability": "view",
      "type": "function"
    },
    {
      "constant": false,
      "inputs": [
        {
          "name": "direccionEstacion",
          "type": "address"
        },
        {
          "name": "idVehiculo",
          "type": "uint256"
        }
      ],
      "name": "getTransaccion",
      "outputs": [],
      "payable": false,
      "stateMutability": "nonpayable",
      "type": "function"
    }
  ],
  "bytecode": "0x60806040526040518060600160405280600060028111156200001d57fe5b60028111156200002957fe5b8152602001600160028111156200003c57fe5b60028111156200004857fe5b81526020016002808111156200005a57fe5b60028111156200006657fe5b81525060009060036200007b92919062000090565b503480156200008957600080fd5b506200017a565b82805482825590600052602060002090601f01602090048101928215620001345791602002820160005b838211156200010357835183826101000a81548160ff02191690836002811115620000e157fe5b02179055509260200192600101602081600001049283019260010302620000ba565b8015620001325782816101000a81549060ff021916905560010160208160000104928301926001030262000103565b505b50905062000143919062000147565b5090565b6200017791905b808211156200017357600081816101000a81549060ff0219169055506001016200014e565b5090565b90565b611ea4806200018a6000396000f3fe6080604052600436106100915760003560e01c80638b66329c116100595780638b66329c14610319578063b957bc4314610367578063c5918d21146103cc578063ea5c46cf1461043e578063f5f814031461048c57610091565b80630332a324146100965780631448ff9a146101095780631c031810146101715780634bf30b26146101cc5780636fa24b6014610231575b600080fd5b3480156100a257600080fd5b506100ef600480360360408110156100b957600080fd5b81019080803573ffffffffffffffffffffffffffffffffffffffff169060200190929190803590602001909291905050506105cd565b604051808215151515815260200191505060405180910390f35b34801561011557600080fd5b5061016f6004803603606081101561012c57600080fd5b81019080803573ffffffffffffffffffffffffffffffffffffffff169060200190929190803560ff1690602001909291908035906020019092919050505061063b565b005b34801561017d57600080fd5b506101ca6004803603604081101561019457600080fd5b81019080803573ffffffffffffffffffffffffffffffffffffffff169060200190929190803590602001909291905050506106ca565b005b61022f600480360360808110156101e257600080fd5b81019080803573ffffffffffffffffffffffffffffffffffffffff16906020019092919080359060200190929190803560ff169060200190929190803590602001909291905050506109cd565b005b34801561023d57600080fd5b506103176004803603604081101561025457600080fd5b81019080803573ffffffffffffffffffffffffffffffffffffffff1690602001909291908035906020019064010000000081111561029157600080fd5b8201836020820111156102a357600080fd5b803590602001918460018302840111640100000000831117156102c557600080fd5b91908080601f016020809104026020016040519081016040528093929190818152602001838380828437600081840152601f19601f820116905080830192505050505050509192919290505050610d80565b005b6103656004803603604081101561032f57600080fd5b81019080803573ffffffffffffffffffffffffffffffffffffffff16906020019092919080359060200190929190505050610e13565b005b34801561037357600080fd5b506103b66004803603602081101561038a57600080fd5b81019080803573ffffffffffffffffffffffffffffffffffffffff1690602001909291905050506110d7565b6040518082815260200191505060405180910390f35b3480156103d857600080fd5b50610428600480360360408110156103ef57600080fd5b81019080803573ffffffffffffffffffffffffffffffffffffffff169060200190929190803560ff169060200190929190505050611120565b6040518082815260200191505060405180910390f35b61048a6004803603604081101561045457600080fd5b81019080803573ffffffffffffffffffffffffffffffffffffffff16906020019092919080359060200190929190505050611184565b005b34801561049857600080fd5b506104db600480360360208110156104af57600080fd5b81019080803573ffffffffffffffffffffffffffffffffffffffff169060200190929190505050611b60565b60405180806020018060200184600360200280838360005b8381101561050e5780820151818401526020810190506104f3565b50505050905001838103835286818151815260200191508051906020019080838360005b8381101561054d578082015181840152602081019050610532565b50505050905090810190601f16801561057a5780820380516001836020036101000a031916815260200191505b50838103825285818151815260200191508051906020019060200280838360005b838110156105b657808201518184015260208101905061059b565b505050509050019550505050505060405180910390f35b6000600160008473ffffffffffffffffffffffffffffffffffffffff1673ffffffffffffffffffffffffffffffffffffffff168152602001908152602001600020600401600083815260200190815260200160002060040160009054906101000a900460ff16905092915050565b80600160008573ffffffffffffffffffffffffffffffffffffffff1673ffffffffffffffffffffffffffffffffffffffff16815260200190815260200160002060010183600281111561068a57fe5b6003811061069457fe5b01819055507fdb81fe1194811245265aa616ecacd9b74e5482ef0ec798d2c11dc38b8e974f6760405160405180910390a1505050565b6000600160008473ffffffffffffffffffffffffffffffffffffffff1673ffffffffffffffffffffffffffffffffffffffff168152602001908152602001600020600401600083815260200190815260200160002060000160009054906101000a900473ffffffffffffffffffffffffffffffffffffffff1690506000600160008573ffffffffffffffffffffffffffffffffffffffff1673ffffffffffffffffffffffffffffffffffffffff168152602001908152602001600020600401600084815260200190815260200160002060000160149054906101000a900460ff1690506000600160008673ffffffffffffffffffffffffffffffffffffffff1673ffffffffffffffffffffffffffffffffffffffff16815260200190815260200160002060040160008581526020019081526020016000206001015490506000600160008773ffffffffffffffffffffffffffffffffffffffff1673ffffffffffffffffffffffffffffffffffffffff16815260200190815260200160002060040160008681526020019081526020016000206002015490506000600160008873ffffffffffffffffffffffffffffffffffffffff1673ffffffffffffffffffffffffffffffffffffffff16815260200190815260200160002060040160008781526020019081526020016000206003015490506000600160008973ffffffffffffffffffffffffffffffffffffffff1673ffffffffffffffffffffffffffffffffffffffff168152602001908152602001600020600401600088815260200190815260200160002060040160009054906101000a900460ff1690507f4925f447158d1dc9997e0f64d97ac6e203436675c62e339fae3c2a1c876bad06868686868686604051808773ffffffffffffffffffffffffffffffffffffffff1673ffffffffffffffffffffffffffffffffffffffff16815260200186600281111561098f57fe5b60ff16815260200185815260200184815260200183815260200182151515158152602001965050505050505060405180910390a15050505050505050565b80600160008673ffffffffffffffffffffffffffffffffffffffff1673ffffffffffffffffffffffffffffffffffffffff168152602001908152602001600020600101836002811115610a1c57fe5b60038110610a2657fe5b0154023410610ced5734600160008673ffffffffffffffffffffffffffffffffffffffff1673ffffffffffffffffffffffffffffffffffffffff16815260200190815260200160002060040160008581526020019081526020016000206001016000828254019250508190555080600160008673ffffffffffffffffffffffffffffffffffffffff1673ffffffffffffffffffffffffffffffffffffffff16815260200190815260200160002060040160008581526020019081526020016000206002018190555081600160008673ffffffffffffffffffffffffffffffffffffffff1673ffffffffffffffffffffffffffffffffffffffff168152602001908152602001600020600401600085815260200190815260200160002060000160146101000a81548160ff02191690836002811115610b6057fe5b021790555060018060008673ffffffffffffffffffffffffffffffffffffffff1673ffffffffffffffffffffffffffffffffffffffff168152602001908152602001600020600401600085815260200190815260200160002060040160006101000a81548160ff02191690831515021790555033600160008673ffffffffffffffffffffffffffffffffffffffff1673ffffffffffffffffffffffffffffffffffffffff168152602001908152602001600020600401600085815260200190815260200160002060000160006101000a81548173ffffffffffffffffffffffffffffffffffffffff021916908373ffffffffffffffffffffffffffffffffffffffff16021790555082600260003373ffffffffffffffffffffffffffffffffffffffff1673ffffffffffffffffffffffffffffffffffffffff168152602001908152602001600020819055507f54c95da876a60f3c5810c0d7a7ceba0f1c2bcf1804cacd107c248529ea66d9b76001604051808215151515815260200191505060405180910390a1610d7a565b7f4f1091582299bd13294d1b932ddb8179b49579b8c1bb4208d9fe401b0c85ba4d6000604051808215151515815260200191505060405180910390a16040517f08c379a0000000000000000000000000000000000000000000000000000000008152600401808060200182810382526035815260200180611e216035913960400191505060405180910390fd5b50505050565b80600160008473ffffffffffffffffffffffffffffffffffffffff1673ffffffffffffffffffffffffffffffffffffffff1681526020019081526020016000206000019080519060200190610dd6929190611d59565b507ff1cc96bf83cb843b76cae8742162b7697eb8df8418cb559cacfa2f8332f0b98060016040518082815260200191505060405180910390a15050565b60011515600160008473ffffffffffffffffffffffffffffffffffffffff1673ffffffffffffffffffffffffffffffffffffffff168152602001908152602001600020600401600083815260200190815260200160002060040160009054906101000a900460ff1615151415611046576000600160008473ffffffffffffffffffffffffffffffffffffffff1673ffffffffffffffffffffffffffffffffffffffff168152602001908152602001600020600401600083815260200190815260200160002060040160006101000a81548160ff021916908315150217905550600160008373ffffffffffffffffffffffffffffffffffffffff1673ffffffffffffffffffffffffffffffffffffffff168152602001908152602001600020600401600082815260200190815260200160002060000160009054906101000a900473ffffffffffffffffffffffffffffffffffffffff1673ffffffffffffffffffffffffffffffffffffffff166108fc600160008573ffffffffffffffffffffffffffffffffffffffff1673ffffffffffffffffffffffffffffffffffffffff1681526020019081526020016000206004016000848152602001908152602001600020600101549081150290604051600060405180830381858888f19350505050158015611004573d6000803e3d6000fd5b507f582c1b4095b108dd817d0f10663856c93a149ede98cff6b0866b92952fd39e186001604051808215151515815260200191505060405180910390a16110d3565b7f0f899df067278d297e55787d4c40f550205c7ddd00db7fa631ec58074bcb47a56000604051808215151515815260200191505060405180910390a16040517f08c379a0000000000000000000000000000000000000000000000000000000008152600401808060200182810382526023815260200180611e566023913960400191505060405180910390fd5b5050565b6000600360008373ffffffffffffffffffffffffffffffffffffffff1673ffffffffffffffffffffffffffffffffffffffff168152602001908152602001600020549050919050565b6000600160008473ffffffffffffffffffffffffffffffffffffffff1673ffffffffffffffffffffffffffffffffffffffff16815260200190815260200160002060010182600281111561117057fe5b6003811061117a57fe5b0154905092915050565b6001151561119283836105cd565b15151415611ac2576000600160008473ffffffffffffffffffffffffffffffffffffffff1673ffffffffffffffffffffffffffffffffffffffff16815260200190815260200160002060040160008381526020019081526020016000206002015461126084600160008773ffffffffffffffffffffffffffffffffffffffff1673ffffffffffffffffffffffffffffffffffffffff168152602001908152602001600020600401600086815260200190815260200160002060000160149054906101000a900460ff16611120565b0290506000600160008573ffffffffffffffffffffffffffffffffffffffff1673ffffffffffffffffffffffffffffffffffffffff168152602001908152602001600020600401600084815260200190815260200160002060040160006101000a81548160ff021916908315150217905550600081600160008673ffffffffffffffffffffffffffffffffffffffff1673ffffffffffffffffffffffffffffffffffffffff1681526020019081526020016000206004016000858152602001908152602001600020600101540314156115eb576000600160008573ffffffffffffffffffffffffffffffffffffffff1673ffffffffffffffffffffffffffffffffffffffff168152602001908152602001600020600401600084815260200190815260200160002060030181905550600160008473ffffffffffffffffffffffffffffffffffffffff1673ffffffffffffffffffffffffffffffffffffffff168152602001908152602001600020600401600083815260200190815260200160002060010154600360008573ffffffffffffffffffffffffffffffffffffffff1673ffffffffffffffffffffffffffffffffffffffff168152602001908152602001600020600082825401925050819055508273ffffffffffffffffffffffffffffffffffffffff166108fc600160008673ffffffffffffffffffffffffffffffffffffffff1673ffffffffffffffffffffffffffffffffffffffff1681526020019081526020016000206004016000858152602001908152602001600020600101549081150290604051600060405180830381858888f193505050501580156114ce573d6000803e3d6000fd5b507f1556ebf8414d0a512a52d3bdb8304ff9960e5e1243422ea8977588d486906562600160008573ffffffffffffffffffffffffffffffffffffffff1673ffffffffffffffffffffffffffffffffffffffff168152602001908152602001600020600401600084815260200190815260200160002060000160149054906101000a900460ff16600160008673ffffffffffffffffffffffffffffffffffffffff1673ffffffffffffffffffffffffffffffffffffffff168152602001908152602001600020600401600085815260200190815260200160002060020154836000604051808560028111156115be57fe5b60ff16815260200184815260200183815260200182815260200194505050505060405180910390a1611abc565b600081600160008673ffffffffffffffffffffffffffffffffffffffff1673ffffffffffffffffffffffffffffffffffffffff168152602001908152602001600020600401600085815260200190815260200160002060010154031115611a2157600081600160008673ffffffffffffffffffffffffffffffffffffffff1673ffffffffffffffffffffffffffffffffffffffff16815260200190815260200160002060040160008581526020019081526020016000206001015403905080600160008673ffffffffffffffffffffffffffffffffffffffff1673ffffffffffffffffffffffffffffffffffffffff168152602001908152602001600020600401600085815260200190815260200160002060030181905550600160008573ffffffffffffffffffffffffffffffffffffffff1673ffffffffffffffffffffffffffffffffffffffff168152602001908152602001600020600401600084815260200190815260200160002060000160009054906101000a900473ffffffffffffffffffffffffffffffffffffffff1673ffffffffffffffffffffffffffffffffffffffff166108fc829081150290604051600060405180830381858888f193505050501580156117c0573d6000803e3d6000fd5b508373ffffffffffffffffffffffffffffffffffffffff166108fc82600160008873ffffffffffffffffffffffffffffffffffffffff1673ffffffffffffffffffffffffffffffffffffffff168152602001908152602001600020600401600087815260200190815260200160002060010154039081150290604051600060405180830381858888f1935050505015801561185f573d6000803e3d6000fd5b5080600160008673ffffffffffffffffffffffffffffffffffffffff1673ffffffffffffffffffffffffffffffffffffffff16815260200190815260200160002060040160008581526020019081526020016000206001015403600360008673ffffffffffffffffffffffffffffffffffffffff1673ffffffffffffffffffffffffffffffffffffffff168152602001908152602001600020600082825401925050819055507f1556ebf8414d0a512a52d3bdb8304ff9960e5e1243422ea8977588d486906562600160008673ffffffffffffffffffffffffffffffffffffffff1673ffffffffffffffffffffffffffffffffffffffff168152602001908152602001600020600401600085815260200190815260200160002060000160149054906101000a900460ff16600160008773ffffffffffffffffffffffffffffffffffffffff1673ffffffffffffffffffffffffffffffffffffffff1681526020019081526020016000206004016000868152602001908152602001600020600201548484604051808560028111156119f357fe5b60ff16815260200184815260200183815260200182815260200194505050505060405180910390a150611abb565b7f57615b6cfc44e3085262dd613784874bddc9628c36da0837222f3f832cfc0e6860405160405180910390a16040517f08c379a000000000000000000000000000000000000000000000000000000000815260040180806020018281038252601b8152602001807f456c206465706f7369746f206e6f207469656e6520666f6e646f73000000000081525060200191505060405180910390fd5b5b50611b5c565b7f57615b6cfc44e3085262dd613784874bddc9628c36da0837222f3f832cfc0e6860405160405180910390a16040517f08c379a00000000000000000000000000000000000000000000000000000000081526004018080602001828103825260188152602001807f456c206465706f7369746f206e6f2065732076616c69646f000000000000000081525060200191505060405180910390fd5b5050565b606080611b6b611dd9565b600160008573ffffffffffffffffffffffffffffffffffffffff1673ffffffffffffffffffffffffffffffffffffffff1681526020019081526020016000206000016000600160008773ffffffffffffffffffffffffffffffffffffffff1673ffffffffffffffffffffffffffffffffffffffff168152602001908152602001600020600101828054600181600116156101000203166002900480601f016020809104026020016040519081016040528092919081815260200182805460018160011615610100020316600290048015611c865780601f10611c5b57610100808354040283529160200191611c86565b820191906000526020600020905b815481529060010190602001808311611c6957829003601f168201915b5050505050925081805480602002602001604051908101604052809291908181526020018280548015611d0657602002820191906000526020600020906000905b82829054906101000a900460ff166002811115611ce057fe5b81526020019060010190602082600001049283019260010382029150808411611cc75790505b5050505050915080600380602002604051908101604052809291908260038015611d45576020028201915b815481526020019060010190808311611d31575b505050505090509250925092509193909250565b828054600181600116156101000203166002900490600052602060002090601f016020900481019282601f10611d9a57805160ff1916838001178555611dc8565b82800160010185558215611dc8579182015b82811115611dc7578251825591602001919060010190611dac565b5b509050611dd59190611dfb565b5090565b6040518060600160405280600390602082028038833980820191505090505090565b611e1d91905b80821115611e19576000816000905550600101611e01565b5090565b9056fe4c612072656361726761206e6f2063756d706c6520656c2070726563696f206d696e696d6f20646c6520636f6d6275737469626c654e6f2073652070756564652043616e63656c6172206c61205472616e73616363696f6ea165627a7a72305820929f548d5e9193323c21aa5359fcd346190d431148e596977ba4a01aab747dcf0029",
  "source": "//Daniel Rojas\n\npragma solidity ^0.5.1;\n\n\ncontract EstacionGas{\n\n    event RegistroEstacionExitosa(uint);\n    event RegistroCombustibleExitoso();\n    event DepositoRealizado(bool);\n    event DepositoFallido(bool);\n    event DepositoCancelado(bool);\n    event ErrorCancelacion(bool);\n    event CargaGasolinaExitosa(TipoCombustible, uint, uint, uint);\n    event CargaGasolinaFallida();\n    event InformacionGasStation();\n    event CargaTransaccion(address, TipoCombustible,uint,uint,uint,bool);\n    struct Estacion{\n        string nombreEstacion;\n        uint[3] listaPreciosTipoCombustible; //cada Estacion define su lista de precios, donde cada pocision (pos 0 => GAS) representa un tipo de combustible\n        mapping(uint => Transaccion) listaTransacciones; //Cada estacion maneja un diccionario de transacciones para llevar el registro de la interaccion de deposito de los vehiculos\n    }\n    struct Transaccion{ //Cada vehiculo que realice exitosamente un deposito de gasolina es una Transaccion de la estacion.\n        address payable direccionVehiculo;\n        TipoCombustible fuelSolicitado;\n        uint deposito;\n        uint cantidadSolicitadaFuel;\n        uint depositoDevuelta;\n        bool valida; // Sirve para saber si la Transaccion todavia es valida /(False => cuando se cancela el deposito antes de la carga de combustible o cuado se cargo el combustible);\n    }\n\n    enum TipoCombustible {GAS, Diesel, Corriente} //Tipos de combustible que manejan todas las estaciones\n    TipoCombustible[] listaCombustibles = [TipoCombustible.GAS, TipoCombustible.Diesel, TipoCombustible.Corriente]; // Lista de indices de los Tipos de combustibles\n    mapping(address => Estacion) estaciones; // Registro de Todas la estaciones en la red;\n    mapping(address => uint) listaVehiculosGlobal; //Registro de todos los vehiculos  que hayan interactuado con alguna estacion;\n    mapping(address=>uint) SaldoEstaciones;// Registro de saldo de ethers ganados por cada estacion;\n\nfunction setPriceFuel(address addEstacion,TipoCombustible tipo, uint _precio)public{\n    estaciones[addEstacion].listaPreciosTipoCombustible[uint(tipo)] = _precio;\n    emit RegistroCombustibleExitoso();\n}\nfunction getPriceFuel(address direccionEstacion, TipoCombustible tipo)public view returns(uint){\n    return (estaciones[direccionEstacion].listaPreciosTipoCombustible[uint(tipo)]);\n}\nfunction setGasInfo( address direccionEstacion, string memory _nombre) public{\n    estaciones[direccionEstacion].nombreEstacion = _nombre;\n    emit RegistroEstacionExitosa(1);\n}\nfunction getGasInfo(address direccionEstacion) public view returns(string memory,  TipoCombustible[] memory, uint[3] memory){\n    return(estaciones[direccionEstacion].nombreEstacion,listaCombustibles, estaciones[direccionEstacion].listaPreciosTipoCombustible);\n}\n\n/**\n * Esta funcion solo puede ser utilizada por el vehiculo;\n * */\nfunction sendDeposit(address direccionEstacion,  uint idVehiculo,  TipoCombustible tipo, uint cantidadFuel )public payable{\n    if(msg.value >= (estaciones[direccionEstacion].listaPreciosTipoCombustible[uint(tipo)] * cantidadFuel)){\n    estaciones[direccionEstacion].listaTransacciones[idVehiculo].deposito += msg.value;\n    estaciones[direccionEstacion].listaTransacciones[idVehiculo].cantidadSolicitadaFuel = cantidadFuel;\n    estaciones[direccionEstacion].listaTransacciones[idVehiculo].fuelSolicitado = tipo;\n    estaciones[direccionEstacion].listaTransacciones[idVehiculo].valida = true;\n    estaciones[direccionEstacion].listaTransacciones[idVehiculo].direccionVehiculo = msg.sender;\n    listaVehiculosGlobal[msg.sender] = idVehiculo;\n    emit DepositoRealizado(true);\n    }else{\n    emit DepositoFallido(false);\n    revert('La recarga no cumple el precio minimo dle combustible');\n    }\n}\nfunction enviarFuel( address payable direccionEstacion, uint idVehiculo) public payable{\n    if(verifyDeposit(direccionEstacion, idVehiculo) == true){\n        uint precio = getPriceFuel(direccionEstacion, estaciones[direccionEstacion].listaTransacciones[idVehiculo].fuelSolicitado) * estaciones[direccionEstacion].listaTransacciones[idVehiculo].cantidadSolicitadaFuel;\n        estaciones[direccionEstacion].listaTransacciones[idVehiculo].valida = false;\n        if(estaciones[direccionEstacion].listaTransacciones[idVehiculo].deposito - precio == 0){\n        estaciones[direccionEstacion].listaTransacciones[idVehiculo].depositoDevuelta = 0;\n        SaldoEstaciones[direccionEstacion] += estaciones[direccionEstacion].listaTransacciones[idVehiculo].deposito;\n        direccionEstacion.transfer(estaciones[direccionEstacion].listaTransacciones[idVehiculo].deposito);\n        emit CargaGasolinaExitosa(estaciones[direccionEstacion].listaTransacciones[idVehiculo].fuelSolicitado,estaciones[direccionEstacion].listaTransacciones[idVehiculo].cantidadSolicitadaFuel, precio, 0);\n        }else{\n            if(estaciones[direccionEstacion].listaTransacciones[idVehiculo].deposito - precio > 0){\n                uint depositoDevuelta = estaciones[direccionEstacion].listaTransacciones[idVehiculo].deposito - precio;\n                estaciones[direccionEstacion].listaTransacciones[idVehiculo].depositoDevuelta = depositoDevuelta;\n                estaciones[direccionEstacion].listaTransacciones[idVehiculo].direccionVehiculo.transfer(depositoDevuelta);\n                direccionEstacion.transfer(estaciones[direccionEstacion].listaTransacciones[idVehiculo].deposito - depositoDevuelta);\n                SaldoEstaciones[direccionEstacion] += estaciones[direccionEstacion].listaTransacciones[idVehiculo].deposito - depositoDevuelta;\n                emit CargaGasolinaExitosa(estaciones[direccionEstacion].listaTransacciones[idVehiculo].fuelSolicitado,estaciones[direccionEstacion].listaTransacciones[idVehiculo].cantidadSolicitadaFuel, precio, depositoDevuelta);\n                }else{\n                emit CargaGasolinaFallida();\n                revert('El deposito no tiene fondos');\n            }\n        }\n    }else{\n        emit CargaGasolinaFallida();\n        revert('El deposito no es valido');\n    }\n}\nfunction verifyDeposit(address direccionEstacion, uint idVehiculo) public view returns(bool){\n    return(estaciones[direccionEstacion].listaTransacciones[idVehiculo].valida);\n}\nfunction cancelDeposit(address direccionEstacion, uint idVehiculo) public payable {\n    if( estaciones[direccionEstacion].listaTransacciones[idVehiculo].valida == true ){\n         estaciones[direccionEstacion].listaTransacciones[idVehiculo].valida = false;\n         estaciones[direccionEstacion].listaTransacciones[idVehiculo].direccionVehiculo.transfer(estaciones[direccionEstacion].listaTransacciones[idVehiculo].deposito);\n         emit DepositoCancelado(true);\n    }else{\n         emit ErrorCancelacion(false);\n        revert('No se puede Cancelar la Transaccion');\n    }\n}\n\n\nfunction getSaldoEstacion(address direccionEstacion) public view returns(uint){\n    return SaldoEstaciones[direccionEstacion];\n}\nfunction getTransaccion(address direccionEstacion, uint idVehiculo) public{\n        address direccionVehiculo = estaciones[direccionEstacion].listaTransacciones[idVehiculo].direccionVehiculo;\n        TipoCombustible fuelSolicitado = estaciones[direccionEstacion].listaTransacciones[idVehiculo].fuelSolicitado;\n        uint deposito = estaciones[direccionEstacion].listaTransacciones[idVehiculo].deposito;\n        uint cantidadSolicitadaFuel = estaciones[direccionEstacion].listaTransacciones[idVehiculo].cantidadSolicitadaFuel;\n        uint depositoDevuelta = estaciones[direccionEstacion].listaTransacciones[idVehiculo].depositoDevuelta;\n        bool valida = estaciones[direccionEstacion].listaTransacciones[idVehiculo].valida;\n\nemit CargaTransaccion(direccionVehiculo,fuelSolicitado,deposito,cantidadSolicitadaFuel,depositoDevuelta,valida);\n}\n\n\n\n}",
  "sourcePath": "/home/droro/Documents/Blockchain/Blockchain-Solidity/Estacion_Angular2/contracts/EstacionGas.sol",
  "compiler": {
    "name": "solc",
    "version": "0.5.8+commit.23d335f2.Emscripten.clang"
  },
  "schemaVersion": "3.0.16",
  "updatedAt": "2019-11-01T12:52:57.341Z",
  "devdoc": {
    "methods": {}
  },
  "userdoc": {
    "methods": {
      "sendDeposit(address,uint256,uint8,uint256)": {
        "notice": "Esta funcion solo puede ser utilizada por el vehiculo;"
      }
    }
  }
}