{
  "contractName": "EEncuesta",
  "abi": [
    {
      "anonymous": false,
      "inputs": [
        {
          "indexed": false,
          "name": "",
          "type": "bool"
        }
      ],
      "name": "CreacionExitosa",
      "type": "event"
    },
    {
      "constant": false,
      "inputs": [
        {
          "name": "idEmpresa",
          "type": "uint256"
        }
      ],
      "name": "setEmpresa",
      "outputs": [],
      "payable": false,
      "stateMutability": "nonpayable",
      "type": "function"
    },
    {
      "constant": true,
      "inputs": [
        {
          "name": "idEmpresa",
          "type": "uint256"
        }
      ],
      "name": "getEmpresa",
      "outputs": [
        {
          "name": "",
          "type": "uint256"
        }
      ],
      "payable": false,
      "stateMutability": "view",
      "type": "function"
    },
    {
      "constant": false,
      "inputs": [
        {
          "name": "idEmpresa",
          "type": "uint256"
        },
        {
          "name": "idEncuestaContratada",
          "type": "uint256"
        }
      ],
      "name": "setEncuestaContratada",
      "outputs": [],
      "payable": false,
      "stateMutability": "nonpayable",
      "type": "function"
    },
    {
      "constant": false,
      "inputs": [
        {
          "name": "idEmpresa",
          "type": "uint256"
        },
        {
          "name": "idEncuestaContratada",
          "type": "uint256"
        },
        {
          "name": "pregunta",
          "type": "string"
        }
      ],
      "name": "setPregunta",
      "outputs": [],
      "payable": false,
      "stateMutability": "nonpayable",
      "type": "function"
    },
    {
      "constant": true,
      "inputs": [
        {
          "name": "idEmpresa",
          "type": "uint256"
        },
        {
          "name": "idEncuestaContratada",
          "type": "uint256"
        },
        {
          "name": "indexC",
          "type": "uint256"
        },
        {
          "name": "indexR",
          "type": "uint256"
        }
      ],
      "name": "getRespuesta",
      "outputs": [
        {
          "name": "",
          "type": "string"
        }
      ],
      "payable": false,
      "stateMutability": "view",
      "type": "function"
    },
    {
      "constant": true,
      "inputs": [
        {
          "name": "idEmpresa",
          "type": "uint256"
        },
        {
          "name": "idEncuestaContratada",
          "type": "uint256"
        },
        {
          "name": "indexC",
          "type": "uint256"
        }
      ],
      "name": "sizeRespuesta",
      "outputs": [
        {
          "name": "",
          "type": "uint256"
        }
      ],
      "payable": false,
      "stateMutability": "view",
      "type": "function"
    },
    {
      "constant": false,
      "inputs": [
        {
          "name": "cedula",
          "type": "uint256"
        }
      ],
      "name": "setEncuestador",
      "outputs": [],
      "payable": false,
      "stateMutability": "nonpayable",
      "type": "function"
    },
    {
      "constant": true,
      "inputs": [
        {
          "name": "indexContrato",
          "type": "uint256"
        }
      ],
      "name": "getContrato",
      "outputs": [
        {
          "name": "",
          "type": "uint256"
        },
        {
          "name": "",
          "type": "uint256"
        }
      ],
      "payable": false,
      "stateMutability": "view",
      "type": "function"
    },
    {
      "constant": true,
      "inputs": [
        {
          "name": "cedula",
          "type": "uint256"
        }
      ],
      "name": "getEncuestador",
      "outputs": [
        {
          "name": "",
          "type": "uint256"
        }
      ],
      "payable": false,
      "stateMutability": "view",
      "type": "function"
    },
    {
      "constant": true,
      "inputs": [
        {
          "name": "idEmpresa",
          "type": "uint256"
        },
        {
          "name": "idEncuestaContratada",
          "type": "uint256"
        }
      ],
      "name": "sizePreguntas",
      "outputs": [
        {
          "name": "",
          "type": "uint256"
        }
      ],
      "payable": false,
      "stateMutability": "view",
      "type": "function"
    },
    {
      "constant": true,
      "inputs": [
        {
          "name": "idEmpresa",
          "type": "uint256"
        },
        {
          "name": "idEncuestaContratada",
          "type": "uint256"
        },
        {
          "name": "index",
          "type": "uint256"
        }
      ],
      "name": "getPregunta",
      "outputs": [
        {
          "name": "pr",
          "type": "string"
        }
      ],
      "payable": false,
      "stateMutability": "view",
      "type": "function"
    },
    {
      "constant": true,
      "inputs": [],
      "name": "sizeListaContratos",
      "outputs": [
        {
          "name": "",
          "type": "uint256"
        }
      ],
      "payable": false,
      "stateMutability": "view",
      "type": "function"
    },
    {
      "constant": true,
      "inputs": [
        {
          "name": "idEmpresa",
          "type": "uint256"
        },
        {
          "name": "idEncuestaContratada",
          "type": "uint256"
        }
      ],
      "name": "sizeCheck",
      "outputs": [
        {
          "name": "",
          "type": "uint256"
        }
      ],
      "payable": false,
      "stateMutability": "view",
      "type": "function"
    },
    {
      "constant": false,
      "inputs": [
        {
          "name": "idEmpresa",
          "type": "uint256"
        },
        {
          "name": "idEncuestaContratada",
          "type": "uint256"
        },
        {
          "name": "lugar",
          "type": "string"
        },
        {
          "name": "fecha",
          "type": "string"
        },
        {
          "name": "hora",
          "type": "string"
        },
        {
          "name": "idEncuestador",
          "type": "uint256"
        },
        {
          "name": "idPersona",
          "type": "uint256"
        },
        {
          "name": "nombre",
          "type": "string"
        },
        {
          "name": "url",
          "type": "string"
        },
        {
          "name": "hs",
          "type": "string"
        },
        {
          "name": "indexC",
          "type": "uint256"
        }
      ],
      "name": "setCheck",
      "outputs": [],
      "payable": false,
      "stateMutability": "nonpayable",
      "type": "function"
    },
    {
      "constant": false,
      "inputs": [
        {
          "name": "idEmpresa",
          "type": "uint256"
        },
        {
          "name": "idEncuestaContratada",
          "type": "uint256"
        },
        {
          "name": "respuesta",
          "type": "string"
        },
        {
          "name": "indexC",
          "type": "uint256"
        }
      ],
      "name": "setRespuesta",
      "outputs": [],
      "payable": false,
      "stateMutability": "nonpayable",
      "type": "function"
    }
  ],
  "bytecode": "0x608060405234801561001057600080fd5b506114d4806100206000396000f3fe608060405234801561001057600080fd5b50600436106100f55760003560e01c8063a4b12f4611610097578063de73e6f011610066578063de73e6f014610862578063ef0cadbf146108ae578063ef55b1c014610987578063f1d149e014610a42576100f5565b8063a4b12f46146103e9578063a4dddba614610435578063b3d5a10514610816578063c298553814610844576100f5565b80633f6ff307116100d35780633f6ff3071461023957806343fd9efe1461028f5780635e4d0d50146102d857806361c7750b146103a7576100f5565b806304cb3529146100fa5780631814d7c7146101bf578063397a348a146101f7575b600080fd5b6101446004803603608081101561011057600080fd5b8101908080359060200190929190803590602001909291908035906020019092919080359060200190929190505050610a70565b6040518080602001828103825283818151815260200191508051906020019080838360005b83811015610184578082015181840152602081019050610169565b50505050905090810190601f1680156101b15780820380516001836020036101000a031916815260200191505b509250505060405180910390f35b6101f5600480360360408110156101d557600080fd5b810190808035906020019092919080359060200190929190505050610b68565b005b6102236004803603602081101561020d57600080fd5b8101908080359060200190929190505050610c43565b6040518082815260200191505060405180910390f35b6102796004803603606081101561024f57600080fd5b81019080803590602001909291908035906020019092919080359060200190929190505050610c62565b6040518082815260200191505060405180910390f35b6102bb600480360360208110156102a557600080fd5b8101908080359060200190929190505050610caf565b604051808381526020018281526020019250505060405180910390f35b6103a5600480360360608110156102ee57600080fd5b8101908080359060200190929190803590602001909291908035906020019064010000000081111561031f57600080fd5b82018360208201111561033157600080fd5b8035906020019184600183028401116401000000008311171561035357600080fd5b91908080601f016020809104026020016040519081016040528093929190818152602001838380828437600081840152601f19601f820116905080830192505050505050509192919290505050610ce9565b005b6103d3600480360360208110156103bd57600080fd5b8101908080359060200190929190505050610d55565b6040518082815260200191505060405180910390f35b61041f600480360360408110156103ff57600080fd5b810190808035906020019092919080359060200190929190505050610d75565b6040518082815260200191505060405180910390f35b610814600480360361016081101561044c57600080fd5b8101908080359060200190929190803590602001909291908035906020019064010000000081111561047d57600080fd5b82018360208201111561048f57600080fd5b803590602001918460018302840111640100000000831117156104b157600080fd5b91908080601f016020809104026020016040519081016040528093929190818152602001838380828437600081840152601f19601f8201169050808301925050505050505091929192908035906020019064010000000081111561051457600080fd5b82018360208201111561052657600080fd5b8035906020019184600183028401116401000000008311171561054857600080fd5b91908080601f016020809104026020016040519081016040528093929190818152602001838380828437600081840152601f19601f820116905080830192505050505050509192919290803590602001906401000000008111156105ab57600080fd5b8201836020820111156105bd57600080fd5b803590602001918460018302840111640100000000831117156105df57600080fd5b91908080601f016020809104026020016040519081016040528093929190818152602001838380828437600081840152601f19601f82011690508083019250505050505050919291929080359060200190929190803590602001909291908035906020019064010000000081111561065657600080fd5b82018360208201111561066857600080fd5b8035906020019184600183028401116401000000008311171561068a57600080fd5b91908080601f016020809104026020016040519081016040528093929190818152602001838380828437600081840152601f19601f820116905080830192505050505050509192919290803590602001906401000000008111156106ed57600080fd5b8201836020820111156106ff57600080fd5b8035906020019184600183028401116401000000008311171561072157600080fd5b91908080601f016020809104026020016040519081016040528093929190818152602001838380828437600081840152601f19601f8201169050808301925050505050505091929192908035906020019064010000000081111561078457600080fd5b82018360208201111561079657600080fd5b803590602001918460018302840111640100000000831117156107b857600080fd5b91908080601f016020809104026020016040519081016040528093929190818152602001838380828437600081840152601f19601f82011690508083019250505050505050919291929080359060200190929190505050610dad565b005b6108426004803603602081101561082c57600080fd5b81019080803590602001909291905050506110c0565b005b61084c611119565b6040518082815260200191505060405180910390f35b6108986004803603604081101561087857600080fd5b810190808035906020019092919080359060200190929190505050611126565b6040518082815260200191505060405180910390f35b610985600480360360808110156108c457600080fd5b810190808035906020019092919080359060200190929190803590602001906401000000008111156108f557600080fd5b82018360208201111561090757600080fd5b8035906020019184600183028401116401000000008311171561092957600080fd5b91908080601f016020809104026020016040519081016040528093929190818152602001838380828437600081840152601f19601f8201169050808301925050505050505091929192908035906020019092919050505061115b565b005b6109c76004803603606081101561099d57600080fd5b81019080803590602001909291908035906020019092919080359060200190929190505050611218565b6040518080602001828103825283818151815260200191508051906020019080838360005b83811015610a075780820151818401526020810190506109ec565b50505050905090810190601f168015610a345780820380516001836020036101000a031916815260200191505b509250505060405180910390f35b610a6e60048036036020811015610a5857600080fd5b81019080803590602001909291905050506112fb565b005b606060016000868152602001908152602001600020600101600085815260200190815260200160002060030160008481526020019081526020016000206009018281548110610abb57fe5b906000526020600020018054600181600116156101000203166002900480601f016020809104026020016040519081016040528092919081815260200182805460018160011615610100020316600290048015610b595780601f10610b2e57610100808354040283529160200191610b59565b820191906000526020600020905b815481529060010190602001808311610b3c57829003601f168201915b50505050509050949350505050565b80600160008481526020019081526020016000206001016000838152602001908152602001600020600001819055506002819080600181540180825580915050906001820390600052602060002001600090919290919091505550816003600060028054905081526020019081526020016000206000018190555080600360006002805490508152602001908152602001600020600101819055507f1264b0b323667b4f55e01eb448c6fe7fa908f945390ea8b584839ad04c8553256001604051808215151515815260200191505060405180910390a15050565b6000806000838152602001908152602001600020600001549050919050565b600060016000858152602001908152602001600020600101600084815260200190815260200160002060030160008381526020019081526020016000206009018054905090509392505050565b6000806003600084815260200190815260200160002060000154600360008581526020019081526020016000206001015491509150915091565b600160008481526020019081526020016000206001016000838152602001908152602001600020600101819080600181540180825580915050906001820390600052602060002001600090919290919091509080519060200190610d4e929190611383565b5050505050565b600060016000838152602001908152602001600020600001549050919050565b600060016000848152602001908152602001600020600101600083815260200190815260200160002060010180549050905092915050565b88600160008d815260200190815260200160002060010160008c815260200190815260200160002060030160008381526020019081526020016000206000019080519060200190610dff929190611383565b5087600160008d815260200190815260200160002060010160008c815260200190815260200160002060030160008381526020019081526020016000206001019080519060200190610e52929190611383565b5086600160008d815260200190815260200160002060010160008c815260200190815260200160002060030160008381526020019081526020016000206002019080519060200190610ea5929190611383565b50600080878152602001908152602001600020600160008d815260200190815260200160002060010160008c81526020019081526020016000206003016000838152602001908152602001600020600301600082015481600001556001820160009054906101000a900460ff168160010160006101000a81548160ff021916908315150217905550905050604051806040016040528086815260200185815250600160008d815260200190815260200160002060010160008c81526020019081526020016000206003016000838152602001908152602001600020600501600082015181600001556020820151816001019080519060200190610fa9929190611403565b50905050604051806040016040528084815260200183815250600160008d815260200190815260200160002060010160008c81526020019081526020016000206003016000838152602001908152602001600020600701600082015181600001908051906020019061101c929190611403565b506020820151816001019080519060200190611039929190611403565b50905050600160008c815260200190815260200160002060010160008b8152602001908152602001600020600201600081548092919060010191905055507f1264b0b323667b4f55e01eb448c6fe7fa908f945390ea8b584839ad04c8553256001604051808215151515815260200191505060405180910390a15050505050505050505050565b80600080838152602001908152602001600020600001819055507f1264b0b323667b4f55e01eb448c6fe7fa908f945390ea8b584839ad04c8553256001604051808215151515815260200191505060405180910390a150565b6000600280549050905090565b600060016000848152602001908152602001600020600101600083815260200190815260200160002060020154905092915050565b60016000858152602001908152602001600020600101600084815260200190815260200160002060030160008281526020019081526020016000206009018290806001815401808255809150509060018203906000526020600020016000909192909190915090805190602001906111d4929190611383565b50507f1264b0b323667b4f55e01eb448c6fe7fa908f945390ea8b584839ad04c8553256001604051808215151515815260200191505060405180910390a150505050565b6060600160008581526020019081526020016000206001016000848152602001908152602001600020600101828154811061124f57fe5b906000526020600020018054600181600116156101000203166002900480601f0160208091040260200160405190810160405280929190818152602001828054600181600116156101000203166002900480156112ed5780601f106112c2576101008083540402835291602001916112ed565b820191906000526020600020905b8154815290600101906020018083116112d057829003601f168201915b505050505090509392505050565b806001600083815260200190815260200160002060000181905550600180600083815260200190815260200160002060020160006101000a81548160ff0219169083151502179055507f1264b0b323667b4f55e01eb448c6fe7fa908f945390ea8b584839ad04c8553256001604051808215151515815260200191505060405180910390a150565b828054600181600116156101000203166002900490600052602060002090601f016020900481019282601f106113c457805160ff19168380011785556113f2565b828001600101855582156113f2579182015b828111156113f15782518255916020019190600101906113d6565b5b5090506113ff9190611483565b5090565b828054600181600116156101000203166002900490600052602060002090601f016020900481019282601f1061144457805160ff1916838001178555611472565b82800160010185558215611472579182015b82811115611471578251825591602001919060010190611456565b5b50905061147f9190611483565b5090565b6114a591905b808211156114a1576000816000905550600101611489565b5090565b9056fea165627a7a723058206421ee9ce3fcf4491658e88e8e62acd80ed72a1ea97bfa11580e23eab07468e50029",
  "source": "//Daniel Rojas\n\npragma solidity ^0.5.1;\n\n\ncontract EEncuesta{\n\n    event CreacionExitosa(bool);\n    struct Encuestador{\n        uint cedula;\n        bool root;\n    }\n\n    struct PersonaE{\n        uint cedula;\n        string nombre;\n    }\n\n    struct Foto{\n        string url;\n        string hs;\n    }\n\n    struct CheckEncuesta{\n        string lugar;\n        string fecha;\n        string hora;\n        Encuestador encuestador;\n        PersonaE personaE;\n        Foto evidencia;\n        string[] respuestas;\n    }\n\n    struct EncuestaContratada{\n        uint idEncuestaContratada;\n        string[] preguntas;\n        uint indexC;\n        mapping(uint=>CheckEncuesta) listaResultados;\n    }\n\n    struct Empresa{\n        uint idEmpresa;\n        mapping(uint=>EncuestaContratada) listaContratos;\n        bool root;\n    }\n\n    struct Contrato{\n        uint idEmpresa;\n        uint idEncuestaContratada;\n    }\n\n    mapping(uint=> Encuestador) listaEncuestadores;\n    mapping(uint=> Empresa) listaEmpresas;\n    uint[]  idContratos;\n    mapping(uint=> Contrato) listaContratos; // uint index contrato -- contrato\n\n   //---------------------------------------------------------------------------------------------------------------------------------------Funciones Empresa \n    function setEmpresa(uint idEmpresa) public{\n        listaEmpresas[idEmpresa].idEmpresa = idEmpresa;\n        listaEmpresas[idEmpresa].root = true;\n        emit CreacionExitosa(true);\n    }\n\n    function getEmpresa(uint idEmpresa)public view returns(uint){\n        return listaEmpresas[idEmpresa].idEmpresa;\n    }\n\n    function setEncuestaContratada(uint idEmpresa, uint idEncuestaContratada)public{\n        listaEmpresas[idEmpresa].listaContratos[idEncuestaContratada].idEncuestaContratada = idEncuestaContratada;\n        idContratos.push(idEncuestaContratada);\n        listaContratos[idContratos.length].idEmpresa = idEmpresa;\n        listaContratos[idContratos.length].idEncuestaContratada = idEncuestaContratada;\n        emit CreacionExitosa(true);\n    }\n \n    function setPregunta(uint idEmpresa, uint idEncuestaContratada, string memory pregunta)public{\n          listaEmpresas[idEmpresa].listaContratos[idEncuestaContratada].preguntas.push(pregunta);\n    }\n\n    function getRespuesta(uint idEmpresa, uint idEncuestaContratada, uint indexC , uint indexR)public view returns(string memory){\n       return  listaEmpresas[idEmpresa].listaContratos[idEncuestaContratada].listaResultados[indexC].respuestas[indexR];\n\n    }\n\n\n    function sizeRespuesta(uint idEmpresa, uint idEncuestaContratada, uint indexC)public view returns(uint){\n       return  listaEmpresas[idEmpresa].listaContratos[idEncuestaContratada].listaResultados[indexC].respuestas.length;\n    }\n\n    //--------------------------------------------------------------------------------------------------------------------------------------- Funciones Encuestador\n\n    function setEncuestador(uint cedula) public{\n        listaEncuestadores[cedula].cedula = cedula;\n        emit CreacionExitosa(true);\n    }\n\n    function getContrato(uint indexContrato) public view returns(uint, uint){\n        return (listaContratos[indexContrato].idEmpresa,listaContratos[indexContrato].idEncuestaContratada) ;\n    }\n\n    function getEncuestador(uint cedula) public view returns(uint){\n        return listaEncuestadores[cedula].cedula;\n    }\n\n     function sizePreguntas(uint idEmpresa, uint idEncuestaContratada) public view returns(uint){\n        return  listaEmpresas[idEmpresa].listaContratos[idEncuestaContratada].preguntas.length;\n    }\n\n    function getPregunta(uint idEmpresa, uint idEncuestaContratada, uint index) public view returns(string memory pr){\n        return listaEmpresas[idEmpresa].listaContratos[idEncuestaContratada].preguntas[index];\n    }\n\n    function sizeListaContratos() public view returns(uint){\n        return idContratos.length;\n    }\n\n    function sizeCheck(uint idEmpresa, uint idEncuestaContratada)public view returns(uint){\n        return listaEmpresas[idEmpresa].listaContratos[idEncuestaContratada].indexC;\n    }\n\n    function setCheck(uint idEmpresa, uint idEncuestaContratada, string memory lugar, string memory fecha, string memory hora, uint idEncuestador, uint idPersona, string memory nombre, string memory url, string memory hs, uint indexC)public {\n\n     listaEmpresas[idEmpresa].listaContratos[idEncuestaContratada].listaResultados[indexC].lugar = lugar;\n     listaEmpresas[idEmpresa].listaContratos[idEncuestaContratada].listaResultados[indexC].fecha = fecha;\n     listaEmpresas[idEmpresa].listaContratos[idEncuestaContratada].listaResultados[indexC].hora = hora;\n     listaEmpresas[idEmpresa].listaContratos[idEncuestaContratada].listaResultados[indexC].encuestador = listaEncuestadores[idEncuestador];\n     listaEmpresas[idEmpresa].listaContratos[idEncuestaContratada].listaResultados[indexC].personaE = PersonaE({cedula:idPersona, nombre:nombre});\n     listaEmpresas[idEmpresa].listaContratos[idEncuestaContratada].listaResultados[indexC].evidencia = Foto({url:url,hs:hs});\n     listaEmpresas[idEmpresa].listaContratos[idEncuestaContratada].indexC++;\n     emit CreacionExitosa(true);\n    }\n    function setRespuesta(uint idEmpresa, uint idEncuestaContratada, string memory respuesta, uint indexC )public{\n         listaEmpresas[idEmpresa].listaContratos[idEncuestaContratada].listaResultados[indexC].respuestas.push(respuesta);\n         emit CreacionExitosa(true);\n    }\n}",
  "sourcePath": "/home/droro/Documents/BlockChain/Blockchain-Solidity/Taller22/contracts/EEncuesta.sol",
  "compiler": {
    "name": "solc",
    "version": "0.5.8+commit.23d335f2.Emscripten.clang"
  },
  "schemaVersion": "3.0.16",
  "updatedAt": "2019-11-30T06:02:21.693Z",
  "devdoc": {
    "methods": {}
  },
  "userdoc": {
    "methods": {}
  }
}