{
  "contractName": "EncuestaLite",
  "abi": [
    {
      "anonymous": false,
      "inputs": [
        {
          "indexed": false,
          "name": "",
          "type": "bool"
        }
      ],
      "name": "CreacionExitosa",
      "type": "event"
    },
    {
      "constant": false,
      "inputs": [
        {
          "name": "DirEmpresa",
          "type": "address"
        }
      ],
      "name": "setEmpresa",
      "outputs": [],
      "payable": false,
      "stateMutability": "nonpayable",
      "type": "function"
    },
    {
      "constant": false,
      "inputs": [
        {
          "name": "idEmpresa",
          "type": "address"
        },
        {
          "name": "idEncuestaContratada",
          "type": "uint256"
        }
      ],
      "name": "setEncuestaContratada",
      "outputs": [],
      "payable": false,
      "stateMutability": "nonpayable",
      "type": "function"
    },
    {
      "constant": false,
      "inputs": [
        {
          "name": "idEmpresa",
          "type": "address"
        },
        {
          "name": "idEncuestaContratada",
          "type": "uint256"
        },
        {
          "name": "lugar",
          "type": "string"
        },
        {
          "name": "fecha",
          "type": "string"
        },
        {
          "name": "hora",
          "type": "string"
        },
        {
          "name": "idEncuestador",
          "type": "uint256"
        },
        {
          "name": "idPersona",
          "type": "uint256"
        },
        {
          "name": "nombre",
          "type": "string"
        },
        {
          "name": "url",
          "type": "string"
        },
        {
          "name": "hs",
          "type": "string"
        }
      ],
      "name": "setCheck",
      "outputs": [],
      "payable": false,
      "stateMutability": "nonpayable",
      "type": "function"
    },
    {
      "constant": true,
      "inputs": [
        {
          "name": "idEmpresa",
          "type": "address"
        },
        {
          "name": "idEncuestaContratada",
          "type": "uint256"
        }
      ],
      "name": "sizeCheck",
      "outputs": [
        {
          "name": "",
          "type": "uint256"
        }
      ],
      "payable": false,
      "stateMutability": "view",
      "type": "function"
    },
    {
      "constant": true,
      "inputs": [
        {
          "name": "idEmpresa",
          "type": "address"
        },
        {
          "name": "idEncuestaContratada",
          "type": "uint256"
        },
        {
          "name": "indexC",
          "type": "uint256"
        }
      ],
      "name": "getCheck",
      "outputs": [
        {
          "name": "",
          "type": "uint256"
        },
        {
          "name": "",
          "type": "string"
        },
        {
          "name": "",
          "type": "string"
        },
        {
          "name": "",
          "type": "string"
        },
        {
          "name": "",
          "type": "uint256"
        },
        {
          "name": "",
          "type": "uint256"
        },
        {
          "name": "",
          "type": "string"
        },
        {
          "name": "",
          "type": "string"
        },
        {
          "name": "",
          "type": "string"
        }
      ],
      "payable": false,
      "stateMutability": "view",
      "type": "function"
    }
  ],
  "bytecode": "0x608060405234801561001057600080fd5b50611614806100206000396000f3fe608060405234801561001057600080fd5b50600436106100575760003560e01c806305852be61461005c5780630c0b2d93146100be5780634a6b247a146101025780639c18234b146104ef578063ae622792146107f1575b600080fd5b6100a86004803603604081101561007257600080fd5b81019080803573ffffffffffffffffffffffffffffffffffffffff1690602001909291908035906020019092919050505061083f565b6040518082815260200191505060405180910390f35b610100600480360360208110156100d457600080fd5b81019080803573ffffffffffffffffffffffffffffffffffffffff16906020019092919050505061089f565b005b6104ed600480360361014081101561011957600080fd5b81019080803573ffffffffffffffffffffffffffffffffffffffff169060200190929190803590602001909291908035906020019064010000000081111561016057600080fd5b82018360208201111561017257600080fd5b8035906020019184600183028401116401000000008311171561019457600080fd5b91908080601f016020809104026020016040519081016040528093929190818152602001838380828437600081840152601f19601f820116905080830192505050505050509192919290803590602001906401000000008111156101f757600080fd5b82018360208201111561020957600080fd5b8035906020019184600183028401116401000000008311171561022b57600080fd5b91908080601f016020809104026020016040519081016040528093929190818152602001838380828437600081840152601f19601f8201169050808301925050505050505091929192908035906020019064010000000081111561028e57600080fd5b8201836020820111156102a057600080fd5b803590602001918460018302840111640100000000831117156102c257600080fd5b91908080601f016020809104026020016040519081016040528093929190818152602001838380828437600081840152601f19601f82011690508083019250505050505050919291929080359060200190929190803590602001909291908035906020019064010000000081111561033957600080fd5b82018360208201111561034b57600080fd5b8035906020019184600183028401116401000000008311171561036d57600080fd5b91908080601f016020809104026020016040519081016040528093929190818152602001838380828437600081840152601f19601f820116905080830192505050505050509192919290803590602001906401000000008111156103d057600080fd5b8201836020820111156103e257600080fd5b8035906020019184600183028401116401000000008311171561040457600080fd5b91908080601f016020809104026020016040519081016040528093929190818152602001838380828437600081840152601f19601f8201169050808301925050505050505091929192908035906020019064010000000081111561046757600080fd5b82018360208201111561047957600080fd5b8035906020019184600183028401116401000000008311171561049b57600080fd5b91908080601f016020809104026020016040519081016040528093929190818152602001838380828437600081840152601f19601f82011690508083019250505050505050919291929050505061095e565b005b6105456004803603606081101561050557600080fd5b81019080803573ffffffffffffffffffffffffffffffffffffffff1690602001909291908035906020019092919080359060200190929190505050610e0e565b604051808a815260200180602001806020018060200189815260200188815260200180602001806020018060200187810387528f818151815260200191508051906020019080838360005b838110156105ab578082015181840152602081019050610590565b50505050905090810190601f1680156105d85780820380516001836020036101000a031916815260200191505b5087810386528e818151815260200191508051906020019080838360005b838110156106115780820151818401526020810190506105f6565b50505050905090810190601f16801561063e5780820380516001836020036101000a031916815260200191505b5087810385528d818151815260200191508051906020019080838360005b8381101561067757808201518184015260208101905061065c565b50505050905090810190601f1680156106a45780820380516001836020036101000a031916815260200191505b5087810384528a818151815260200191508051906020019080838360005b838110156106dd5780820151818401526020810190506106c2565b50505050905090810190601f16801561070a5780820380516001836020036101000a031916815260200191505b50878103835289818151815260200191508051906020019080838360005b83811015610743578082015181840152602081019050610728565b50505050905090810190601f1680156107705780820380516001836020036101000a031916815260200191505b50878103825288818151815260200191508051906020019080838360005b838110156107a957808201518184015260208101905061078e565b50505050905090810190601f1680156107d65780820380516001836020036101000a031916815260200191505b509f5050505050505050505050505050505060405180910390f35b61083d6004803603604081101561080757600080fd5b81019080803573ffffffffffffffffffffffffffffffffffffffff16906020019092919080359060200190929190505050611337565b005b60008060008473ffffffffffffffffffffffffffffffffffffffff1673ffffffffffffffffffffffffffffffffffffffff168152602001908152602001600020600201600083815260200190815260200160002060020154905092915050565b806000808373ffffffffffffffffffffffffffffffffffffffff1673ffffffffffffffffffffffffffffffffffffffff16815260200190815260200160002060010160006101000a81548173ffffffffffffffffffffffffffffffffffffffff021916908373ffffffffffffffffffffffffffffffffffffffff1602179055507f1264b0b323667b4f55e01eb448c6fe7fa908f945390ea8b584839ad04c8553256001604051808215151515815260200191505060405180910390a150565b600080905060008060008d73ffffffffffffffffffffffffffffffffffffffff1673ffffffffffffffffffffffffffffffffffffffff16815260200190815260200160002060020160008c81526020019081526020016000206002015411156109ce576109cb8b8b61083f565b90505b886000808d73ffffffffffffffffffffffffffffffffffffffff1673ffffffffffffffffffffffffffffffffffffffff16815260200190815260200160002060020160008c81526020019081526020016000206001018281548110610a2f57fe5b90600052602060002090600902016000019080519060200190610a5392919061142c565b50876000808d73ffffffffffffffffffffffffffffffffffffffff1673ffffffffffffffffffffffffffffffffffffffff16815260200190815260200160002060020160008c81526020019081526020016000206001018281548110610ab557fe5b90600052602060002090600902016001019080519060200190610ad992919061142c565b50866000808d73ffffffffffffffffffffffffffffffffffffffff1673ffffffffffffffffffffffffffffffffffffffff16815260200190815260200160002060020160008c81526020019081526020016000206001018281548110610b3b57fe5b90600052602060002090600902016002019080519060200190610b5f92919061142c565b506040518060400160405280868152602001858152506000808d73ffffffffffffffffffffffffffffffffffffffff1673ffffffffffffffffffffffffffffffffffffffff16815260200190815260200160002060020160008c81526020019081526020016000206001018281548110610bd557fe5b9060005260206000209060090201600401600082015181600001556020820151816001019080519060200190610c0c9291906114ac565b509050506040518060400160405280848152602001838152506000808d73ffffffffffffffffffffffffffffffffffffffff1673ffffffffffffffffffffffffffffffffffffffff16815260200190815260200160002060020160008c81526020019081526020016000206001018281548110610c8557fe5b90600052602060002090600902016006016000820151816000019080519060200190610cb29291906114ac565b506020820151816001019080519060200190610ccf9291906114ac565b509050506040518060200160405280878152506000808d73ffffffffffffffffffffffffffffffffffffffff1673ffffffffffffffffffffffffffffffffffffffff16815260200190815260200160002060020160008c81526020019081526020016000206001018281548110610d4257fe5b9060005260206000209060090201600301600082015181600001559050506000808c73ffffffffffffffffffffffffffffffffffffffff1673ffffffffffffffffffffffffffffffffffffffff16815260200190815260200160002060020160008b8152602001908152602001600020600201600081548092919060010191905055507f1264b0b323667b4f55e01eb448c6fe7fa908f945390ea8b584839ad04c8553256001604051808215151515815260200191505060405180910390a15050505050505050505050565b600060608060606000806060806060610e2561152c565b6000808e73ffffffffffffffffffffffffffffffffffffffff1673ffffffffffffffffffffffffffffffffffffffff16815260200190815260200160002060020160008d81526020019081526020016000206001018b81548110610e8557fe5b90600052602060002090600902016040518060e0016040529081600082018054600181600116156101000203166002900480601f016020809104026020016040519081016040528092919081815260200182805460018160011615610100020316600290048015610f375780601f10610f0c57610100808354040283529160200191610f37565b820191906000526020600020905b815481529060010190602001808311610f1a57829003601f168201915b50505050508152602001600182018054600181600116156101000203166002900480601f016020809104026020016040519081016040528092919081815260200182805460018160011615610100020316600290048015610fd95780601f10610fae57610100808354040283529160200191610fd9565b820191906000526020600020905b815481529060010190602001808311610fbc57829003601f168201915b50505050508152602001600282018054600181600116156101000203166002900480601f01602080910402602001604051908101604052809291908181526020018280546001816001161561010002031660029004801561107b5780601f106110505761010080835404028352916020019161107b565b820191906000526020600020905b81548152906001019060200180831161105e57829003601f168201915b505050505081526020016003820160405180602001604052908160008201548152505081526020016004820160405180604001604052908160008201548152602001600182018054600181600116156101000203166002900480601f0160208091040260200160405190810160405280929190818152602001828054600181600116156101000203166002900480156111555780601f1061112a57610100808354040283529160200191611155565b820191906000526020600020905b81548152906001019060200180831161113857829003601f168201915b505050505081525050815260200160068201604051806040016040529081600082018054600181600116156101000203166002900480601f01602080910402602001604051908101604052809291908181526020018280546001816001161561010002031660029004801561120b5780601f106111e05761010080835404028352916020019161120b565b820191906000526020600020905b8154815290600101906020018083116111ee57829003601f168201915b50505050508152602001600182018054600181600116156101000203166002900480601f0160208091040260200160405190810160405280929190818152602001828054600181600116156101000203166002900480156112ad5780601f10611282576101008083540402835291602001916112ad565b820191906000526020600020905b81548152906001019060200180831161129057829003601f168201915b505050505081525050815260200160088201548152505090508a8160000151826020015183604001518460600151600001518560800151600001518660800151602001518760a00151600001518860a00151602001518797508696508595508292508191508090509950995099509950995099509950995099505093979b92969a50939750939750565b806000808473ffffffffffffffffffffffffffffffffffffffff1673ffffffffffffffffffffffffffffffffffffffff16815260200190815260200160002060020160008381526020019081526020016000206000018190555060008060008473ffffffffffffffffffffffffffffffffffffffff1673ffffffffffffffffffffffffffffffffffffffff1681526020019081526020016000206002016000838152602001908152602001600020600201819055507f1264b0b323667b4f55e01eb448c6fe7fa908f945390ea8b584839ad04c8553256001604051808215151515815260200191505060405180910390a15050565b828054600181600116156101000203166002900490600052602060002090601f016020900481019282601f1061146d57805160ff191683800117855561149b565b8280016001018555821561149b579182015b8281111561149a57825182559160200191906001019061147f565b5b5090506114a8919061157c565b5090565b828054600181600116156101000203166002900490600052602060002090601f016020900481019282601f106114ed57805160ff191683800117855561151b565b8280016001018555821561151b579182015b8281111561151a5782518255916020019190600101906114ff565b5b509050611528919061157c565b5090565b6040518061012001604052806060815260200160608152602001606081526020016115556115a1565b81526020016115626115b4565b815260200161156f6115ce565b8152602001600081525090565b61159e91905b8082111561159a576000816000905550600101611582565b5090565b90565b6040518060200160405280600081525090565b604051806040016040528060008152602001606081525090565b60405180604001604052806060815260200160608152509056fea165627a7a7230582033b2b56aeb70bf535716568d244b64e659da54d715e17f8f0f4d4a8651f95f900029",
  "source": "pragma solidity ^0.5.1;\n\n\ncontract EncuestaLite{\n\n event CreacionExitosa(bool);\n\n struct PersonaE{\n        uint cedula;\n        string nombre;\n    }\n\n struct Foto{\n        string url;\n        string hs;\n    }\n struct Empresa{\n        uint idEmpresa;\n        address dir;\n        mapping(uint=>EncuestaContratada) listaContratos;\n }\n struct EncuestaContratada{\n        uint idEncuesta;\n        CheckEncuesta[] listaComprobantes;\n        uint indexC;\n }\n struct CheckEncuesta{\n        string lugar;\n        string fecha;\n        string hora;\n        Encuestador encuestador;\n        PersonaE personaE;\n        Foto evidencia;\n        uint indexC;\n    }\nstruct Encuestador{\n        uint cedula;\n    }\n\n mapping(address=> Empresa) listaEmpresas;\n\n    function setEmpresa(address DirEmpresa) public{\n        listaEmpresas[DirEmpresa].dir = DirEmpresa;\n        emit CreacionExitosa(true);\n    }\n\n     function setEncuestaContratada(address idEmpresa, uint idEncuestaContratada)public{\n        listaEmpresas[idEmpresa].listaContratos[idEncuestaContratada].idEncuesta= idEncuestaContratada;\n        listaEmpresas[idEmpresa].listaContratos[idEncuestaContratada].indexC = 0;\n        emit CreacionExitosa(true);\n    }\n    function setCheck(address idEmpresa, uint idEncuestaContratada, string memory lugar, string memory fecha, string memory hora, uint idEncuestador, uint idPersona, string memory nombre, string memory url, string memory hs)public {\n     uint indexC = 0;\n     if(listaEmpresas[idEmpresa].listaContratos[idEncuestaContratada].indexC >0){\n         indexC = sizeCheck(idEmpresa,idEncuestaContratada);\n     }\n     listaEmpresas[idEmpresa].listaContratos[idEncuestaContratada].listaComprobantes[indexC].lugar = lugar;\n     listaEmpresas[idEmpresa].listaContratos[idEncuestaContratada].listaComprobantes[indexC].fecha = fecha;\n     listaEmpresas[idEmpresa].listaContratos[idEncuestaContratada].listaComprobantes[indexC].hora = hora;\n     listaEmpresas[idEmpresa].listaContratos[idEncuestaContratada].listaComprobantes[indexC].personaE = PersonaE({cedula:idPersona, nombre:nombre});\n     listaEmpresas[idEmpresa].listaContratos[idEncuestaContratada].listaComprobantes[indexC].evidencia = Foto({url:url,hs:hs});\n     listaEmpresas[idEmpresa].listaContratos[idEncuestaContratada].listaComprobantes[indexC].encuestador = Encuestador({cedula:idEncuestador});\n     listaEmpresas[idEmpresa].listaContratos[idEncuestaContratada].indexC++;\n     emit CreacionExitosa(true);\n    }\n\n    function sizeCheck(address idEmpresa, uint idEncuestaContratada)public view returns(uint){\n        return listaEmpresas[idEmpresa].listaContratos[idEncuestaContratada].indexC;\n    }\n\n    function getCheck(address idEmpresa, uint idEncuestaContratada,uint indexC)public view  returns(uint, string memory,string memory,string memory,uint,uint,string memory, string memory, string memory){\n     CheckEncuesta memory tmp = listaEmpresas[idEmpresa].listaContratos[idEncuestaContratada].listaComprobantes[indexC];\n     return (indexC,tmp.lugar,tmp.fecha,tmp.hora,tmp.encuestador.cedula,tmp.personaE.cedula,tmp.personaE.nombre,tmp.evidencia.url,tmp.evidencia.hs);\n    }\n\n}",
  "sourcePath": "/home/droro/Documents/Blockchain/Blockchain-Solidity/Taller22/contracts/EncuestaLite.sol",
  "compiler": {
    "name": "solc",
    "version": "0.5.8+commit.23d335f2.Emscripten.clang"
  },
  "schemaVersion": "3.0.16",
  "updatedAt": "2019-11-29T19:27:45.388Z",
  "devdoc": {
    "methods": {}
  },
  "userdoc": {
    "methods": {}
  }
}