{
  "contractName": "ReunionFotos",
  "abi": [
    {
      "constant": false,
      "inputs": [
        {
          "name": "id",
          "type": "uint256"
        },
        {
          "name": "tema",
          "type": "string"
        },
        {
          "name": "fecha",
          "type": "string"
        }
      ],
      "name": "addReunion",
      "outputs": [],
      "payable": false,
      "stateMutability": "nonpayable",
      "type": "function"
    },
    {
      "constant": false,
      "inputs": [
        {
          "name": "idRe",
          "type": "uint256"
        },
        {
          "name": "_url",
          "type": "string"
        },
        {
          "name": "_hs",
          "type": "string"
        }
      ],
      "name": "addFoto",
      "outputs": [],
      "payable": false,
      "stateMutability": "nonpayable",
      "type": "function"
    },
    {
      "constant": true,
      "inputs": [
        {
          "name": "idRe",
          "type": "uint256"
        }
      ],
      "name": "getDataReunion",
      "outputs": [
        {
          "name": "",
          "type": "uint256"
        },
        {
          "name": "",
          "type": "string"
        },
        {
          "name": "",
          "type": "string"
        }
      ],
      "payable": false,
      "stateMutability": "view",
      "type": "function"
    },
    {
      "constant": true,
      "inputs": [
        {
          "name": "idRe",
          "type": "uint256"
        }
      ],
      "name": "getSizeFotosReunion",
      "outputs": [
        {
          "name": "",
          "type": "uint256"
        }
      ],
      "payable": false,
      "stateMutability": "view",
      "type": "function"
    },
    {
      "constant": true,
      "inputs": [
        {
          "name": "indexFoto",
          "type": "uint256"
        },
        {
          "name": "idRe",
          "type": "uint256"
        }
      ],
      "name": "getDataFoto",
      "outputs": [
        {
          "name": "",
          "type": "string"
        },
        {
          "name": "",
          "type": "string"
        }
      ],
      "payable": false,
      "stateMutability": "view",
      "type": "function"
    },
    {
      "constant": true,
      "inputs": [
        {
          "name": "idRe",
          "type": "uint256"
        },
        {
          "name": "idFoto",
          "type": "uint256"
        },
        {
          "name": "HAS",
          "type": "string"
        }
      ],
      "name": "verificarFoto",
      "outputs": [
        {
          "name": "",
          "type": "bool"
        }
      ],
      "payable": false,
      "stateMutability": "view",
      "type": "function"
    }
  ],
  "bytecode": "0x608060405234801561001057600080fd5b50610e3b806100206000396000f3fe608060405234801561001057600080fd5b50600436106100625760003560e01c8063676e3347146100675780636d62eb25146101c357806379ba42991461031f578063d962c12214610361578063e56481e21461047e578063fb94cd8a14610598575b600080fd5b6101c16004803603606081101561007d57600080fd5b8101908080359060200190929190803590602001906401000000008111156100a457600080fd5b8201836020820111156100b657600080fd5b803590602001918460018302840111640100000000831117156100d857600080fd5b91908080601f016020809104026020016040519081016040528093929190818152602001838380828437600081840152601f19601f8201169050808301925050505050505091929192908035906020019064010000000081111561013b57600080fd5b82018360208201111561014d57600080fd5b8035906020019184600183028401116401000000008311171561016f57600080fd5b91908080601f016020809104026020016040519081016040528093929190818152602001838380828437600081840152601f19601f82011690508083019250505050505050919291929050505061067f565b005b61031d600480360360608110156101d957600080fd5b81019080803590602001909291908035906020019064010000000081111561020057600080fd5b82018360208201111561021257600080fd5b8035906020019184600183028401116401000000008311171561023457600080fd5b91908080601f016020809104026020016040519081016040528093929190818152602001838380828437600081840152601f19601f8201169050808301925050505050505091929192908035906020019064010000000081111561029757600080fd5b8201836020820111156102a957600080fd5b803590602001918460018302840111640100000000831117156102cb57600080fd5b91908080601f016020809104026020016040519081016040528093929190818152602001838380828437600081840152601f19601f820116905080830192505050505050509192919290505050610716565b005b61034b6004803603602081101561033557600080fd5b8101908080359060200190929190505050610789565b6040518082815260200191505060405180910390f35b6103976004803603604081101561037757600080fd5b8101908080359060200190929190803590602001909291905050506107ab565b604051808060200180602001838103835285818151815260200191508051906020019080838360005b838110156103db5780820151818401526020810190506103c0565b50505050905090810190601f1680156104085780820380516001836020036101000a031916815260200191505b50838103825284818151815260200191508051906020019080838360005b83811015610441578082015181840152602081019050610426565b50505050905090810190601f16801561046e5780820380516001836020036101000a031916815260200191505b5094505050505060405180910390f35b6104aa6004803603602081101561049457600080fd5b810190808035906020019092919050505061098c565b604051808481526020018060200180602001838103835285818151815260200191508051906020019080838360005b838110156104f45780820151818401526020810190506104d9565b50505050905090810190601f1680156105215780820380516001836020036101000a031916815260200191505b50838103825284818151815260200191508051906020019080838360005b8381101561055a57808201518184015260208101905061053f565b50505050905090810190601f1680156105875780820380516001836020036101000a031916815260200191505b509550505050505060405180910390f35b610665600480360360608110156105ae57600080fd5b810190808035906020019092919080359060200190929190803590602001906401000000008111156105df57600080fd5b8201836020820111156105f157600080fd5b8035906020019184600183028401116401000000008311171561061357600080fd5b91908080601f016020809104026020016040519081016040528093929190818152602001838380828437600081840152601f19601f820116905080830192505050505050509192919290505050610b16565b604051808215151515815260200191505060405180910390f35b6000808481526020019081526020016000206003016040518060400160405280848152602001838152509080600181540180825580915050906001820390600052602060002090600202016000909192909190915060008201518160000190805190602001906106f0929190610cea565b50602082015181600101908051906020019061070d929190610cea565b50505050505050565b8260008085815260200190815260200160002060000181905550816000808581526020019081526020016000206001019080519060200190610759929190610d6a565b50806000808581526020019081526020016000206002019080519060200190610783929190610d6a565b50505050565b6000806000838152602001908152602001600020600301805490509050919050565b60608060008411156109605760008084815260200190815260200160002060030160018503815481106107da57fe5b9060005260206000209060020201600001600080858152602001908152602001600020600301600186038154811061080e57fe5b9060005260206000209060020201600101818054600181600116156101000203166002900480601f0160208091040260200160405190810160405280929190818152602001828054600181600116156101000203166002900480156108b45780601f10610889576101008083540402835291602001916108b4565b820191906000526020600020905b81548152906001019060200180831161089757829003601f168201915b50505050509150808054600181600116156101000203166002900480601f0160208091040260200160405190810160405280929190818152602001828054600181600116156101000203166002900480156109505780601f1061092557610100808354040283529160200191610950565b820191906000526020600020905b81548152906001019060200180831161093357829003601f168201915b5050505050905091509150610985565b6040518060200160405280600081525060405180602001604052806000815250915091505b9250929050565b600060608060008085815260200190815260200160002060000154600080868152602001908152602001600020600101600080878152602001908152602001600020600201818054600181600116156101000203166002900480601f016020809104026020016040519081016040528092919081815260200182805460018160011615610100020316600290048015610a665780601f10610a3b57610100808354040283529160200191610a66565b820191906000526020600020905b815481529060010190602001808311610a4957829003601f168201915b50505050509150808054600181600116156101000203166002900480601f016020809104026020016040519081016040528092919081815260200182805460018160011615610100020316600290048015610b025780601f10610ad757610100808354040283529160200191610b02565b820191906000526020600020905b815481529060010190602001808311610ae557829003601f168201915b505050505090509250925092509193909250565b600060606000808681526020019081526020016000206003016001850381548110610b3d57fe5b90600052602060002090600202016001018054600181600116156101000203166002900480601f016020809104026020016040519081016040528092919081815260200182805460018160011615610100020316600290048015610be25780601f10610bb757610100808354040283529160200191610be2565b820191906000526020600020905b815481529060010190602001808311610bc557829003601f168201915b50505050509050826040516020018082805190602001908083835b60208310610c205780518252602082019150602081019050602083039250610bfd565b6001836020036101000a03801982511681845116808217855250505050505090500191505060405160208183030381529060405280519060200120816040516020018082805190602001908083835b60208310610c925780518252602082019150602081019050602083039250610c6f565b6001836020036101000a038019825116818451168082178552505050505050905001915050604051602081830303815290604052805190602001201415610cdd576001915050610ce3565b60009150505b9392505050565b828054600181600116156101000203166002900490600052602060002090601f016020900481019282601f10610d2b57805160ff1916838001178555610d59565b82800160010185558215610d59579182015b82811115610d58578251825591602001919060010190610d3d565b5b509050610d669190610dea565b5090565b828054600181600116156101000203166002900490600052602060002090601f016020900481019282601f10610dab57805160ff1916838001178555610dd9565b82800160010185558215610dd9579182015b82811115610dd8578251825591602001919060010190610dbd565b5b509050610de69190610dea565b5090565b610e0c91905b80821115610e08576000816000905550600101610df0565b5090565b9056fea165627a7a723058205f830dac2728d15a4b5be7a5624f39bcee8e38c18bc166902dcd7833c18935a10029",
  "source": "pragma solidity ^0.5.0;\n\ncontract ReunionFotos{\n\n    struct Reunion{\n        uint idReunion;\n        string tema;\n        string fecha;\n        Foto[] listFotos;\n    }\n    \n    struct Foto{\n        string url;\n        string hs;\n    }\n      \n   mapping(uint => Reunion) reuniones;\n    \n   function addReunion(uint id, string memory tema, string memory fecha) public{\n        reuniones[id].idReunion = id;\n        reuniones[id].tema = tema;\n        reuniones[id].fecha = fecha;\n    }\n                    \n    \n    function addFoto(uint idRe,string memory _url , string memory _hs) public{\n       reuniones[idRe].listFotos.push(Foto({url: _url,hs:_hs}));\n    }\n    \n    function getDataReunion(uint idRe)public view returns(uint,string memory, string memory){\n        return (reuniones[idRe].idReunion, reuniones[idRe].tema, reuniones[idRe].fecha);\n    }\n    \n    function getSizeFotosReunion(uint idRe)public view returns(uint){\n        return (reuniones[idRe].listFotos.length);\n    }\n    \n    /*\n    indexFoto reci el numero de foto segun la pocision que requiere consulta\n    ejemplo \n    indexFoto = 1 => devuelve la foto de la pocision 0 en el array de Fotos\n    */\n    function getDataFoto(uint indexFoto, uint idRe) public view returns(string memory, string memory){\n        if(indexFoto>0){\n        return(reuniones[idRe].listFotos[indexFoto-1].url, reuniones[idRe].listFotos[indexFoto-1].hs);\n        }else{\n            return(\"\",\"\");\n        }\n    }\n    \n    \n    \n    function verificarFoto(uint idRe, uint idFoto, string memory HAS) public view returns (bool){\n    \n    string memory lel = reuniones[idRe].listFotos[idFoto-1].hs ;\n        if(keccak256(abi.encodePacked(lel)) == keccak256(abi.encodePacked(HAS))){\n            return true;\n        }else{\n            return false;\n        }\n    }\n    \n    \n    \n    \n}\n",
  "sourcePath": "C:/Users/danie/Documents/HolaMundo/contracts/Taller_D.sol",
  "compiler": {
    "name": "solc",
    "version": "0.5.8+commit.23d335f2.Emscripten.clang"
  },
  "schemaVersion": "3.0.12",
  "updatedAt": "2019-08-16T13:16:04.236Z",
  "devdoc": {
    "methods": {}
  },
  "userdoc": {
    "methods": {}
  }
}