{
  "contractName": "BloodChain",
  "abi": [
    {
      "inputs": [],
      "payable": false,
      "stateMutability": "nonpayable",
      "type": "constructor"
    },
    {
      "anonymous": false,
      "inputs": [],
      "name": "BancoEncontradoExitosamente",
      "type": "event"
    },
    {
      "anonymous": false,
      "inputs": [
        {
          "indexed": false,
          "name": "cedula",
          "type": "uint256"
        },
        {
          "indexed": false,
          "name": "edad",
          "type": "uint256"
        },
        {
          "indexed": false,
          "name": "numeroTelefono",
          "type": "uint256"
        },
        {
          "indexed": false,
          "name": "nombre",
          "type": "string"
        },
        {
          "indexed": false,
          "name": "apellido",
          "type": "string"
        },
        {
          "indexed": false,
          "name": "Eps",
          "type": "string"
        },
        {
          "indexed": false,
          "name": "correoElectronico",
          "type": "string"
        },
        {
          "indexed": false,
          "name": "genero",
          "type": "string"
        }
      ],
      "name": "DonanteEncontradoExitosamente",
      "type": "event"
    },
    {
      "anonymous": false,
      "inputs": [],
      "name": "DatosNoEncontados",
      "type": "event"
    },
    {
      "anonymous": false,
      "inputs": [
        {
          "indexed": false,
          "name": "cedula",
          "type": "uint256"
        }
      ],
      "name": "DonanteCreadoExitosamente",
      "type": "event"
    },
    {
      "anonymous": false,
      "inputs": [],
      "name": "ErrorDeCreacion",
      "type": "event"
    },
    {
      "anonymous": false,
      "inputs": [
        {
          "indexed": false,
          "name": "",
          "type": "bool"
        }
      ],
      "name": "DatosCargadosExitosamente",
      "type": "event"
    },
    {
      "anonymous": false,
      "inputs": [
        {
          "indexed": false,
          "name": "idEmpleado",
          "type": "uint256"
        }
      ],
      "name": "EmpleadoCreadoExitosamente",
      "type": "event"
    },
    {
      "anonymous": false,
      "inputs": [
        {
          "indexed": false,
          "name": "idLote",
          "type": "uint256"
        }
      ],
      "name": "LoteCreadoExitosamente",
      "type": "event"
    },
    {
      "anonymous": false,
      "inputs": [
        {
          "indexed": false,
          "name": "msgOrder",
          "type": "uint256"
        },
        {
          "indexed": false,
          "name": "from_tru",
          "type": "uint256"
        },
        {
          "indexed": false,
          "name": "to_tru",
          "type": "uint256"
        }
      ],
      "name": "TraceExists",
      "type": "event"
    },
    {
      "anonymous": false,
      "inputs": [
        {
          "indexed": false,
          "name": "msgOrder",
          "type": "uint256"
        },
        {
          "indexed": false,
          "name": "from_tru",
          "type": "uint256"
        },
        {
          "indexed": false,
          "name": "to_tru",
          "type": "uint256"
        }
      ],
      "name": "TraceDoesNotExist",
      "type": "event"
    },
    {
      "anonymous": false,
      "inputs": [
        {
          "indexed": false,
          "name": "msgOrder",
          "type": "uint256"
        },
        {
          "indexed": false,
          "name": "activityId",
          "type": "uint256"
        },
        {
          "indexed": false,
          "name": "direccionLugar",
          "type": "address"
        },
        {
          "indexed": false,
          "name": "consumedTruId",
          "type": "uint256"
        },
        {
          "indexed": false,
          "name": "producedTruId",
          "type": "uint256"
        }
      ],
      "name": "ActivityCreated",
      "type": "event"
    },
    {
      "anonymous": false,
      "inputs": [
        {
          "indexed": false,
          "name": "msgOrder",
          "type": "uint256"
        },
        {
          "indexed": false,
          "name": "truId",
          "type": "uint256"
        }
      ],
      "name": "TruCreated",
      "type": "event"
    },
    {
      "anonymous": false,
      "inputs": [
        {
          "indexed": false,
          "name": "msgOrder",
          "type": "uint256"
        },
        {
          "indexed": false,
          "name": "truId",
          "type": "uint256"
        },
        {
          "indexed": false,
          "name": "activityId",
          "type": "uint256"
        },
        {
          "indexed": false,
          "name": "direccionLugar",
          "type": "address"
        }
      ],
      "name": "TruConsumed",
      "type": "event"
    },
    {
      "anonymous": false,
      "inputs": [
        {
          "indexed": false,
          "name": "msgOrder",
          "type": "uint256"
        },
        {
          "indexed": false,
          "name": "currTru",
          "type": "uint256"
        },
        {
          "indexed": false,
          "name": "currActivity",
          "type": "uint256"
        },
        {
          "indexed": false,
          "name": "direccionLugar",
          "type": "address"
        }
      ],
      "name": "TruProducedBy",
      "type": "event"
    },
    {
      "anonymous": false,
      "inputs": [
        {
          "indexed": false,
          "name": "msgOrder",
          "type": "uint256"
        },
        {
          "indexed": false,
          "name": "currActivity",
          "type": "uint256"
        },
        {
          "indexed": false,
          "name": "direccionLugar",
          "type": "address"
        },
        {
          "indexed": false,
          "name": "currTru",
          "type": "uint256"
        }
      ],
      "name": "ActivityConsumes",
      "type": "event"
    },
    {
      "constant": true,
      "inputs": [
        {
          "name": "idLote",
          "type": "uint256"
        },
        {
          "name": "idDonacion",
          "type": "uint256"
        }
      ],
      "name": "getDonacionLote",
      "outputs": [
        {
          "name": "id",
          "type": "uint256"
        },
        {
          "name": "cantidadExtraida",
          "type": "uint256"
        },
        {
          "name": "numeroVenoponuciones",
          "type": "uint256"
        },
        {
          "name": "numeroMinExtraccion",
          "type": "uint256"
        },
        {
          "name": "fechaDonacion",
          "type": "string"
        },
        {
          "name": "idBolsa",
          "type": "uint8"
        },
        {
          "name": "idEmpleado",
          "type": "uint256"
        }
      ],
      "payable": false,
      "stateMutability": "view",
      "type": "function"
    },
    {
      "constant": false,
      "inputs": [
        {
          "name": "_BancosSangre",
          "type": "address"
        },
        {
          "name": "idDonacion",
          "type": "uint256"
        },
        {
          "name": "_idLote",
          "type": "uint256"
        },
        {
          "name": "_cantidadExtraida",
          "type": "uint256"
        },
        {
          "name": "numeroVenoponuciones",
          "type": "uint256"
        },
        {
          "name": "numeroMinExtraccion",
          "type": "uint256"
        },
        {
          "name": "fechaDonacion",
          "type": "string"
        },
        {
          "name": "tipo",
          "type": "uint8"
        },
        {
          "name": "idMedico",
          "type": "uint256"
        },
        {
          "name": "idUser",
          "type": "uint256"
        }
      ],
      "name": "setDonacion",
      "outputs": [],
      "payable": false,
      "stateMutability": "nonpayable",
      "type": "function"
    },
    {
      "constant": false,
      "inputs": [
        {
          "name": "cedula",
          "type": "uint256"
        },
        {
          "name": "edad",
          "type": "uint256"
        },
        {
          "name": "numeroTelefono",
          "type": "uint256"
        },
        {
          "name": "nombre",
          "type": "string"
        },
        {
          "name": "apellido",
          "type": "string"
        },
        {
          "name": "Eps",
          "type": "string"
        },
        {
          "name": "correoElectronico",
          "type": "string"
        },
        {
          "name": "genero",
          "type": "string"
        },
        {
          "name": "valido",
          "type": "bool"
        }
      ],
      "name": "setDonante",
      "outputs": [],
      "payable": false,
      "stateMutability": "nonpayable",
      "type": "function"
    },
    {
      "constant": false,
      "inputs": [
        {
          "name": "cedula",
          "type": "uint256"
        },
        {
          "name": "peso",
          "type": "uint256"
        },
        {
          "name": "altura",
          "type": "uint256"
        },
        {
          "name": "TensionArterial",
          "type": "uint256"
        }
      ],
      "name": "setSaludDonante",
      "outputs": [],
      "payable": false,
      "stateMutability": "nonpayable",
      "type": "function"
    },
    {
      "constant": false,
      "inputs": [
        {
          "name": "_BancosSangre",
          "type": "address"
        },
        {
          "name": "idEmpleado",
          "type": "uint256"
        },
        {
          "name": "password",
          "type": "string"
        },
        {
          "name": "nombre",
          "type": "string"
        },
        {
          "name": "rol",
          "type": "string"
        }
      ],
      "name": "setEmpleado",
      "outputs": [],
      "payable": false,
      "stateMutability": "nonpayable",
      "type": "function"
    },
    {
      "constant": false,
      "inputs": [
        {
          "name": "idLote",
          "type": "uint256"
        }
      ],
      "name": "createLote",
      "outputs": [],
      "payable": false,
      "stateMutability": "nonpayable",
      "type": "function"
    },
    {
      "constant": true,
      "inputs": [
        {
          "name": "_BancosSangre",
          "type": "address"
        },
        {
          "name": "idEmpleado",
          "type": "uint256"
        }
      ],
      "name": "getEmpleado",
      "outputs": [
        {
          "name": "",
          "type": "uint256"
        },
        {
          "name": "",
          "type": "string"
        },
        {
          "name": "",
          "type": "string"
        }
      ],
      "payable": false,
      "stateMutability": "view",
      "type": "function"
    },
    {
      "constant": true,
      "inputs": [
        {
          "name": "dirrecionBanco",
          "type": "address"
        }
      ],
      "name": "getBancoSangre",
      "outputs": [
        {
          "name": "",
          "type": "uint256"
        },
        {
          "name": "",
          "type": "string"
        },
        {
          "name": "",
          "type": "string"
        }
      ],
      "payable": false,
      "stateMutability": "view",
      "type": "function"
    },
    {
      "constant": true,
      "inputs": [
        {
          "name": "_cedula",
          "type": "uint256"
        }
      ],
      "name": "getDonante",
      "outputs": [
        {
          "name": "cedula",
          "type": "uint256"
        },
        {
          "name": "edad",
          "type": "uint256"
        },
        {
          "name": "numeroTelefono",
          "type": "uint256"
        },
        {
          "name": "nombre",
          "type": "string"
        },
        {
          "name": "apellido",
          "type": "string"
        },
        {
          "name": "Eps",
          "type": "string"
        },
        {
          "name": "correoElectronico",
          "type": "string"
        },
        {
          "name": "genero",
          "type": "string"
        }
      ],
      "payable": false,
      "stateMutability": "view",
      "type": "function"
    },
    {
      "constant": true,
      "inputs": [
        {
          "name": "_cedula",
          "type": "uint256"
        }
      ],
      "name": "getSaludDonante",
      "outputs": [
        {
          "name": "cedula",
          "type": "uint256"
        },
        {
          "name": "peso",
          "type": "uint256"
        },
        {
          "name": "altura",
          "type": "uint256"
        },
        {
          "name": "tensionArterial",
          "type": "uint256"
        }
      ],
      "payable": false,
      "stateMutability": "view",
      "type": "function"
    },
    {
      "constant": true,
      "inputs": [
        {
          "name": "lote",
          "type": "uint256"
        },
        {
          "name": "donacion",
          "type": "uint256"
        }
      ],
      "name": "getUbicacionUnidad",
      "outputs": [
        {
          "name": "",
          "type": "string"
        },
        {
          "name": "",
          "type": "string"
        }
      ],
      "payable": false,
      "stateMutability": "view",
      "type": "function"
    },
    {
      "constant": true,
      "inputs": [
        {
          "name": "lote",
          "type": "uint256"
        }
      ],
      "name": "getUbicacionLote",
      "outputs": [
        {
          "name": "",
          "type": "string"
        },
        {
          "name": "",
          "type": "string"
        }
      ],
      "payable": false,
      "stateMutability": "view",
      "type": "function"
    },
    {
      "constant": true,
      "inputs": [
        {
          "name": "idLote",
          "type": "uint256"
        },
        {
          "name": "idUnidad",
          "type": "uint256"
        }
      ],
      "name": "getTruUnidad",
      "outputs": [
        {
          "name": "",
          "type": "uint256"
        },
        {
          "name": "",
          "type": "uint256"
        }
      ],
      "payable": false,
      "stateMutability": "view",
      "type": "function"
    },
    {
      "constant": false,
      "inputs": [
        {
          "name": "name",
          "type": "address"
        },
        {
          "name": "idTrazo",
          "type": "uint256"
        },
        {
          "name": "inputTruId",
          "type": "uint256"
        },
        {
          "name": "outputTruId",
          "type": "uint256"
        },
        {
          "name": "long",
          "type": "string"
        },
        {
          "name": "lat",
          "type": "string"
        },
        {
          "name": "idUnidad",
          "type": "uint256"
        },
        {
          "name": "idLote",
          "type": "uint256"
        }
      ],
      "name": "newPrimitiveActivity",
      "outputs": [],
      "payable": false,
      "stateMutability": "nonpayable",
      "type": "function"
    },
    {
      "constant": false,
      "inputs": [
        {
          "name": "tru_begin",
          "type": "uint256"
        },
        {
          "name": "tru_end",
          "type": "uint256"
        }
      ],
      "name": "primitiveTrace",
      "outputs": [],
      "payable": false,
      "stateMutability": "nonpayable",
      "type": "function"
    }
  ],
  "bytecode": "0x608060405234801561001057600080fd5b506000600581905550614af8806100286000396000f3fe608060405234801561001057600080fd5b50600436106100f55760003560e01c8063774ec08011610097578063c0f5b19111610066578063c0f5b19114610bbc578063c7b3f26314610efe578063ef5e738814611111578063f4103f8e14611240576100f5565b8063774ec080146107c4578063a4c528ff1461081b578063b0edd46a14610867578063bdaeb2a514610ad3576100f5565b8063225029a1116100d3578063225029a1146104645780632e155a90146106095780633ab661151461065c578063576a90581461078c576100f5565b806304fdb4cd146100fa5780630f5b73811461020d5780631bd7137514610347575b600080fd5b6101266004803603602081101561011057600080fd5b810190808035906020019092919050505061126e565b604051808060200180602001838103835285818151815260200191508051906020019080838360005b8381101561016a57808201518184015260208101905061014f565b50505050905090810190601f1680156101975780820380516001836020036101000a031916815260200191505b50838103825284818151815260200191508051906020019080838360005b838110156101d05780820151818401526020810190506101b5565b50505050905090810190601f1680156101fd5780820380516001836020036101000a031916815260200191505b5094505050505060405180910390f35b6102596004803603604081101561022357600080fd5b81019080803573ffffffffffffffffffffffffffffffffffffffff169060200190929190803590602001909291905050506113e2565b604051808481526020018060200180602001838103835285818151815260200191508051906020019080838360005b838110156102a3578082015181840152602081019050610288565b50505050905090810190601f1680156102d05780820380516001836020036101000a031916815260200191505b50838103825284818151815260200191508051906020019080838360005b838110156103095780820151818401526020810190506102ee565b50505050905090810190601f1680156103365780820380516001836020036101000a031916815260200191505b509550505050505060405180910390f35b61037d6004803603604081101561035d57600080fd5b8101908080359060200190929190803590602001909291905050506116be565b604051808060200180602001838103835285818151815260200191508051906020019080838360005b838110156103c15780820151818401526020810190506103a6565b50505050905090810190601f1680156103ee5780820380516001836020036101000a031916815260200191505b50838103825284818151815260200191508051906020019080838360005b8381101561042757808201518184015260208101905061040c565b50505050905090810190601f1680156104545780820380516001836020036101000a031916815260200191505b5094505050505060405180910390f35b610607600480360361010081101561047b57600080fd5b81019080803573ffffffffffffffffffffffffffffffffffffffff169060200190929190803590602001909291908035906020019092919080359060200190929190803590602001906401000000008111156104d657600080fd5b8201836020820111156104e857600080fd5b8035906020019184600183028401116401000000008311171561050a57600080fd5b91908080601f016020809104026020016040519081016040528093929190818152602001838380828437600081840152601f19601f8201169050808301925050505050505091929192908035906020019064010000000081111561056d57600080fd5b82018360208201111561057f57600080fd5b803590602001918460018302840111640100000000831117156105a157600080fd5b91908080601f016020809104026020016040519081016040528093929190818152602001838380828437600081840152601f19601f820116905080830192505050505050509192919290803590602001909291908035906020019092919050505061185f565b005b61063f6004803603604081101561061f57600080fd5b810190808035906020019092919080359060200190929190505050611c28565b604051808381526020018281526020019250505060405180910390f35b61069e6004803603602081101561067257600080fd5b81019080803573ffffffffffffffffffffffffffffffffffffffff169060200190929190505050611c8a565b604051808481526020018060200180602001838103835285818151815260200191508051906020019080838360005b838110156106e85780820151818401526020810190506106cd565b50505050905090810190601f1680156107155780820380516001836020036101000a031916815260200191505b50838103825284818151815260200191508051906020019080838360005b8381101561074e578082015181840152602081019050610733565b50505050905090810190601f16801561077b5780820380516001836020036101000a031916815260200191505b509550505050505060405180910390f35b6107c2600480360360408110156107a257600080fd5b810190808035906020019092919080359060200190929190505050611e9b565b005b6107f0600480360360208110156107da57600080fd5b8101908080359060200190929190505050612291565b6040518085815260200184815260200183815260200182815260200194505050505060405180910390f35b6108656004803603608081101561083157600080fd5b81019080803590602001909291908035906020019092919080359060200190929190803590602001909291905050506127e8565b005b6108936004803603602081101561087d57600080fd5b810190808035906020019092919050505061298a565b60405180898152602001888152602001878152602001806020018060200180602001806020018060200186810386528b818151815260200191508051906020019080838360005b838110156108f55780820151818401526020810190506108da565b50505050905090810190601f1680156109225780820380516001836020036101000a031916815260200191505b5086810385528a818151815260200191508051906020019080838360005b8381101561095b578082015181840152602081019050610940565b50505050905090810190601f1680156109885780820380516001836020036101000a031916815260200191505b50868103845289818151815260200191508051906020019080838360005b838110156109c15780820151818401526020810190506109a6565b50505050905090810190601f1680156109ee5780820380516001836020036101000a031916815260200191505b50868103835288818151815260200191508051906020019080838360005b83811015610a27578082015181840152602081019050610a0c565b50505050905090810190601f168015610a545780820380516001836020036101000a031916815260200191505b50868103825287818151815260200191508051906020019080838360005b83811015610a8d578082015181840152602081019050610a72565b50505050905090810190601f168015610aba5780820380516001836020036101000a031916815260200191505b509d505050505050505050505050505060405180910390f35b610b0960048036036040811015610ae957600080fd5b810190808035906020019092919080359060200190929190505050612f1a565b6040518088815260200187815260200186815260200185815260200180602001846002811115610b3557fe5b60ff168152602001838152602001828103825285818151815260200191508051906020019080838360005b83811015610b7b578082015181840152602081019050610b60565b50505050905090810190601f168015610ba85780820380516001836020036101000a031916815260200191505b509850505050505050505060405180910390f35b610efc6004803603610120811015610bd357600080fd5b8101908080359060200190929190803590602001909291908035906020019092919080359060200190640100000000811115610c0e57600080fd5b820183602082011115610c2057600080fd5b80359060200191846001830284011164010000000083111715610c4257600080fd5b91908080601f016020809104026020016040519081016040528093929190818152602001838380828437600081840152601f19601f82011690508083019250505050505050919291929080359060200190640100000000811115610ca557600080fd5b820183602082011115610cb757600080fd5b80359060200191846001830284011164010000000083111715610cd957600080fd5b91908080601f016020809104026020016040519081016040528093929190818152602001838380828437600081840152601f19601f82011690508083019250505050505050919291929080359060200190640100000000811115610d3c57600080fd5b820183602082011115610d4e57600080fd5b80359060200191846001830284011164010000000083111715610d7057600080fd5b91908080601f016020809104026020016040519081016040528093929190818152602001838380828437600081840152601f19601f82011690508083019250505050505050919291929080359060200190640100000000811115610dd357600080fd5b820183602082011115610de557600080fd5b80359060200191846001830284011164010000000083111715610e0757600080fd5b91908080601f016020809104026020016040519081016040528093929190818152602001838380828437600081840152601f19601f82011690508083019250505050505050919291929080359060200190640100000000811115610e6a57600080fd5b820183602082011115610e7c57600080fd5b80359060200191846001830284011164010000000083111715610e9e57600080fd5b91908080601f016020809104026020016040519081016040528093929190818152602001838380828437600081840152601f19601f8201169050808301925050505050505091929192908035151590602001909291905050506136c9565b005b61110f600480360360a0811015610f1457600080fd5b81019080803573ffffffffffffffffffffffffffffffffffffffff1690602001909291908035906020019092919080359060200190640100000000811115610f5b57600080fd5b820183602082011115610f6d57600080fd5b80359060200191846001830284011164010000000083111715610f8f57600080fd5b91908080601f016020809104026020016040519081016040528093929190818152602001838380828437600081840152601f19601f82011690508083019250505050505050919291929080359060200190640100000000811115610ff257600080fd5b82018360208201111561100457600080fd5b8035906020019184600183028401116401000000008311171561102657600080fd5b91908080601f016020809104026020016040519081016040528093929190818152602001838380828437600081840152601f19601f8201169050808301925050505050505091929192908035906020019064010000000081111561108957600080fd5b82018360208201111561109b57600080fd5b803590602001918460018302840111640100000000831117156110bd57600080fd5b91908080601f016020809104026020016040519081016040528093929190818152602001838380828437600081840152601f19601f82011690508083019250505050505050919291929050505061391f565b005b61123e600480360361014081101561112857600080fd5b81019080803573ffffffffffffffffffffffffffffffffffffffff16906020019092919080359060200190929190803590602001909291908035906020019092919080359060200190929190803590602001909291908035906020019064010000000081111561119757600080fd5b8201836020820111156111a957600080fd5b803590602001918460018302840111640100000000831117156111cb57600080fd5b91908080601f016020809104026020016040519081016040528093929190818152602001838380828437600081840152601f19601f820116905080830192505050505050509192919290803560ff1690602001909291908035906020019092919080359060200190929190505050613bf7565b005b61126c6004803603602081101561125657600080fd5b8101908080359060200190929190505050614026565b005b606080600080848152602001908152602001600020600701600401600080858152602001908152602001600020600101600501818054600181600116156101000203166002900480601f0160208091040260200160405190810160405280929190818152602001828054600181600116156101000203166002900480156113365780601f1061130b57610100808354040283529160200191611336565b820191906000526020600020905b81548152906001019060200180831161131957829003601f168201915b50505050509150808054600181600116156101000203166002900480601f0160208091040260200160405190810160405280929190818152602001828054600181600116156101000203166002900480156113d25780601f106113a7576101008083540402835291602001916113d2565b820191906000526020600020905b8154815290600101906020018083116113b557829003601f168201915b5050505050905091509150915091565b60006060806000600260008773ffffffffffffffffffffffffffffffffffffffff1673ffffffffffffffffffffffffffffffffffffffff1681526020019081526020016000206004016000868152602001908152602001600020600001541461168b57600260008673ffffffffffffffffffffffffffffffffffffffff1673ffffffffffffffffffffffffffffffffffffffff168152602001908152602001600020600401600085815260200190815260200160002060000154600260008773ffffffffffffffffffffffffffffffffffffffff1673ffffffffffffffffffffffffffffffffffffffff1681526020019081526020016000206004016000868152602001908152602001600020600201600260008873ffffffffffffffffffffffffffffffffffffffff1673ffffffffffffffffffffffffffffffffffffffff1681526020019081526020016000206004016000878152602001908152602001600020600301818054600181600116156101000203166002900480601f0160208091040260200160405190810160405280929190818152602001828054600181600116156101000203166002900480156115dd5780601f106115b2576101008083540402835291602001916115dd565b820191906000526020600020905b8154815290600101906020018083116115c057829003601f168201915b50505050509150808054600181600116156101000203166002900480601f0160208091040260200160405190810160405280929190818152602001828054600181600116156101000203166002900480156116795780601f1061164e57610100808354040283529160200191611679565b820191906000526020600020905b81548152906001019060200180831161165c57829003601f168201915b505050505090509250925092506116b7565b600080905060405180602001604052806000815250604051806020016040528060008152509250925092505b9250925092565b6060806000806000868152602001908152602001600020600d0160008581526020019081526020016000206007015490506003600082815260200190815260200160002060040160036000838152602001908152602001600020600501818054600181600116156101000203166002900480601f0160208091040260200160405190810160405280929190818152602001828054600181600116156101000203166002900480156117b05780601f10611785576101008083540402835291602001916117b0565b820191906000526020600020905b81548152906001019060200180831161179357829003601f168201915b50505050509150808054600181600116156101000203166002900480601f01602080910402602001604051908101604052809291908181526020018280546001816001161561010002031660029004801561184c5780601f106118215761010080835404028352916020019161184c565b820191906000526020600020905b81548152906001019060200180831161182f57829003601f168201915b5050505050905092509250509250929050565b856003600082815260200190815260200160002060000160009054906101000a900460ff16806118af57506003600082815260200190815260200160002060000160019054906101000a900460ff165b156118b957600080fd5b856003600082815260200190815260200160002060000160029054906101000a900460ff1615611951576040517f08c379a00000000000000000000000000000000000000000000000000000000081526004018080602001828103825260108152602001807f456c20747275207961206578697374650000000000000000000000000000000081525060200191505060405180910390fd5b886004600082815260200190815260200160002060000160009054906101000a900460ff16156119e9576040517f08c379a00000000000000000000000000000000000000000000000000000000081526004018080602001828103825260198152602001807f456c206163746976697469207961206675652063726561646f0000000000000081525060200191505060405180910390fd5b896000811415611a61576040517f08c379a00000000000000000000000000000000000000000000000000000000081526004018080602001828103825260178152602001807f4572726f7220656c206e756d65726f206573207a65726f00000000000000000081525060200191505060405180910390fd5b8b600460008d815260200190815260200160002060000160016101000a81548173ffffffffffffffffffffffffffffffffffffffff021916908373ffffffffffffffffffffffffffffffffffffffff1602179055508a600460008d8152602001908152602001600020600101819055506001600460008d815260200190815260200160002060000160006101000a81548160ff02191690831515021790555060011515600360008c815260200190815260200160002060000160029054906101000a900460ff16151514611b3957611b388a614137565b5b7fba22342e8e8b4b18318ceda20906c8ff76007e2e593ff9db67227fd33534335560056000815480929190600101919050558c8e8d8d604051808681526020018581526020018473ffffffffffffffffffffffffffffffffffffffff1673ffffffffffffffffffffffffffffffffffffffff1681526020018381526020018281526020019550505050505060405180910390a1611bda8a8c8a8a8a8a61437b565b89600460008d815260200190815260200160002060020181905550611bff898c6146d6565b88600460008d815260200190815260200160002060030181905550505050505050505050505050565b600080600080858152602001908152602001600020600d01600084815260200190815260200160002060060154600080868152602001908152602001600020600d01600085815260200190815260200160002060070154915091509250929050565b6000606080600260008573ffffffffffffffffffffffffffffffffffffffff1673ffffffffffffffffffffffffffffffffffffffff16815260200190815260200160002060000154600260008673ffffffffffffffffffffffffffffffffffffffff1673ffffffffffffffffffffffffffffffffffffffff168152602001908152602001600020600101600260008773ffffffffffffffffffffffffffffffffffffffff1673ffffffffffffffffffffffffffffffffffffffff168152602001908152602001600020600201818054600181600116156101000203166002900480601f016020809104026020016040519081016040528092919081815260200182805460018160011615610100020316600290048015611deb5780601f10611dc057610100808354040283529160200191611deb565b820191906000526020600020905b815481529060010190602001808311611dce57829003601f168201915b50505050509150808054600181600116156101000203166002900480601f016020809104026020016040519081016040528092919081815260200182805460018160011615610100020316600290048015611e875780601f10611e5c57610100808354040283529160200191611e87565b820191906000526020600020905b815481529060010190602001808311611e6a57829003601f168201915b505050505090509250925092509193909250565b81600115156003600083815260200190815260200160002060000160029054906101000a900460ff16151514611f39576040517f08c379a00000000000000000000000000000000000000000000000000000000081526004018080602001828103825260108152602001807f456c20747275206e6f206578697374650000000000000000000000000000000081525060200191505060405180910390fd5b81600115156003600083815260200190815260200160002060000160029054906101000a900460ff16151514611fd7576040517f08c379a00000000000000000000000000000000000000000000000000000000081526004018080602001828103825260108152602001807f456c20747275206e6f206578697374650000000000000000000000000000000081525060200191505060405180910390fd5b60008490505b83811415801561200457506000600360008381526020019081526020016000206002015414155b156121ce5760006003600083815260200190815260200160002060020154905060006004600083815260200190815260200160002060000160019054906101000a900473ffffffffffffffffffffffffffffffffffffffff1690507f62da4740bd6c6288c4c0286fc7ce769ba3b6c63bc0f8882bc0696cdb50bcea0c6005600081548092919060010191905055848484604051808581526020018481526020018381526020018273ffffffffffffffffffffffffffffffffffffffff1673ffffffffffffffffffffffffffffffffffffffff16815260200194505050505060405180910390a1600460008381526020019081526020016000206002015492506004600083815260200190815260200160002060000160019054906101000a900473ffffffffffffffffffffffffffffffffffffffff1690507fcba801fe07b10898b2f7e00765879a5518629f4802c69975519227fa19261bd76005600081548092919060010191905055838386604051808581526020018481526020018373ffffffffffffffffffffffffffffffffffffffff1673ffffffffffffffffffffffffffffffffffffffff16815260200182815260200194505050505060405180910390a15050611fdd565b83811415612232577f3ac0777646bde27eff82e940329475980f8d2e14d062f56386217e2f85bb92e76005600081548092919060010191905055868660405180848152602001838152602001828152602001935050505060405180910390a161228a565b7f76f79afd4dc5b2e98c1c0439ebc54667382cca64ff29edb9808a6fabee4963416005600081548092919060010191905055868660405180848152602001838152602001828152602001935050505060405180910390a15b5050505050565b60008060008060006001600087815260200190815260200160002060000154146127c6576122bd614846565b60016000878152602001908152602001600020604051806101a0016040529081600082015481526020016001820154815260200160028201548152602001600382018054600181600116156101000203166002900480601f0160208091040260200160405190810160405280929190818152602001828054600181600116156101000203166002900480156123935780601f1061236857610100808354040283529160200191612393565b820191906000526020600020905b81548152906001019060200180831161237657829003601f168201915b50505050508152602001600482018054600181600116156101000203166002900480601f0160208091040260200160405190810160405280929190818152602001828054600181600116156101000203166002900480156124355780601f1061240a57610100808354040283529160200191612435565b820191906000526020600020905b81548152906001019060200180831161241857829003601f168201915b50505050508152602001600582018054600181600116156101000203166002900480601f0160208091040260200160405190810160405280929190818152602001828054600181600116156101000203166002900480156124d75780601f106124ac576101008083540402835291602001916124d7565b820191906000526020600020905b8154815290600101906020018083116124ba57829003601f168201915b50505050508152602001600682018054600181600116156101000203166002900480601f0160208091040260200160405190810160405280929190818152602001828054600181600116156101000203166002900480156125795780601f1061254e57610100808354040283529160200191612579565b820191906000526020600020905b81548152906001019060200180831161255c57829003601f168201915b50505050508152602001600782018054600181600116156101000203166002900480601f01602080910402602001604051908101604052809291908181526020018280546001816001161561010002031660029004801561261b5780601f106125f05761010080835404028352916020019161261b565b820191906000526020600020905b8154815290600101906020018083116125fe57829003601f168201915b505050505081526020016008820180548060200260200160405190810160405280929190818152602001828054801561267357602002820191906000526020600020905b81548152602001906001019080831161265f575b50505050508152602001600982018054806020026020016040519081016040528092919081815260200182805480156126cb57602002820191906000526020600020905b8154815260200190600101908083116126b7575b50505050508152602001600a820180548060200260200160405190810160405280929190818152602001828054801561272357602002820191906000526020600020905b81548152602001906001019080831161270f575b50505050508152602001600b8201548152602001600c820160009054906101000a900460ff161515151581525050905060008161010001515190508160000151826101000151600183038151811061277757fe5b6020026020010151836101200151600184038151811061279357fe5b602002602001015184610140015160018503815181106127af57fe5b6020026020010151955095509550955050506127e1565b60008060008083935082925081915080905093509350935093505b9193509193565b600060016000868152602001908152602001600020600001541461290757600160008581526020019081526020016000206008018390806001815401808255809150509060018203906000526020600020016000909192909190915055506001600085815260200190815260200160002060090182908060018154018082558091505090600182039060005260206000200160009091929091909150555060016000858152602001908152602001600020600a018190806001815401808255809150509060018203906000526020600020016000909192909190915055507f4e95f8ab78c4e28be0d11253fcfef913dff4ccdf42f9bff29a01e6298937909f6001604051808215151515815260200191505060405180910390a1612984565b7f31631c159a0013f8df0b825ac6c1f7acc246addfd8444bb992c5aa939f1b8b7360405160405180910390a16040517f08c379a0000000000000000000000000000000000000000000000000000000008152600401808060200182810382526023815260200180614aaa6023913960400191505060405180910390fd5b50505050565b600080600060608060608060606000600160008b81526020019081526020016000206000015414612ea0576129bd614846565b600160008b8152602001908152602001600020604051806101a0016040529081600082015481526020016001820154815260200160028201548152602001600382018054600181600116156101000203166002900480601f016020809104026020016040519081016040528092919081815260200182805460018160011615610100020316600290048015612a935780601f10612a6857610100808354040283529160200191612a93565b820191906000526020600020905b815481529060010190602001808311612a7657829003601f168201915b50505050508152602001600482018054600181600116156101000203166002900480601f016020809104026020016040519081016040528092919081815260200182805460018160011615610100020316600290048015612b355780601f10612b0a57610100808354040283529160200191612b35565b820191906000526020600020905b815481529060010190602001808311612b1857829003601f168201915b50505050508152602001600582018054600181600116156101000203166002900480601f016020809104026020016040519081016040528092919081815260200182805460018160011615610100020316600290048015612bd75780601f10612bac57610100808354040283529160200191612bd7565b820191906000526020600020905b815481529060010190602001808311612bba57829003601f168201915b50505050508152602001600682018054600181600116156101000203166002900480601f016020809104026020016040519081016040528092919081815260200182805460018160011615610100020316600290048015612c795780601f10612c4e57610100808354040283529160200191612c79565b820191906000526020600020905b815481529060010190602001808311612c5c57829003601f168201915b50505050508152602001600782018054600181600116156101000203166002900480601f016020809104026020016040519081016040528092919081815260200182805460018160011615610100020316600290048015612d1b5780601f10612cf057610100808354040283529160200191612d1b565b820191906000526020600020905b815481529060010190602001808311612cfe57829003601f168201915b5050505050815260200160088201805480602002602001604051908101604052809291908181526020018280548015612d7357602002820191906000526020600020905b815481526020019060010190808311612d5f575b5050505050815260200160098201805480602002602001604051908101604052809291908181526020018280548015612dcb57602002820191906000526020600020905b815481526020019060010190808311612db7575b50505050508152602001600a8201805480602002602001604051908101604052809291908181526020018280548015612e2357602002820191906000526020600020905b815481526020019060010190808311612e0f575b50505050508152602001600b8201548152602001600c820160009054906101000a900460ff1615151515815250509050806000015181602001518260400151836060015184608001518560a001518660c001518760e001518494508393508292508191508090509850985098509850985098509850985050612f0f565b60008060008292508191508090506040518060200160405280600081525060405180602001604052806000815250604051806020016040528060008152506040518060200160405280600081525060405180602001604052806000815250975097509750975097509750975097505b919395975091939597565b6000806000806060600080612f2d6148b0565b6000808b8152602001908152602001600020600d0160008a8152602001908152602001600020604051806101a001604052908160008201548152602001600182015481526020016002820154815260200160038201548152602001600482018054600181600116156101000203166002900480601f0160208091040260200160405190810160405280929190818152602001828054600181600116156101000203166002900480156130205780601f10612ff557610100808354040283529160200191613020565b820191906000526020600020905b81548152906001019060200180831161300357829003601f168201915b5050505050815260200160058201548152602001600682015481526020016007820154815260200160088201604051806040016040529081600082018054600181600116156101000203166002900480601f0160208091040260200160405190810160405280929190818152602001828054600181600116156101000203166002900480156130f05780601f106130c5576101008083540402835291602001916130f0565b820191906000526020600020905b8154815290600101906020018083116130d357829003601f168201915b50505050508152602001600182018054600181600116156101000203166002900480601f0160208091040260200160405190810160405280929190818152602001828054600181600116156101000203166002900480156131925780601f1061316757610100808354040283529160200191613192565b820191906000526020600020905b81548152906001019060200180831161317557829003601f168201915b5050505050815250508152602001600a8201604051806040016040529081600082018054600181600116156101000203166002900480601f0160208091040260200160405190810160405280929190818152602001828054600181600116156101000203166002900480156132485780601f1061321d57610100808354040283529160200191613248565b820191906000526020600020905b81548152906001019060200180831161322b57829003601f168201915b50505050508152602001600182018054600181600116156101000203166002900480601f0160208091040260200160405190810160405280929190818152602001828054600181600116156101000203166002900480156132ea5780601f106132bf576101008083540402835291602001916132ea565b820191906000526020600020905b8154815290600101906020018083116132cd57829003601f168201915b5050505050815250508152602001600c8201604051806040016040529081600082018054600181600116156101000203166002900480601f0160208091040260200160405190810160405280929190818152602001828054600181600116156101000203166002900480156133a05780601f10613375576101008083540402835291602001916133a0565b820191906000526020600020905b81548152906001019060200180831161338357829003601f168201915b50505050508152602001600182018054600181600116156101000203166002900480601f0160208091040260200160405190810160405280929190818152602001828054600181600116156101000203166002900480156134425780601f1061341757610100808354040283529160200191613442565b820191906000526020600020905b81548152906001019060200180831161342557829003601f168201915b5050505050815250508152602001600e820160009054906101000a900460ff16600281111561346d57fe5b600281111561347857fe5b8152602001600f820160405180608001604052908160008201548152602001600182018054600181600116156101000203166002900480601f01602080910402602001604051908101604052809291908181526020018280546001816001161561010002031660029004801561352f5780601f106135045761010080835404028352916020019161352f565b820191906000526020600020905b81548152906001019060200180831161351257829003601f168201915b50505050508152602001600282018054600181600116156101000203166002900480601f0160208091040260200160405190810160405280929190818152602001828054600181600116156101000203166002900480156135d15780601f106135a6576101008083540402835291602001916135d1565b820191906000526020600020905b8154815290600101906020018083116135b457829003601f168201915b50505050508152602001600382018054600181600116156101000203166002900480601f0160208091040260200160405190810160405280929190818152602001828054600181600116156101000203166002900480156136735780601f1061364857610100808354040283529160200191613673565b820191906000526020600020905b81548152906001019060200180831161365657829003601f168201915b505050505081525050815250509050806000015181602001518260400151836060015184608001518561016001518661018001516000015182925097509750975097509750975097505092959891949750929550565b6000600160008b815260200190815260200160002060000154141561387a5788600160008b81526020019081526020016000206000018190555087600160008b81526020019081526020016000206001018190555086600160008b81526020019081526020016000206002018190555085600160008b8152602001908152602001600020600301908051906020019061376392919061493b565b5084600160008b8152602001908152602001600020600401908051906020019061378e92919061493b565b5083600160008b815260200190815260200160002060050190805190602001906137b992919061493b565b5082600160008b815260200190815260200160002060060190805190602001906137e492919061493b565b5081600160008b8152602001908152602001600020600701908051906020019061380f92919061493b565b5080600160008b8152602001908152602001600020600c0160006101000a81548160ff0219169083151502179055507f555867a322829d3dd91df9b6921a25fec05027b5b61d25e28fb327960d55e180896040518082815260200191505060405180910390a1613914565b7f4224b5a1906c7eed74ec2811eb59ea0e4763c69cf912e97250892c8c25d1073460405160405180910390a16040517f08c379a00000000000000000000000000000000000000000000000000000000081526004018080602001828103825260208152602001807f4572726f7220656e206c61206372656163696f6e2064656c20446f6e616e746581525060200191505060405180910390fd5b505050505050505050565b6000600260008773ffffffffffffffffffffffffffffffffffffffff1673ffffffffffffffffffffffffffffffffffffffff1681526020019081526020016000206004016000868152602001908152602001600020600001541415613b565783600260008773ffffffffffffffffffffffffffffffffffffffff1673ffffffffffffffffffffffffffffffffffffffff16815260200190815260200160002060040160008681526020019081526020016000206000018190555081600260008773ffffffffffffffffffffffffffffffffffffffff1673ffffffffffffffffffffffffffffffffffffffff16815260200190815260200160002060040160008681526020019081526020016000206002019080519060200190613a4392919061493b565b5080600260008773ffffffffffffffffffffffffffffffffffffffff1673ffffffffffffffffffffffffffffffffffffffff16815260200190815260200160002060040160008681526020019081526020016000206003019080519060200190613aae92919061493b565b5082600260008773ffffffffffffffffffffffffffffffffffffffff1673ffffffffffffffffffffffffffffffffffffffff16815260200190815260200160002060040160008681526020019081526020016000206001019080519060200190613b1992919061493b565b507fc1f420e71ed51796c8e16830a322363cd0aa7053f65100d8c9066160cb921f2c846040518082815260200191505060405180910390a1613bf0565b7f4224b5a1906c7eed74ec2811eb59ea0e4763c69cf912e97250892c8c25d1073460405160405180910390a16040517f08c379a00000000000000000000000000000000000000000000000000000000081526004018080602001828103825260208152602001807f4572726f7220656e206c612063726563696f6e2064656c20456d706c6561646f81525060200191505060405180910390fd5b5050505050565b60008060008a8152602001908152602001600020600d0160008b815260200190815260200160002060000154148015613c5757506001151560016000838152602001908152602001600020600c0160009054906101000a900460ff161515145b15613fac57886000808a8152602001908152602001600020600d0160008b815260200190815260200160002060000181905550866000808a8152602001908152602001600020600d0160008b815260200190815260200160002060010181905550856000808a8152602001908152602001600020600d0160008b815260200190815260200160002060020181905550846000808a8152602001908152602001600020600d0160008b815260200190815260200160002060030181905550836000808a8152602001908152602001600020600d0160008b81526020019081526020016000206004019080519060200190613d5192919061493b565b50826000808a8152602001908152602001600020600d0160008b8152602001908152602001600020600e0160006101000a81548160ff02191690836002811115613d9757fe5b0217905550600260008b73ffffffffffffffffffffffffffffffffffffffff1673ffffffffffffffffffffffffffffffffffffffff16815260200190815260200160002060040160008381526020019081526020016000206000808a8152602001908152602001600020600d0160008b8152602001908152602001600020600f016000820154816000015560018201816001019080546001816001161561010002031660029004613e499291906149bb565b5060028201816002019080546001816001161561010002031660029004613e719291906149bb565b5060038201816003019080546001816001161561010002031660029004613e999291906149bb565b5090505060016000828152602001908152602001600020600b016000815480929190600101919050555087600260003373ffffffffffffffffffffffffffffffffffffffff1673ffffffffffffffffffffffffffffffffffffffff1681526020019081526020016000206005016000600260003373ffffffffffffffffffffffffffffffffffffffff1673ffffffffffffffffffffffffffffffffffffffff1681526020019081526020016000206003016000815480929190600101919050558152602001908152602001600020819055507f4e95f8ab78c4e28be0d11253fcfef913dff4ccdf42f9bff29a01e6298937909f6001604051808215151515815260200191505060405180910390a161401a565b6040517f08c379a00000000000000000000000000000000000000000000000000000000081526004018080602001828103825260118152602001807f4552524f52204445204352454143494f4e00000000000000000000000000000081525060200191505060405180910390fd5b50505050505050505050565b600080600083815260200190815260200160002060000154141561409a5780600080838152602001908152602001600020600001819055507fb267ccc5ed9eaa4ff6ba3e5bcdf6d95bd25d67d261fd864fae69134399d31fe8816040518082815260200191505060405180910390a1614134565b7f4224b5a1906c7eed74ec2811eb59ea0e4763c69cf912e97250892c8c25d1073460405160405180910390a16040517f08c379a000000000000000000000000000000000000000000000000000000000815260040180806020018281038252601c8152602001807f4572726f7220656e206c61206372656163696f2064656c206c6f74650000000081525060200191505060405180910390fd5b50565b806003600082815260200190815260200160002060000160029054906101000a900460ff16156141cf576040517f08c379a00000000000000000000000000000000000000000000000000000000081526004018080602001828103825260108152602001807f456c20747275207961206578697374650000000000000000000000000000000081525060200191505060405180910390fd5b816000811415614247576040517f08c379a00000000000000000000000000000000000000000000000000000000081526004018080602001828103825260178152602001807f4572726f7220656c206e756d65726f206573207a65726f00000000000000000081525060200191505060405180910390fd5b60016003600085815260200190815260200160002060000160026101000a81548160ff02191690831515021790555082600360008581526020019081526020016000206001018190555060006003600085815260200190815260200160002060000160006101000a81548160ff02191690831515021790555060006003600085815260200190815260200160002060000160016101000a81548160ff02191690831515021790555060006003600085815260200190815260200160002060020181905550600060036000858152602001908152602001600020600301819055507ff7f355a1d8a4932896c92aa5633c51acd46bb98ad27fe8d6451434fb8374c6f1600560008154809291906001019190505584604051808381526020018281526020019250505060405180910390a1505050565b85600115156003600083815260200190815260200160002060000160029054906101000a900460ff16151514614419576040517f08c379a00000000000000000000000000000000000000000000000000000000081526004018080602001828103825260108152602001807f456c20747275206e6f206578697374650000000000000000000000000000000081525060200191505060405180910390fd5b866003600082815260200190815260200160002060000160009054906101000a900460ff168061446957506003600082815260200190815260200160002060000160019054906101000a900460ff165b1561447357600080fd5b86600115156004600083815260200190815260200160002060000160009054906101000a900460ff161515146144a857600080fd5b6001600360008b815260200190815260200160002060000160006101000a81548160ff02191690831515021790555086600360008b8152602001908152602001600020600401908051906020019061450192919061493b565b5085600360008b8152602001908152602001600020600501908051906020019061452c92919061493b565b5087600360008b8152602001908152602001600020600301819055506000806000868152602001908152602001600020600d0160008781526020019081526020016000206006015414156145db5788600080868152602001908152602001600020600d0160008781526020019081526020016000206006018190555088600080868152602001908152602001600020600d0160008781526020019081526020016000206007018190555061460a565b88600080868152602001908152602001600020600d016000878152602001908152602001600020600701819055505b7fc189b7e5d2c660baba60eea05ae1e6f97661e4e7075febca13780f34da95437360056000815480929190600101919050558a8a600460008d815260200190815260200160002060000160019054906101000a900473ffffffffffffffffffffffffffffffffffffffff16604051808581526020018481526020018381526020018273ffffffffffffffffffffffffffffffffffffffff1673ffffffffffffffffffffffffffffffffffffffff16815260200194505050505060405180910390a1505050505050505050565b816003600082815260200190815260200160002060000160029054906101000a900460ff161561476e576040517f08c379a00000000000000000000000000000000000000000000000000000000081526004018080602001828103825260108152602001807f456c20747275207961206578697374650000000000000000000000000000000081525060200191505060405180910390fd5b8260008114156147e6576040517f08c379a00000000000000000000000000000000000000000000000000000000081526004018080602001828103825260178152602001807f4572726f7220656c206e756d65726f206573207a65726f00000000000000000081525060200191505060405180910390fd5b82600115156004600083815260200190815260200160002060000160009054906101000a900460ff1615151461481b57600080fd5b61482485614137565b8360036000878152602001908152602001600020600201819055505050505050565b604051806101a001604052806000815260200160008152602001600081526020016060815260200160608152602001606081526020016060815260200160608152602001606081526020016060815260200160608152602001600081526020016000151581525090565b60405180610260016040528060008152602001600081526020016000815260200160008152602001606081526020016000815260200160008152602001600081526020016148fc614a42565b8152602001614909614a42565b8152602001614916614a42565b81526020016000600281111561492857fe5b8152602001614935614a5c565b81525090565b828054600181600116156101000203166002900490600052602060002090601f016020900481019282601f1061497c57805160ff19168380011785556149aa565b828001600101855582156149aa579182015b828111156149a957825182559160200191906001019061498e565b5b5090506149b79190614a84565b5090565b828054600181600116156101000203166002900490600052602060002090601f016020900481019282601f106149f45780548555614a31565b82800160010185558215614a3157600052602060002091601f016020900482015b82811115614a30578254825591600101919060010190614a15565b5b509050614a3e9190614a84565b5090565b604051806040016040528060608152602001606081525090565b6040518060800160405280600081526020016060815260200160608152602001606081525090565b614aa691905b80821115614aa2576000816000905550600101614a8a565b5090565b9056fe4572726f7220656e206c61206361726761206465206461746f732064652073616c7564a165627a7a7230582042d7d7a26c407c10c37e46f95bca16e00a544870e569f221237a5dee354562da0029",
  "source": "pragma solidity ^0.5.1;\n\ncontract BloodChain{\n\n\nevent BancoEncontradoExitosamente();\nevent DonanteEncontradoExitosamente(uint cedula, uint edad, uint numeroTelefono, string nombre, string apellido, string Eps, string correoElectronico, string genero);\nevent DatosNoEncontados();\nevent DonanteCreadoExitosamente(uint cedula);\nevent ErrorDeCreacion();\nevent DatosCargadosExitosamente(bool);\nevent EmpleadoCreadoExitosamente(uint idEmpleado);\nevent LoteCreadoExitosamente(uint idLote);\n\n    //listing 3\n    event TraceExists(uint msgOrder, uint from_tru, uint to_tru);\n    event TraceDoesNotExist(uint msgOrder, uint from_tru, uint to_tru);\n    event ActivityCreated(uint msgOrder, uint activityId, address direccionLugar, uint consumedTruId, uint producedTruId);\n    event TruCreated(uint msgOrder, uint truId);\n    event TruConsumed(uint msgOrder, uint truId, uint activityId, address direccionLugar);\n    event TruProducedBy(uint msgOrder, uint currTru, uint currActivity, address direccionLugar);\n    event ActivityConsumes(uint msgOrder, uint currActivity, address direccionLugar, uint currTru);\n    \n\n    constructor () public{\n        msgOrder = 0;\n    }\n    \n    //... remaining listings 2-8\n    \n    \n    //listing 2\n    modifier nonZero(uint num) {\n        if(num == 0){\n            revert('Error el numero es zero');\n        }\n        _;\n    }\n    \n    modifier truDoesNotExist(uint id){\n        if(truLookup[id].created){\n            revert('El tru ya existe');\n        }\n        _;\n    }\n    \n    modifier truExists(uint id){\n        if(truLookup[id].created != true){\n            revert('El tru no existe');\n        }\n        _;\n    }\n    \n    modifier primitiveActivityDoesNotExist(uint id){\n        if(activityLookup[id].created){\n            revert('El activiti ya fue creado');\n        }\n        _;\n    }\n    \n    modifier primitiveActivityExists(uint id){\n        if(activityLookup[id].created != true){\n            revert();\n        }\n        _;\n    }\n    \n    modifier truAvailable(uint id){\n        if(truLookup[id].consumed || truLookup[id].used){\n            revert();\n        }\n        _;\n    }\n    \nstruct BancosSangre{\n    uint idBanco;\n    string direccion;\n    string nombre;\n    uint cantidadLotes;\n    mapping(uint => Empleado) EmpleadosAsociados;\n    mapping(uint => uint) listaLotesPropios;\n}\n\n\nenum TipoBolsa {Extra,Corriente, Doble}\n\nstruct Empleado{\n    uint idEmpleado;\n    string password;\n    string nombre;\n    string rol;\n}\n\n\n  struct Tru{ // Unidad de valor, en pocas palabra que es lo que se esta firmando \n        bool consumed;\n        bool used;\n        bool created;\n        uint id;\n        uint producedBy;\n        uint consumedBy;\n        string long;\n        string lat;\n    }\n    \n    struct PrimitiveActivity{  //Actores que pueden realizar un Trazo\n        bool created;\n        address direccionLugar;\n        uint id;\n        uint inputTruId;\n        uint outputTruId;\n    }\n\n\nstruct Documento{\n    string Hash;\n    string url;\n}\n\nstruct Donante{\n    uint cedula;\n    uint edad;\n    uint numeroTelefono;\n    string nombre;\n    string apellido;\n    string Eps;\n    string correoElectronico;\n    string genero;\n    uint[] peso;\n    uint[] altura;\n    uint[] TensionArterial;\n    uint cantidadDonaciones;\n    bool valido;\n}\n\nstruct Donacion{\n    uint idDonacion;\n    uint cantidadExtraida;\n    uint numeroVenoponuciones;\n    uint numeroMinExtraccion;\n    string fechaDonacion;\n    uint idDonante;\n    uint TruInicio;\n    uint TruEnd;\n    Documento HashConsentimiento;\n    Documento HashEiquetaUnidad;\n    Documento HashFirmaDonante;\n    TipoBolsa tipBolsa;\n    Empleado medicoEncargado;\n}\n\nstruct LoteDonacion{\n    uint idLote;\n    Tru inicio;\n    Tru end;\n    mapping(uint=> Donacion) listaUnidades;\n}\n\n\n\n\n\nmapping(uint=>LoteDonacion) listaLotesTotales;\nmapping(uint=>Donante) listaDonantes;\nmapping(address=>BancosSangre) listaBancos;\nmapping(uint => Tru) truLookup;\nmapping(uint => PrimitiveActivity) activityLookup; // Lista de actores que realizaron un trazo \n\n    uint msgOrder;\n\n\n//Busqueda de una Donacion por lote.\nfunction getDonacionLote(uint idLote, uint idDonacion)public view returns(uint id, uint cantidadExtraida, uint numeroVenoponuciones, uint numeroMinExtraccion,string memory fechaDonacion, TipoBolsa idBolsa, uint idEmpleado){\nDonacion memory u = listaLotesTotales[idLote].listaUnidades[idDonacion];\nreturn (u.idDonacion,u.cantidadExtraida,u.numeroVenoponuciones, u.numeroMinExtraccion, u.fechaDonacion,u.tipBolsa, u.medicoEncargado.idEmpleado);\n}\n\n\n\n//creacion de una donacion que se agrega aun lote.\nfunction setDonacion(address _BancosSangre, uint idDonacion,uint _idLote, uint _cantidadExtraida, uint numeroVenoponuciones, uint numeroMinExtraccion, string memory fechaDonacion, TipoBolsa tipo, uint idMedico, uint idUser)public{\n    if(listaLotesTotales[_idLote].listaUnidades[idDonacion].idDonacion == 0 && listaDonantes[idUser].valido == true ){\n        listaLotesTotales[_idLote].listaUnidades[idDonacion].idDonacion = idDonacion;\n        listaLotesTotales[_idLote].listaUnidades[idDonacion].cantidadExtraida = _cantidadExtraida;\n        listaLotesTotales[_idLote].listaUnidades[idDonacion].numeroVenoponuciones = numeroVenoponuciones;\n        listaLotesTotales[_idLote].listaUnidades[idDonacion].numeroMinExtraccion = numeroMinExtraccion;\n        listaLotesTotales[_idLote].listaUnidades[idDonacion].fechaDonacion = fechaDonacion;\n        listaLotesTotales[_idLote].listaUnidades[idDonacion].tipBolsa = tipo;\n        listaLotesTotales[_idLote].listaUnidades[idDonacion].medicoEncargado = listaBancos[_BancosSangre].EmpleadosAsociados[idMedico];\n        listaDonantes[idUser].cantidadDonaciones++;\n        listaBancos[msg.sender].listaLotesPropios[listaBancos[msg.sender].cantidadLotes++] = _idLote;\n        emit DatosCargadosExitosamente(true);\n    }else{\n        revert('ERROR DE CREACION');\n    }\n}\n\n\n\n// creacion de un donante de sangre\nfunction setDonante(uint cedula, uint edad, uint numeroTelefono, string memory nombre, string memory apellido, string memory Eps, string memory correoElectronico, string memory genero, bool valido)public{\n\nif(listaDonantes[cedula].cedula == 0){\n    listaDonantes[cedula].cedula = cedula;\n    listaDonantes[cedula].edad = edad;\n    listaDonantes[cedula].numeroTelefono = numeroTelefono;\n    listaDonantes[cedula].nombre = nombre;\n    listaDonantes[cedula].apellido = apellido;\n    listaDonantes[cedula].Eps = Eps;\n    listaDonantes[cedula].correoElectronico = correoElectronico;\n    listaDonantes[cedula].genero = genero;\n    listaDonantes[cedula].valido = valido;\n    emit DonanteCreadoExitosamente(cedula);\n}else{\n    emit ErrorDeCreacion();\n    revert('Error en la creacion del Donante');\n}\n}\n\n\nfunction setSaludDonante(uint cedula, uint peso, uint altura, uint TensionArterial) public{\n    if(listaDonantes[cedula].cedula!=0){\n        listaDonantes[cedula].peso.push(peso);\n        listaDonantes[cedula].altura.push(altura);\n        listaDonantes[cedula].TensionArterial.push(TensionArterial);\n        emit DatosCargadosExitosamente(true);\n    }else{\n        emit DatosNoEncontados();\n        revert('Error en la carga de datos de salud');\n    }\n}\n\n\n//-----------------------------------------------------------------------------------------------------------------\n\n\n// Creaciond de un Empleado\nfunction setEmpleado(address _BancosSangre, uint idEmpleado,string memory password, string memory nombre, string memory rol)public{\n    if(listaBancos[_BancosSangre].EmpleadosAsociados[idEmpleado].idEmpleado == 0){\n        listaBancos[_BancosSangre].EmpleadosAsociados[idEmpleado].idEmpleado = idEmpleado;\n        listaBancos[_BancosSangre].EmpleadosAsociados[idEmpleado].nombre = nombre;\n        listaBancos[_BancosSangre].EmpleadosAsociados[idEmpleado].rol = rol;\n         listaBancos[_BancosSangre].EmpleadosAsociados[idEmpleado].password = password;\n        emit EmpleadoCreadoExitosamente(idEmpleado);\n    }else{\n        emit ErrorDeCreacion();\n        revert('Error en la crecion del Empleado');\n    }\n}\n\n\n//Creacion de un lote\nfunction createLote(uint idLote)public{\n    if(listaLotesTotales[idLote].idLote == 0){\n      listaLotesTotales[idLote].idLote = idLote;\n      emit LoteCreadoExitosamente(idLote);\n    }else{\n        emit ErrorDeCreacion();\n        revert('Error en la creacio del lote');\n    }\n}\n\n\n//Busqueda de un Empleado\nfunction getEmpleado(address _BancosSangre, uint idEmpleado) public view returns(uint, string memory, string memory){\n    if(listaBancos[_BancosSangre].EmpleadosAsociados[idEmpleado].idEmpleado != 0){\n        return(listaBancos[_BancosSangre].EmpleadosAsociados[idEmpleado].idEmpleado,listaBancos[_BancosSangre].EmpleadosAsociados[idEmpleado].nombre,listaBancos[_BancosSangre].EmpleadosAsociados[idEmpleado].rol);\n    }else{\n        return(0,\"\",\"\");\n    }\n}\n\n\n//Busqueda de un Bando de Sangre\nfunction getBancoSangre(address dirrecionBanco)public view returns(uint,string memory, string memory){\n    return(listaBancos[dirrecionBanco].idBanco,listaBancos[dirrecionBanco].direccion, listaBancos[dirrecionBanco].nombre);\n}\n\n\n//Busqueda de un  Donante\nfunction getDonante(uint _cedula) public view returns(uint cedula, uint edad, uint numeroTelefono, string memory nombre, string memory apellido, string memory Eps, string memory correoElectronico, string memory genero){\n    if(listaDonantes[_cedula].cedula != 0){\n        Donante memory  u= listaDonantes[_cedula];\n     return (u.cedula,u.edad,u.numeroTelefono,u.nombre,u.apellido,u.Eps, u.correoElectronico,u.genero);\n    }else{\n        return(0,0,0,\"\",\"\",\"\",\"\",\"\");\n    }\n}\n\n//Busqueda datos Salud Donante\nfunction getSaludDonante(uint _cedula) public view returns(uint cedula, uint peso, uint altura, uint  tensionArterial){\n    if(listaDonantes[_cedula].cedula != 0){\n        Donante memory  u= listaDonantes[_cedula];\n        uint nElements = u.peso.length;\n     return (u.cedula,u.peso[nElements-1],u.altura[nElements-1],u.TensionArterial[nElements-1]);\n    }else{\n        return(0,0,0,0);\n    }\n}\n\n//BUsqueda de la Ubicacion de una unidad\nfunction getUbicacionUnidad(uint lote, uint donacion) public view returns(string memory, string memory){\n    uint idtru = listaLotesTotales[lote].listaUnidades[donacion].TruEnd;\n    return(truLookup[idtru].long, truLookup[idtru].lat);\n}\n\n\n//Busqueda de la ubicacion de un lote\nfunction getUbicacionLote(uint lote) public view returns(string memory, string memory){\n    return(listaLotesTotales[lote].end.long, listaLotesTotales[lote].inicio.lat);\n}\n\nfunction getTruUnidad(uint idLote,uint idUnidad) public view returns(uint,uint){\nreturn (listaLotesTotales[idLote].listaUnidades[idUnidad].TruInicio, listaLotesTotales[idLote].listaUnidades[idUnidad].TruEnd);\n}\n\n//---------------------------------------------------------------------------------------------------------------------Trazabilidad--------------------------------------------------------------------------------------\n    //listing 4\n    function newTru(uint id) private //Funcion que permite la creacion de la unidad de valor\n    truDoesNotExist(id)\n    nonZero(id)\n    {\n        truLookup[id].created = true;\n        truLookup[id].id = id;\n        truLookup[id].consumed = false;\n        truLookup[id].used = false;\n        truLookup[id].producedBy = 0;\n        truLookup[id].consumedBy = 0;\n        emit TruCreated(msgOrder++, id);\n    }\n    \n    //listing 5\n    function newTru(uint id, uint activityId) private // Metodo que  firma la unidad de valor por su creador.\n    truDoesNotExist(id)\n    nonZero(id)\n    primitiveActivityExists(activityId)\n    {\n        newTru(id);\n        truLookup[id].producedBy = activityId;\n        \n    }\n    \n    //listing 6\n    function consumeTru(uint truId, uint activityId,string memory long, string memory lat, uint idUnidad, uint idLote) private //Meotodo que firman que la unidad de valor fue recibida.\n    truExists(truId)\n    truAvailable(truId)\n    primitiveActivityExists(activityId)\n    {\n        truLookup[truId].consumed = true;\n        truLookup[truId].long = long;\n        truLookup[truId].lat = lat;\n        truLookup[truId].consumedBy = activityId;\n        if(listaLotesTotales[idLote].listaUnidades[idUnidad].TruInicio ==0){\n            listaLotesTotales[idLote].listaUnidades[idUnidad].TruInicio = truId;\n            listaLotesTotales[idLote].listaUnidades[idUnidad].TruEnd = truId;\n        }else{\n             listaLotesTotales[idLote].listaUnidades[idUnidad].TruEnd = truId; \n        }\n        emit TruConsumed(msgOrder++, truId, activityId, activityLookup[activityId].direccionLugar);\n        \n    }\n    \n    //listing 7\n    function newPrimitiveActivity(address name, uint idTrazo, uint inputTruId, uint outputTruId,string memory long, string memory lat, uint idUnidad, uint idLote) // Metodo que permite Crear un Autor que podra firmar el trazo\n    truAvailable(inputTruId)\n    truDoesNotExist(outputTruId)\n    primitiveActivityDoesNotExist(idTrazo)\n    nonZero(idTrazo)\n    public {\n        activityLookup[idTrazo].direccionLugar = name;\n        activityLookup[idTrazo].id = idTrazo;\n        activityLookup[idTrazo].created = true;\n        \n        if(truLookup[inputTruId].created != true){\n            newTru(inputTruId);\n        }\n        emit ActivityCreated(msgOrder++, idTrazo, name, inputTruId, outputTruId);\n        consumeTru(inputTruId, idTrazo,long, lat,idUnidad, idLote);\n        activityLookup[idTrazo].inputTruId = inputTruId;\n        newTru(outputTruId, idTrazo);\n        activityLookup[idTrazo].outputTruId = outputTruId;\n    }\n    \n    //listing 8\n    function primitiveTrace(uint tru_begin, uint tru_end) //metodo que realiza el dibujo de la Trazabilidad  segun quien lo creo y consumio.\n    truExists(tru_begin)\n    truExists(tru_end)\n    public{\n        uint currTru = tru_begin;\n        while(currTru != tru_end && truLookup[currTru].producedBy != 0){\n            uint currActivity = truLookup[currTru].producedBy;\n            address dir  = activityLookup[currActivity].direccionLugar;\n            emit TruProducedBy(msgOrder++, currTru, currActivity, dir);\n            currTru = activityLookup[currActivity].inputTruId;\n            dir = activityLookup[currActivity].direccionLugar;\n            emit ActivityConsumes(msgOrder++, currActivity, dir, currTru);\n        }\n        if(currTru == tru_end){\n           emit TraceExists(msgOrder++, tru_begin, tru_end);\n        }\n        else\n        {\n           emit   TraceDoesNotExist(msgOrder++,tru_begin, tru_end);\n        }\n    }\n\n\n}",
  "sourcePath": "/home/droro/Documents/BlockChain/Blockchain-Solidity/Proyecto BloodChain/contracts/Bloodchain.sol",
  "compiler": {
    "name": "solc",
    "version": "0.5.8+commit.23d335f2.Emscripten.clang"
  },
  "schemaVersion": "3.0.16",
  "updatedAt": "2019-12-02T03:09:02.654Z",
  "devdoc": {
    "methods": {}
  },
  "userdoc": {
    "methods": {}
  }
}