{
  "contractName": "BloodChain",
  "abi": [
    {
      "inputs": [],
      "payable": false,
      "stateMutability": "nonpayable",
      "type": "constructor"
    },
    {
      "anonymous": false,
      "inputs": [],
      "name": "BancoEncontradoExitosamente",
      "type": "event"
    },
    {
      "anonymous": false,
      "inputs": [
        {
          "indexed": false,
          "name": "cedula",
          "type": "uint256"
        },
        {
          "indexed": false,
          "name": "edad",
          "type": "uint256"
        },
        {
          "indexed": false,
          "name": "numeroTelefono",
          "type": "uint256"
        },
        {
          "indexed": false,
          "name": "nombre",
          "type": "string"
        },
        {
          "indexed": false,
          "name": "apellido",
          "type": "string"
        },
        {
          "indexed": false,
          "name": "Eps",
          "type": "string"
        },
        {
          "indexed": false,
          "name": "correoElectronico",
          "type": "string"
        },
        {
          "indexed": false,
          "name": "genero",
          "type": "string"
        }
      ],
      "name": "DonanteEncontradoExitosamente",
      "type": "event"
    },
    {
      "anonymous": false,
      "inputs": [],
      "name": "DatosNoEncontados",
      "type": "event"
    },
    {
      "anonymous": false,
      "inputs": [
        {
          "indexed": false,
          "name": "cedula",
          "type": "uint256"
        }
      ],
      "name": "DonanteCreadoExitosamente",
      "type": "event"
    },
    {
      "anonymous": false,
      "inputs": [],
      "name": "ErrorDeCreacion",
      "type": "event"
    },
    {
      "anonymous": false,
      "inputs": [
        {
          "indexed": false,
          "name": "",
          "type": "bool"
        }
      ],
      "name": "DatosCargadosExitosamente",
      "type": "event"
    },
    {
      "anonymous": false,
      "inputs": [
        {
          "indexed": false,
          "name": "idEmpleado",
          "type": "uint256"
        }
      ],
      "name": "EmpleadoCreadoExitosamente",
      "type": "event"
    },
    {
      "anonymous": false,
      "inputs": [
        {
          "indexed": false,
          "name": "idLote",
          "type": "uint256"
        }
      ],
      "name": "LoteCreadoExitosamente",
      "type": "event"
    },
    {
      "anonymous": false,
      "inputs": [
        {
          "indexed": false,
          "name": "msgOrder",
          "type": "uint256"
        },
        {
          "indexed": false,
          "name": "from_tru",
          "type": "uint256"
        },
        {
          "indexed": false,
          "name": "to_tru",
          "type": "uint256"
        }
      ],
      "name": "TraceExists",
      "type": "event"
    },
    {
      "anonymous": false,
      "inputs": [
        {
          "indexed": false,
          "name": "msgOrder",
          "type": "uint256"
        },
        {
          "indexed": false,
          "name": "from_tru",
          "type": "uint256"
        },
        {
          "indexed": false,
          "name": "to_tru",
          "type": "uint256"
        }
      ],
      "name": "TraceDoesNotExist",
      "type": "event"
    },
    {
      "anonymous": false,
      "inputs": [
        {
          "indexed": false,
          "name": "msgOrder",
          "type": "uint256"
        },
        {
          "indexed": false,
          "name": "activityId",
          "type": "uint256"
        },
        {
          "indexed": false,
          "name": "direccionLugar",
          "type": "address"
        },
        {
          "indexed": false,
          "name": "consumedTruId",
          "type": "uint256"
        },
        {
          "indexed": false,
          "name": "producedTruId",
          "type": "uint256"
        }
      ],
      "name": "ActivityCreated",
      "type": "event"
    },
    {
      "anonymous": false,
      "inputs": [
        {
          "indexed": false,
          "name": "msgOrder",
          "type": "uint256"
        },
        {
          "indexed": false,
          "name": "truId",
          "type": "uint256"
        }
      ],
      "name": "TruCreated",
      "type": "event"
    },
    {
      "anonymous": false,
      "inputs": [
        {
          "indexed": false,
          "name": "msgOrder",
          "type": "uint256"
        },
        {
          "indexed": false,
          "name": "truId",
          "type": "uint256"
        },
        {
          "indexed": false,
          "name": "activityId",
          "type": "uint256"
        },
        {
          "indexed": false,
          "name": "direccionLugar",
          "type": "address"
        }
      ],
      "name": "TruConsumed",
      "type": "event"
    },
    {
      "anonymous": false,
      "inputs": [
        {
          "indexed": false,
          "name": "msgOrder",
          "type": "uint256"
        },
        {
          "indexed": false,
          "name": "currTru",
          "type": "uint256"
        },
        {
          "indexed": false,
          "name": "currActivity",
          "type": "uint256"
        },
        {
          "indexed": false,
          "name": "direccionLugar",
          "type": "address"
        }
      ],
      "name": "TruProducedBy",
      "type": "event"
    },
    {
      "anonymous": false,
      "inputs": [
        {
          "indexed": false,
          "name": "msgOrder",
          "type": "uint256"
        },
        {
          "indexed": false,
          "name": "currActivity",
          "type": "uint256"
        },
        {
          "indexed": false,
          "name": "direccionLugar",
          "type": "address"
        },
        {
          "indexed": false,
          "name": "currTru",
          "type": "uint256"
        }
      ],
      "name": "ActivityConsumes",
      "type": "event"
    },
    {
      "constant": true,
      "inputs": [
        {
          "name": "idLote",
          "type": "uint256"
        },
        {
          "name": "idDonacion",
          "type": "uint256"
        }
      ],
      "name": "getDonacionLote",
      "outputs": [
        {
          "name": "id",
          "type": "uint256"
        },
        {
          "name": "cantidadExtraida",
          "type": "uint256"
        },
        {
          "name": "numeroVenoponuciones",
          "type": "uint256"
        },
        {
          "name": "numeroMinExtraccion",
          "type": "uint256"
        },
        {
          "name": "fechaDonacion",
          "type": "string"
        },
        {
          "name": "idBolsa",
          "type": "uint8"
        },
        {
          "name": "idEmpleado",
          "type": "uint256"
        }
      ],
      "payable": false,
      "stateMutability": "view",
      "type": "function"
    },
    {
      "constant": false,
      "inputs": [
        {
          "name": "_BancosSangre",
          "type": "address"
        },
        {
          "name": "idDonacion",
          "type": "uint256"
        },
        {
          "name": "_idLote",
          "type": "uint256"
        },
        {
          "name": "_cantidadExtraida",
          "type": "uint256"
        },
        {
          "name": "numeroVenoponuciones",
          "type": "uint256"
        },
        {
          "name": "numeroMinExtraccion",
          "type": "uint256"
        },
        {
          "name": "fechaDonacion",
          "type": "string"
        },
        {
          "name": "tipo",
          "type": "uint8"
        },
        {
          "name": "idMedico",
          "type": "uint256"
        },
        {
          "name": "idUser",
          "type": "uint256"
        }
      ],
      "name": "setDonacion",
      "outputs": [],
      "payable": false,
      "stateMutability": "nonpayable",
      "type": "function"
    },
    {
      "constant": false,
      "inputs": [
        {
          "name": "cedula",
          "type": "uint256"
        },
        {
          "name": "edad",
          "type": "uint256"
        },
        {
          "name": "numeroTelefono",
          "type": "uint256"
        },
        {
          "name": "nombre",
          "type": "string"
        },
        {
          "name": "apellido",
          "type": "string"
        },
        {
          "name": "Eps",
          "type": "string"
        },
        {
          "name": "correoElectronico",
          "type": "string"
        },
        {
          "name": "genero",
          "type": "string"
        },
        {
          "name": "valido",
          "type": "bool"
        }
      ],
      "name": "setDonante",
      "outputs": [],
      "payable": false,
      "stateMutability": "nonpayable",
      "type": "function"
    },
    {
      "constant": false,
      "inputs": [
        {
          "name": "cedula",
          "type": "uint256"
        },
        {
          "name": "peso",
          "type": "uint256"
        },
        {
          "name": "altura",
          "type": "uint256"
        },
        {
          "name": "TensionArterial",
          "type": "uint256"
        },
        {
          "name": "tipoS",
          "type": "string"
        }
      ],
      "name": "setSaludDonante",
      "outputs": [],
      "payable": false,
      "stateMutability": "nonpayable",
      "type": "function"
    },
    {
      "constant": false,
      "inputs": [
        {
          "name": "_BancosSangre",
          "type": "address"
        },
        {
          "name": "idEmpleado",
          "type": "uint256"
        },
        {
          "name": "password",
          "type": "string"
        },
        {
          "name": "nombre",
          "type": "string"
        },
        {
          "name": "rol",
          "type": "string"
        }
      ],
      "name": "setEmpleado",
      "outputs": [],
      "payable": false,
      "stateMutability": "nonpayable",
      "type": "function"
    },
    {
      "constant": false,
      "inputs": [
        {
          "name": "idLote",
          "type": "uint256"
        }
      ],
      "name": "createLote",
      "outputs": [],
      "payable": false,
      "stateMutability": "nonpayable",
      "type": "function"
    },
    {
      "constant": true,
      "inputs": [
        {
          "name": "_BancosSangre",
          "type": "address"
        },
        {
          "name": "idEmpleado",
          "type": "uint256"
        }
      ],
      "name": "getEmpleado",
      "outputs": [
        {
          "name": "",
          "type": "uint256"
        },
        {
          "name": "",
          "type": "string"
        },
        {
          "name": "",
          "type": "string"
        }
      ],
      "payable": false,
      "stateMutability": "view",
      "type": "function"
    },
    {
      "constant": true,
      "inputs": [
        {
          "name": "dirrecionBanco",
          "type": "address"
        }
      ],
      "name": "getBancoSangre",
      "outputs": [
        {
          "name": "",
          "type": "uint256"
        },
        {
          "name": "",
          "type": "string"
        },
        {
          "name": "",
          "type": "string"
        }
      ],
      "payable": false,
      "stateMutability": "view",
      "type": "function"
    },
    {
      "constant": true,
      "inputs": [
        {
          "name": "_cedula",
          "type": "uint256"
        }
      ],
      "name": "getDonante",
      "outputs": [
        {
          "name": "cedula",
          "type": "uint256"
        },
        {
          "name": "edad",
          "type": "uint256"
        },
        {
          "name": "numeroTelefono",
          "type": "uint256"
        },
        {
          "name": "nombre",
          "type": "string"
        },
        {
          "name": "apellido",
          "type": "string"
        },
        {
          "name": "Eps",
          "type": "string"
        },
        {
          "name": "correoElectronico",
          "type": "string"
        },
        {
          "name": "genero",
          "type": "string"
        }
      ],
      "payable": false,
      "stateMutability": "view",
      "type": "function"
    },
    {
      "constant": true,
      "inputs": [
        {
          "name": "_cedula",
          "type": "uint256"
        }
      ],
      "name": "getSaludDonante",
      "outputs": [
        {
          "name": "cedula",
          "type": "uint256"
        },
        {
          "name": "peso",
          "type": "uint256"
        },
        {
          "name": "altura",
          "type": "uint256"
        },
        {
          "name": "TensionArterial",
          "type": "uint256"
        },
        {
          "name": "tipoSangre",
          "type": "string"
        }
      ],
      "payable": false,
      "stateMutability": "view",
      "type": "function"
    },
    {
      "constant": true,
      "inputs": [
        {
          "name": "lote",
          "type": "uint256"
        },
        {
          "name": "donacion",
          "type": "uint256"
        }
      ],
      "name": "getUbicacionUnidad",
      "outputs": [
        {
          "name": "",
          "type": "string"
        },
        {
          "name": "",
          "type": "string"
        }
      ],
      "payable": false,
      "stateMutability": "view",
      "type": "function"
    },
    {
      "constant": true,
      "inputs": [
        {
          "name": "lote",
          "type": "uint256"
        }
      ],
      "name": "getUbicacionLote",
      "outputs": [
        {
          "name": "",
          "type": "string"
        },
        {
          "name": "",
          "type": "string"
        }
      ],
      "payable": false,
      "stateMutability": "view",
      "type": "function"
    },
    {
      "constant": true,
      "inputs": [
        {
          "name": "idLote",
          "type": "uint256"
        },
        {
          "name": "idUnidad",
          "type": "uint256"
        }
      ],
      "name": "getTruUnidad",
      "outputs": [
        {
          "name": "",
          "type": "uint256"
        },
        {
          "name": "",
          "type": "uint256"
        }
      ],
      "payable": false,
      "stateMutability": "view",
      "type": "function"
    },
    {
      "constant": false,
      "inputs": [
        {
          "name": "name",
          "type": "address"
        },
        {
          "name": "idTrazo",
          "type": "uint256"
        },
        {
          "name": "inputTruId",
          "type": "uint256"
        },
        {
          "name": "outputTruId",
          "type": "uint256"
        },
        {
          "name": "long",
          "type": "string"
        },
        {
          "name": "lat",
          "type": "string"
        },
        {
          "name": "idUnidad",
          "type": "uint256"
        },
        {
          "name": "idLote",
          "type": "uint256"
        }
      ],
      "name": "newPrimitiveActivity",
      "outputs": [],
      "payable": false,
      "stateMutability": "nonpayable",
      "type": "function"
    },
    {
      "constant": false,
      "inputs": [
        {
          "name": "tru_begin",
          "type": "uint256"
        },
        {
          "name": "tru_end",
          "type": "uint256"
        }
      ],
      "name": "primitiveTrace",
      "outputs": [],
      "payable": false,
      "stateMutability": "nonpayable",
      "type": "function"
    }
  ],
  "bytecode": "0x608060405234801561001057600080fd5b506000600581905550614d93806100286000396000f3fe608060405234801561001057600080fd5b50600436106100f55760003560e01c8063774ec08011610097578063c7b3f26311610066578063c7b3f26314610f1e578063eaf2150914611131578063ef5e738814611214578063f4103f8e14611343576100f5565b8063774ec080146107c4578063b0edd46a14610887578063bdaeb2a514610af3578063c0f5b19114610bdc576100f5565b8063225029a1116100d3578063225029a1146104645780632e155a90146106095780633ab661151461065c578063576a90581461078c576100f5565b806304fdb4cd146100fa5780630f5b73811461020d5780631bd7137514610347575b600080fd5b6101266004803603602081101561011057600080fd5b8101908080359060200190929190505050611371565b604051808060200180602001838103835285818151815260200191508051906020019080838360005b8381101561016a57808201518184015260208101905061014f565b50505050905090810190601f1680156101975780820380516001836020036101000a031916815260200191505b50838103825284818151815260200191508051906020019080838360005b838110156101d05780820151818401526020810190506101b5565b50505050905090810190601f1680156101fd5780820380516001836020036101000a031916815260200191505b5094505050505060405180910390f35b6102596004803603604081101561022357600080fd5b81019080803573ffffffffffffffffffffffffffffffffffffffff169060200190929190803590602001909291905050506114e5565b604051808481526020018060200180602001838103835285818151815260200191508051906020019080838360005b838110156102a3578082015181840152602081019050610288565b50505050905090810190601f1680156102d05780820380516001836020036101000a031916815260200191505b50838103825284818151815260200191508051906020019080838360005b838110156103095780820151818401526020810190506102ee565b50505050905090810190601f1680156103365780820380516001836020036101000a031916815260200191505b509550505050505060405180910390f35b61037d6004803603604081101561035d57600080fd5b8101908080359060200190929190803590602001909291905050506117c1565b604051808060200180602001838103835285818151815260200191508051906020019080838360005b838110156103c15780820151818401526020810190506103a6565b50505050905090810190601f1680156103ee5780820380516001836020036101000a031916815260200191505b50838103825284818151815260200191508051906020019080838360005b8381101561042757808201518184015260208101905061040c565b50505050905090810190601f1680156104545780820380516001836020036101000a031916815260200191505b5094505050505060405180910390f35b610607600480360361010081101561047b57600080fd5b81019080803573ffffffffffffffffffffffffffffffffffffffff169060200190929190803590602001909291908035906020019092919080359060200190929190803590602001906401000000008111156104d657600080fd5b8201836020820111156104e857600080fd5b8035906020019184600183028401116401000000008311171561050a57600080fd5b91908080601f016020809104026020016040519081016040528093929190818152602001838380828437600081840152601f19601f8201169050808301925050505050505091929192908035906020019064010000000081111561056d57600080fd5b82018360208201111561057f57600080fd5b803590602001918460018302840111640100000000831117156105a157600080fd5b91908080601f016020809104026020016040519081016040528093929190818152602001838380828437600081840152601f19601f8201169050808301925050505050505091929192908035906020019092919080359060200190929190505050611962565b005b61063f6004803603604081101561061f57600080fd5b810190808035906020019092919080359060200190929190505050611d2b565b604051808381526020018281526020019250505060405180910390f35b61069e6004803603602081101561067257600080fd5b81019080803573ffffffffffffffffffffffffffffffffffffffff169060200190929190505050611d8d565b604051808481526020018060200180602001838103835285818151815260200191508051906020019080838360005b838110156106e85780820151818401526020810190506106cd565b50505050905090810190601f1680156107155780820380516001836020036101000a031916815260200191505b50838103825284818151815260200191508051906020019080838360005b8381101561074e578082015181840152602081019050610733565b50505050905090810190601f16801561077b5780820380516001836020036101000a031916815260200191505b509550505050505060405180910390f35b6107c2600480360360408110156107a257600080fd5b810190808035906020019092919080359060200190929190505050611f9e565b005b6107f0600480360360208110156107da57600080fd5b8101908080359060200190929190505050612394565b6040518086815260200185815260200184815260200183815260200180602001828103825283818151815260200191508051906020019080838360005b8381101561084857808201518184015260208101905061082d565b50505050905090810190601f1680156108755780820380516001836020036101000a031916815260200191505b50965050505050505060405180910390f35b6108b36004803603602081101561089d57600080fd5b81019080803590602001909291905050506129ad565b60405180898152602001888152602001878152602001806020018060200180602001806020018060200186810386528b818151815260200191508051906020019080838360005b838110156109155780820151818401526020810190506108fa565b50505050905090810190601f1680156109425780820380516001836020036101000a031916815260200191505b5086810385528a818151815260200191508051906020019080838360005b8381101561097b578082015181840152602081019050610960565b50505050905090810190601f1680156109a85780820380516001836020036101000a031916815260200191505b50868103845289818151815260200191508051906020019080838360005b838110156109e15780820151818401526020810190506109c6565b50505050905090810190601f168015610a0e5780820380516001836020036101000a031916815260200191505b50868103835288818151815260200191508051906020019080838360005b83811015610a47578082015181840152602081019050610a2c565b50505050905090810190601f168015610a745780820380516001836020036101000a031916815260200191505b50868103825287818151815260200191508051906020019080838360005b83811015610aad578082015181840152602081019050610a92565b50505050905090810190601f168015610ada5780820380516001836020036101000a031916815260200191505b509d505050505050505050505050505060405180910390f35b610b2960048036036040811015610b0957600080fd5b810190808035906020019092919080359060200190929190505050612fe0565b6040518088815260200187815260200186815260200185815260200180602001846002811115610b5557fe5b60ff168152602001838152602001828103825285818151815260200191508051906020019080838360005b83811015610b9b578082015181840152602081019050610b80565b50505050905090810190601f168015610bc85780820380516001836020036101000a031916815260200191505b509850505050505050505060405180910390f35b610f1c6004803603610120811015610bf357600080fd5b8101908080359060200190929190803590602001909291908035906020019092919080359060200190640100000000811115610c2e57600080fd5b820183602082011115610c4057600080fd5b80359060200191846001830284011164010000000083111715610c6257600080fd5b91908080601f016020809104026020016040519081016040528093929190818152602001838380828437600081840152601f19601f82011690508083019250505050505050919291929080359060200190640100000000811115610cc557600080fd5b820183602082011115610cd757600080fd5b80359060200191846001830284011164010000000083111715610cf957600080fd5b91908080601f016020809104026020016040519081016040528093929190818152602001838380828437600081840152601f19601f82011690508083019250505050505050919291929080359060200190640100000000811115610d5c57600080fd5b820183602082011115610d6e57600080fd5b80359060200191846001830284011164010000000083111715610d9057600080fd5b91908080601f016020809104026020016040519081016040528093929190818152602001838380828437600081840152601f19601f82011690508083019250505050505050919291929080359060200190640100000000811115610df357600080fd5b820183602082011115610e0557600080fd5b80359060200191846001830284011164010000000083111715610e2757600080fd5b91908080601f016020809104026020016040519081016040528093929190818152602001838380828437600081840152601f19601f82011690508083019250505050505050919291929080359060200190640100000000811115610e8a57600080fd5b820183602082011115610e9c57600080fd5b80359060200191846001830284011164010000000083111715610ebe57600080fd5b91908080601f016020809104026020016040519081016040528093929190818152602001838380828437600081840152601f19601f82011690508083019250505050505050919291929080351515906020019092919050505061378f565b005b61112f600480360360a0811015610f3457600080fd5b81019080803573ffffffffffffffffffffffffffffffffffffffff1690602001909291908035906020019092919080359060200190640100000000811115610f7b57600080fd5b820183602082011115610f8d57600080fd5b80359060200191846001830284011164010000000083111715610faf57600080fd5b91908080601f016020809104026020016040519081016040528093929190818152602001838380828437600081840152601f19601f8201169050808301925050505050505091929192908035906020019064010000000081111561101257600080fd5b82018360208201111561102457600080fd5b8035906020019184600183028401116401000000008311171561104657600080fd5b91908080601f016020809104026020016040519081016040528093929190818152602001838380828437600081840152601f19601f820116905080830192505050505050509192919290803590602001906401000000008111156110a957600080fd5b8201836020820111156110bb57600080fd5b803590602001918460018302840111640100000000831117156110dd57600080fd5b91908080601f016020809104026020016040519081016040528093929190818152602001838380828437600081840152601f19601f8201169050808301925050505050505091929192905050506139e5565b005b611212600480360360a081101561114757600080fd5b81019080803590602001909291908035906020019092919080359060200190929190803590602001909291908035906020019064010000000081111561118c57600080fd5b82018360208201111561119e57600080fd5b803590602001918460018302840111640100000000831117156111c057600080fd5b91908080601f016020809104026020016040519081016040528093929190818152602001838380828437600081840152601f19601f820116905080830192505050505050509192919290505050613cbd565b005b611341600480360361014081101561122b57600080fd5b81019080803573ffffffffffffffffffffffffffffffffffffffff16906020019092919080359060200190929190803590602001909291908035906020019092919080359060200190929190803590602001909291908035906020019064010000000081111561129a57600080fd5b8201836020820111156112ac57600080fd5b803590602001918460018302840111640100000000831117156112ce57600080fd5b91908080601f016020809104026020016040519081016040528093929190818152602001838380828437600081840152601f19601f820116905080830192505050505050509192919290803560ff1690602001909291908035906020019092919080359060200190929190505050613e8b565b005b61136f6004803603602081101561135957600080fd5b81019080803590602001909291905050506142ba565b005b606080600080848152602001908152602001600020600701600401600080858152602001908152602001600020600101600501818054600181600116156101000203166002900480601f0160208091040260200160405190810160405280929190818152602001828054600181600116156101000203166002900480156114395780601f1061140e57610100808354040283529160200191611439565b820191906000526020600020905b81548152906001019060200180831161141c57829003601f168201915b50505050509150808054600181600116156101000203166002900480601f0160208091040260200160405190810160405280929190818152602001828054600181600116156101000203166002900480156114d55780601f106114aa576101008083540402835291602001916114d5565b820191906000526020600020905b8154815290600101906020018083116114b857829003601f168201915b5050505050905091509150915091565b60006060806000600260008773ffffffffffffffffffffffffffffffffffffffff1673ffffffffffffffffffffffffffffffffffffffff1681526020019081526020016000206004016000868152602001908152602001600020600001541461178e57600260008673ffffffffffffffffffffffffffffffffffffffff1673ffffffffffffffffffffffffffffffffffffffff168152602001908152602001600020600401600085815260200190815260200160002060000154600260008773ffffffffffffffffffffffffffffffffffffffff1673ffffffffffffffffffffffffffffffffffffffff1681526020019081526020016000206004016000868152602001908152602001600020600201600260008873ffffffffffffffffffffffffffffffffffffffff1673ffffffffffffffffffffffffffffffffffffffff1681526020019081526020016000206004016000878152602001908152602001600020600301818054600181600116156101000203166002900480601f0160208091040260200160405190810160405280929190818152602001828054600181600116156101000203166002900480156116e05780601f106116b5576101008083540402835291602001916116e0565b820191906000526020600020905b8154815290600101906020018083116116c357829003601f168201915b50505050509150808054600181600116156101000203166002900480601f01602080910402602001604051908101604052809291908181526020018280546001816001161561010002031660029004801561177c5780601f106117515761010080835404028352916020019161177c565b820191906000526020600020905b81548152906001019060200180831161175f57829003601f168201915b505050505090509250925092506117ba565b600080905060405180602001604052806000815250604051806020016040528060008152509250925092505b9250925092565b6060806000806000868152602001908152602001600020600d0160008581526020019081526020016000206007015490506003600082815260200190815260200160002060040160036000838152602001908152602001600020600501818054600181600116156101000203166002900480601f0160208091040260200160405190810160405280929190818152602001828054600181600116156101000203166002900480156118b35780601f10611888576101008083540402835291602001916118b3565b820191906000526020600020905b81548152906001019060200180831161189657829003601f168201915b50505050509150808054600181600116156101000203166002900480601f01602080910402602001604051908101604052809291908181526020018280546001816001161561010002031660029004801561194f5780601f106119245761010080835404028352916020019161194f565b820191906000526020600020905b81548152906001019060200180831161193257829003601f168201915b5050505050905092509250509250929050565b856003600082815260200190815260200160002060000160009054906101000a900460ff16806119b257506003600082815260200190815260200160002060000160019054906101000a900460ff165b156119bc57600080fd5b856003600082815260200190815260200160002060000160029054906101000a900460ff1615611a54576040517f08c379a00000000000000000000000000000000000000000000000000000000081526004018080602001828103825260108152602001807f456c20747275207961206578697374650000000000000000000000000000000081525060200191505060405180910390fd5b886004600082815260200190815260200160002060000160009054906101000a900460ff1615611aec576040517f08c379a00000000000000000000000000000000000000000000000000000000081526004018080602001828103825260198152602001807f456c206163746976697469207961206675652063726561646f0000000000000081525060200191505060405180910390fd5b896000811415611b64576040517f08c379a00000000000000000000000000000000000000000000000000000000081526004018080602001828103825260178152602001807f4572726f7220656c206e756d65726f206573207a65726f00000000000000000081525060200191505060405180910390fd5b8b600460008d815260200190815260200160002060000160016101000a81548173ffffffffffffffffffffffffffffffffffffffff021916908373ffffffffffffffffffffffffffffffffffffffff1602179055508a600460008d8152602001908152602001600020600101819055506001600460008d815260200190815260200160002060000160006101000a81548160ff02191690831515021790555060011515600360008c815260200190815260200160002060000160029054906101000a900460ff16151514611c3c57611c3b8a6143cb565b5b7fba22342e8e8b4b18318ceda20906c8ff76007e2e593ff9db67227fd33534335560056000815480929190600101919050558c8e8d8d604051808681526020018581526020018473ffffffffffffffffffffffffffffffffffffffff1673ffffffffffffffffffffffffffffffffffffffff1681526020018381526020018281526020019550505050505060405180910390a1611cdd8a8c8a8a8a8a61460f565b89600460008d815260200190815260200160002060020181905550611d02898c61496a565b88600460008d815260200190815260200160002060030181905550505050505050505050505050565b600080600080858152602001908152602001600020600d01600084815260200190815260200160002060060154600080868152602001908152602001600020600d01600085815260200190815260200160002060070154915091509250929050565b6000606080600260008573ffffffffffffffffffffffffffffffffffffffff1673ffffffffffffffffffffffffffffffffffffffff16815260200190815260200160002060000154600260008673ffffffffffffffffffffffffffffffffffffffff1673ffffffffffffffffffffffffffffffffffffffff168152602001908152602001600020600101600260008773ffffffffffffffffffffffffffffffffffffffff1673ffffffffffffffffffffffffffffffffffffffff168152602001908152602001600020600201818054600181600116156101000203166002900480601f016020809104026020016040519081016040528092919081815260200182805460018160011615610100020316600290048015611eee5780601f10611ec357610100808354040283529160200191611eee565b820191906000526020600020905b815481529060010190602001808311611ed157829003601f168201915b50505050509150808054600181600116156101000203166002900480601f016020809104026020016040519081016040528092919081815260200182805460018160011615610100020316600290048015611f8a5780601f10611f5f57610100808354040283529160200191611f8a565b820191906000526020600020905b815481529060010190602001808311611f6d57829003601f168201915b505050505090509250925092509193909250565b81600115156003600083815260200190815260200160002060000160029054906101000a900460ff1615151461203c576040517f08c379a00000000000000000000000000000000000000000000000000000000081526004018080602001828103825260108152602001807f456c20747275206e6f206578697374650000000000000000000000000000000081525060200191505060405180910390fd5b81600115156003600083815260200190815260200160002060000160029054906101000a900460ff161515146120da576040517f08c379a00000000000000000000000000000000000000000000000000000000081526004018080602001828103825260108152602001807f456c20747275206e6f206578697374650000000000000000000000000000000081525060200191505060405180910390fd5b60008490505b83811415801561210757506000600360008381526020019081526020016000206002015414155b156122d15760006003600083815260200190815260200160002060020154905060006004600083815260200190815260200160002060000160019054906101000a900473ffffffffffffffffffffffffffffffffffffffff1690507f62da4740bd6c6288c4c0286fc7ce769ba3b6c63bc0f8882bc0696cdb50bcea0c6005600081548092919060010191905055848484604051808581526020018481526020018381526020018273ffffffffffffffffffffffffffffffffffffffff1673ffffffffffffffffffffffffffffffffffffffff16815260200194505050505060405180910390a1600460008381526020019081526020016000206002015492506004600083815260200190815260200160002060000160019054906101000a900473ffffffffffffffffffffffffffffffffffffffff1690507fcba801fe07b10898b2f7e00765879a5518629f4802c69975519227fa19261bd76005600081548092919060010191905055838386604051808581526020018481526020018373ffffffffffffffffffffffffffffffffffffffff1673ffffffffffffffffffffffffffffffffffffffff16815260200182815260200194505050505060405180910390a150506120e0565b83811415612335577f3ac0777646bde27eff82e940329475980f8d2e14d062f56386217e2f85bb92e76005600081548092919060010191905055868660405180848152602001838152602001828152602001935050505060405180910390a161238d565b7f76f79afd4dc5b2e98c1c0439ebc54667382cca64ff29edb9808a6fabee4963416005600081548092919060010191905055868660405180848152602001838152602001828152602001935050505060405180910390a15b5050505050565b60008060008060606000600160008881526020019081526020016000206000015414612977576123c2614ada565b60016000888152602001908152602001600020604051806101c0016040529081600082015481526020016001820154815260200160028201548152602001600382018054600181600116156101000203166002900480601f0160208091040260200160405190810160405280929190818152602001828054600181600116156101000203166002900480156124985780601f1061246d57610100808354040283529160200191612498565b820191906000526020600020905b81548152906001019060200180831161247b57829003601f168201915b50505050508152602001600482018054600181600116156101000203166002900480601f01602080910402602001604051908101604052809291908181526020018280546001816001161561010002031660029004801561253a5780601f1061250f5761010080835404028352916020019161253a565b820191906000526020600020905b81548152906001019060200180831161251d57829003601f168201915b50505050508152602001600582018054600181600116156101000203166002900480601f0160208091040260200160405190810160405280929190818152602001828054600181600116156101000203166002900480156125dc5780601f106125b1576101008083540402835291602001916125dc565b820191906000526020600020905b8154815290600101906020018083116125bf57829003601f168201915b50505050508152602001600682018054600181600116156101000203166002900480601f01602080910402602001604051908101604052809291908181526020018280546001816001161561010002031660029004801561267e5780601f106126535761010080835404028352916020019161267e565b820191906000526020600020905b81548152906001019060200180831161266157829003601f168201915b50505050508152602001600782018054600181600116156101000203166002900480601f0160208091040260200160405190810160405280929190818152602001828054600181600116156101000203166002900480156127205780601f106126f557610100808354040283529160200191612720565b820191906000526020600020905b81548152906001019060200180831161270357829003601f168201915b50505050508152602001600882018054600181600116156101000203166002900480601f0160208091040260200160405190810160405280929190818152602001828054600181600116156101000203166002900480156127c25780601f10612797576101008083540402835291602001916127c2565b820191906000526020600020905b8154815290600101906020018083116127a557829003601f168201915b505050505081526020016009820180548060200260200160405190810160405280929190818152602001828054801561281a57602002820191906000526020600020905b815481526020019060010190808311612806575b50505050508152602001600a820180548060200260200160405190810160405280929190818152602001828054801561287257602002820191906000526020600020905b81548152602001906001019080831161285e575b50505050508152602001600b82018054806020026020016040519081016040528092919081815260200182805480156128ca57602002820191906000526020600020905b8154815260200190600101908083116128b6575b50505050508152602001600c8201548152602001600d820160009054906101000a900460ff161515151581525050905060008161012001515190508160000151826101200151600183038151811061291e57fe5b6020026020010151836101400151600184038151811061293a57fe5b6020026020010151846101600151600185038151811061295657fe5b60200260200101518560e001518090509650965096509650965050506129a4565b60008060008083935082925081915080905060405180602001604052806000815250945094509450945094505b91939590929450565b600080600060608060608060606000600160008b81526020019081526020016000206000015414612f66576129e0614ada565b600160008b8152602001908152602001600020604051806101c0016040529081600082015481526020016001820154815260200160028201548152602001600382018054600181600116156101000203166002900480601f016020809104026020016040519081016040528092919081815260200182805460018160011615610100020316600290048015612ab65780601f10612a8b57610100808354040283529160200191612ab6565b820191906000526020600020905b815481529060010190602001808311612a9957829003601f168201915b50505050508152602001600482018054600181600116156101000203166002900480601f016020809104026020016040519081016040528092919081815260200182805460018160011615610100020316600290048015612b585780601f10612b2d57610100808354040283529160200191612b58565b820191906000526020600020905b815481529060010190602001808311612b3b57829003601f168201915b50505050508152602001600582018054600181600116156101000203166002900480601f016020809104026020016040519081016040528092919081815260200182805460018160011615610100020316600290048015612bfa5780601f10612bcf57610100808354040283529160200191612bfa565b820191906000526020600020905b815481529060010190602001808311612bdd57829003601f168201915b50505050508152602001600682018054600181600116156101000203166002900480601f016020809104026020016040519081016040528092919081815260200182805460018160011615610100020316600290048015612c9c5780601f10612c7157610100808354040283529160200191612c9c565b820191906000526020600020905b815481529060010190602001808311612c7f57829003601f168201915b50505050508152602001600782018054600181600116156101000203166002900480601f016020809104026020016040519081016040528092919081815260200182805460018160011615610100020316600290048015612d3e5780601f10612d1357610100808354040283529160200191612d3e565b820191906000526020600020905b815481529060010190602001808311612d2157829003601f168201915b50505050508152602001600882018054600181600116156101000203166002900480601f016020809104026020016040519081016040528092919081815260200182805460018160011615610100020316600290048015612de05780601f10612db557610100808354040283529160200191612de0565b820191906000526020600020905b815481529060010190602001808311612dc357829003601f168201915b5050505050815260200160098201805480602002602001604051908101604052809291908181526020018280548015612e3857602002820191906000526020600020905b815481526020019060010190808311612e24575b50505050508152602001600a8201805480602002602001604051908101604052809291908181526020018280548015612e9057602002820191906000526020600020905b815481526020019060010190808311612e7c575b50505050508152602001600b8201805480602002602001604051908101604052809291908181526020018280548015612ee857602002820191906000526020600020905b815481526020019060010190808311612ed4575b50505050508152602001600c8201548152602001600d820160009054906101000a900460ff1615151515815250509050806000015181602001518260400151836060015184608001518560a001518660c001518761010001518494508393508292508191508090509850985098509850985098509850985050612fd5565b60008060008292508191508090506040518060200160405280600081525060405180602001604052806000815250604051806020016040528060008152506040518060200160405280600081525060405180602001604052806000815250975097509750975097509750975097505b919395975091939597565b6000806000806060600080612ff3614b4b565b6000808b8152602001908152602001600020600d0160008a8152602001908152602001600020604051806101a001604052908160008201548152602001600182015481526020016002820154815260200160038201548152602001600482018054600181600116156101000203166002900480601f0160208091040260200160405190810160405280929190818152602001828054600181600116156101000203166002900480156130e65780601f106130bb576101008083540402835291602001916130e6565b820191906000526020600020905b8154815290600101906020018083116130c957829003601f168201915b5050505050815260200160058201548152602001600682015481526020016007820154815260200160088201604051806040016040529081600082018054600181600116156101000203166002900480601f0160208091040260200160405190810160405280929190818152602001828054600181600116156101000203166002900480156131b65780601f1061318b576101008083540402835291602001916131b6565b820191906000526020600020905b81548152906001019060200180831161319957829003601f168201915b50505050508152602001600182018054600181600116156101000203166002900480601f0160208091040260200160405190810160405280929190818152602001828054600181600116156101000203166002900480156132585780601f1061322d57610100808354040283529160200191613258565b820191906000526020600020905b81548152906001019060200180831161323b57829003601f168201915b5050505050815250508152602001600a8201604051806040016040529081600082018054600181600116156101000203166002900480601f01602080910402602001604051908101604052809291908181526020018280546001816001161561010002031660029004801561330e5780601f106132e35761010080835404028352916020019161330e565b820191906000526020600020905b8154815290600101906020018083116132f157829003601f168201915b50505050508152602001600182018054600181600116156101000203166002900480601f0160208091040260200160405190810160405280929190818152602001828054600181600116156101000203166002900480156133b05780601f10613385576101008083540402835291602001916133b0565b820191906000526020600020905b81548152906001019060200180831161339357829003601f168201915b5050505050815250508152602001600c8201604051806040016040529081600082018054600181600116156101000203166002900480601f0160208091040260200160405190810160405280929190818152602001828054600181600116156101000203166002900480156134665780601f1061343b57610100808354040283529160200191613466565b820191906000526020600020905b81548152906001019060200180831161344957829003601f168201915b50505050508152602001600182018054600181600116156101000203166002900480601f0160208091040260200160405190810160405280929190818152602001828054600181600116156101000203166002900480156135085780601f106134dd57610100808354040283529160200191613508565b820191906000526020600020905b8154815290600101906020018083116134eb57829003601f168201915b5050505050815250508152602001600e820160009054906101000a900460ff16600281111561353357fe5b600281111561353e57fe5b8152602001600f820160405180608001604052908160008201548152602001600182018054600181600116156101000203166002900480601f0160208091040260200160405190810160405280929190818152602001828054600181600116156101000203166002900480156135f55780601f106135ca576101008083540402835291602001916135f5565b820191906000526020600020905b8154815290600101906020018083116135d857829003601f168201915b50505050508152602001600282018054600181600116156101000203166002900480601f0160208091040260200160405190810160405280929190818152602001828054600181600116156101000203166002900480156136975780601f1061366c57610100808354040283529160200191613697565b820191906000526020600020905b81548152906001019060200180831161367a57829003601f168201915b50505050508152602001600382018054600181600116156101000203166002900480601f0160208091040260200160405190810160405280929190818152602001828054600181600116156101000203166002900480156137395780601f1061370e57610100808354040283529160200191613739565b820191906000526020600020905b81548152906001019060200180831161371c57829003601f168201915b505050505081525050815250509050806000015181602001518260400151836060015184608001518561016001518661018001516000015182925097509750975097509750975097505092959891949750929550565b6000600160008b81526020019081526020016000206000015414156139405788600160008b81526020019081526020016000206000018190555087600160008b81526020019081526020016000206001018190555086600160008b81526020019081526020016000206002018190555085600160008b81526020019081526020016000206003019080519060200190613829929190614bd6565b5084600160008b81526020019081526020016000206004019080519060200190613854929190614bd6565b5083600160008b8152602001908152602001600020600501908051906020019061387f929190614bd6565b5082600160008b815260200190815260200160002060060190805190602001906138aa929190614bd6565b5081600160008b815260200190815260200160002060080190805190602001906138d5929190614bd6565b5080600160008b8152602001908152602001600020600d0160006101000a81548160ff0219169083151502179055507f555867a322829d3dd91df9b6921a25fec05027b5b61d25e28fb327960d55e180896040518082815260200191505060405180910390a16139da565b7f4224b5a1906c7eed74ec2811eb59ea0e4763c69cf912e97250892c8c25d1073460405160405180910390a16040517f08c379a00000000000000000000000000000000000000000000000000000000081526004018080602001828103825260208152602001807f4572726f7220656e206c61206372656163696f6e2064656c20446f6e616e746581525060200191505060405180910390fd5b505050505050505050565b6000600260008773ffffffffffffffffffffffffffffffffffffffff1673ffffffffffffffffffffffffffffffffffffffff1681526020019081526020016000206004016000868152602001908152602001600020600001541415613c1c5783600260008773ffffffffffffffffffffffffffffffffffffffff1673ffffffffffffffffffffffffffffffffffffffff16815260200190815260200160002060040160008681526020019081526020016000206000018190555081600260008773ffffffffffffffffffffffffffffffffffffffff1673ffffffffffffffffffffffffffffffffffffffff16815260200190815260200160002060040160008681526020019081526020016000206002019080519060200190613b09929190614bd6565b5080600260008773ffffffffffffffffffffffffffffffffffffffff1673ffffffffffffffffffffffffffffffffffffffff16815260200190815260200160002060040160008681526020019081526020016000206003019080519060200190613b74929190614bd6565b5082600260008773ffffffffffffffffffffffffffffffffffffffff1673ffffffffffffffffffffffffffffffffffffffff16815260200190815260200160002060040160008681526020019081526020016000206001019080519060200190613bdf929190614bd6565b507fc1f420e71ed51796c8e16830a322363cd0aa7053f65100d8c9066160cb921f2c846040518082815260200191505060405180910390a1613cb6565b7f4224b5a1906c7eed74ec2811eb59ea0e4763c69cf912e97250892c8c25d1073460405160405180910390a16040517f08c379a00000000000000000000000000000000000000000000000000000000081526004018080602001828103825260208152602001807f4572726f7220656e206c612063726563696f6e2064656c20456d706c6561646f81525060200191505060405180910390fd5b5050505050565b6000600160008781526020019081526020016000206000015414613e07576001600086815260200190815260200160002060090184908060018154018082558091505090600182039060005260206000200160009091929091909150555060016000868152602001908152602001600020600a0183908060018154018082558091505090600182039060005260206000200160009091929091909150555080600160008781526020019081526020016000206007019080519060200190613d85929190614bd6565b5060016000868152602001908152602001600020600b018290806001815401808255809150509060018203906000526020600020016000909192909190915055507f4e95f8ab78c4e28be0d11253fcfef913dff4ccdf42f9bff29a01e6298937909f6001604051808215151515815260200191505060405180910390a1613e84565b7f31631c159a0013f8df0b825ac6c1f7acc246addfd8444bb992c5aa939f1b8b7360405160405180910390a16040517f08c379a0000000000000000000000000000000000000000000000000000000008152600401808060200182810382526023815260200180614d456023913960400191505060405180910390fd5b5050505050565b60008060008a8152602001908152602001600020600d0160008b815260200190815260200160002060000154148015613eeb57506001151560016000838152602001908152602001600020600d0160009054906101000a900460ff161515145b1561424057886000808a8152602001908152602001600020600d0160008b815260200190815260200160002060000181905550866000808a8152602001908152602001600020600d0160008b815260200190815260200160002060010181905550856000808a8152602001908152602001600020600d0160008b815260200190815260200160002060020181905550846000808a8152602001908152602001600020600d0160008b815260200190815260200160002060030181905550836000808a8152602001908152602001600020600d0160008b81526020019081526020016000206004019080519060200190613fe5929190614bd6565b50826000808a8152602001908152602001600020600d0160008b8152602001908152602001600020600e0160006101000a81548160ff0219169083600281111561402b57fe5b0217905550600260008b73ffffffffffffffffffffffffffffffffffffffff1673ffffffffffffffffffffffffffffffffffffffff16815260200190815260200160002060040160008381526020019081526020016000206000808a8152602001908152602001600020600d0160008b8152602001908152602001600020600f0160008201548160000155600182018160010190805460018160011615610100020316600290046140dd929190614c56565b5060028201816002019080546001816001161561010002031660029004614105929190614c56565b506003820181600301908054600181600116156101000203166002900461412d929190614c56565b5090505060016000828152602001908152602001600020600c016000815480929190600101919050555087600260003373ffffffffffffffffffffffffffffffffffffffff1673ffffffffffffffffffffffffffffffffffffffff1681526020019081526020016000206005016000600260003373ffffffffffffffffffffffffffffffffffffffff1673ffffffffffffffffffffffffffffffffffffffff1681526020019081526020016000206003016000815480929190600101919050558152602001908152602001600020819055507f4e95f8ab78c4e28be0d11253fcfef913dff4ccdf42f9bff29a01e6298937909f6001604051808215151515815260200191505060405180910390a16142ae565b6040517f08c379a00000000000000000000000000000000000000000000000000000000081526004018080602001828103825260118152602001807f4552524f52204445204352454143494f4e00000000000000000000000000000081525060200191505060405180910390fd5b50505050505050505050565b600080600083815260200190815260200160002060000154141561432e5780600080838152602001908152602001600020600001819055507fb267ccc5ed9eaa4ff6ba3e5bcdf6d95bd25d67d261fd864fae69134399d31fe8816040518082815260200191505060405180910390a16143c8565b7f4224b5a1906c7eed74ec2811eb59ea0e4763c69cf912e97250892c8c25d1073460405160405180910390a16040517f08c379a000000000000000000000000000000000000000000000000000000000815260040180806020018281038252601c8152602001807f4572726f7220656e206c61206372656163696f2064656c206c6f74650000000081525060200191505060405180910390fd5b50565b806003600082815260200190815260200160002060000160029054906101000a900460ff1615614463576040517f08c379a00000000000000000000000000000000000000000000000000000000081526004018080602001828103825260108152602001807f456c20747275207961206578697374650000000000000000000000000000000081525060200191505060405180910390fd5b8160008114156144db576040517f08c379a00000000000000000000000000000000000000000000000000000000081526004018080602001828103825260178152602001807f4572726f7220656c206e756d65726f206573207a65726f00000000000000000081525060200191505060405180910390fd5b60016003600085815260200190815260200160002060000160026101000a81548160ff02191690831515021790555082600360008581526020019081526020016000206001018190555060006003600085815260200190815260200160002060000160006101000a81548160ff02191690831515021790555060006003600085815260200190815260200160002060000160016101000a81548160ff02191690831515021790555060006003600085815260200190815260200160002060020181905550600060036000858152602001908152602001600020600301819055507ff7f355a1d8a4932896c92aa5633c51acd46bb98ad27fe8d6451434fb8374c6f1600560008154809291906001019190505584604051808381526020018281526020019250505060405180910390a1505050565b85600115156003600083815260200190815260200160002060000160029054906101000a900460ff161515146146ad576040517f08c379a00000000000000000000000000000000000000000000000000000000081526004018080602001828103825260108152602001807f456c20747275206e6f206578697374650000000000000000000000000000000081525060200191505060405180910390fd5b866003600082815260200190815260200160002060000160009054906101000a900460ff16806146fd57506003600082815260200190815260200160002060000160019054906101000a900460ff165b1561470757600080fd5b86600115156004600083815260200190815260200160002060000160009054906101000a900460ff1615151461473c57600080fd5b6001600360008b815260200190815260200160002060000160006101000a81548160ff02191690831515021790555086600360008b81526020019081526020016000206004019080519060200190614795929190614bd6565b5085600360008b815260200190815260200160002060050190805190602001906147c0929190614bd6565b5087600360008b8152602001908152602001600020600301819055506000806000868152602001908152602001600020600d01600087815260200190815260200160002060060154141561486f5788600080868152602001908152602001600020600d0160008781526020019081526020016000206006018190555088600080868152602001908152602001600020600d0160008781526020019081526020016000206007018190555061489e565b88600080868152602001908152602001600020600d016000878152602001908152602001600020600701819055505b7fc189b7e5d2c660baba60eea05ae1e6f97661e4e7075febca13780f34da95437360056000815480929190600101919050558a8a600460008d815260200190815260200160002060000160019054906101000a900473ffffffffffffffffffffffffffffffffffffffff16604051808581526020018481526020018381526020018273ffffffffffffffffffffffffffffffffffffffff1673ffffffffffffffffffffffffffffffffffffffff16815260200194505050505060405180910390a1505050505050505050565b816003600082815260200190815260200160002060000160029054906101000a900460ff1615614a02576040517f08c379a00000000000000000000000000000000000000000000000000000000081526004018080602001828103825260108152602001807f456c20747275207961206578697374650000000000000000000000000000000081525060200191505060405180910390fd5b826000811415614a7a576040517f08c379a00000000000000000000000000000000000000000000000000000000081526004018080602001828103825260178152602001807f4572726f7220656c206e756d65726f206573207a65726f00000000000000000081525060200191505060405180910390fd5b82600115156004600083815260200190815260200160002060000160009054906101000a900460ff16151514614aaf57600080fd5b614ab8856143cb565b8360036000878152602001908152602001600020600201819055505050505050565b604051806101c00160405280600081526020016000815260200160008152602001606081526020016060815260200160608152602001606081526020016060815260200160608152602001606081526020016060815260200160608152602001600081526020016000151581525090565b6040518061026001604052806000815260200160008152602001600081526020016000815260200160608152602001600081526020016000815260200160008152602001614b97614cdd565b8152602001614ba4614cdd565b8152602001614bb1614cdd565b815260200160006002811115614bc357fe5b8152602001614bd0614cf7565b81525090565b828054600181600116156101000203166002900490600052602060002090601f016020900481019282601f10614c1757805160ff1916838001178555614c45565b82800160010185558215614c45579182015b82811115614c44578251825591602001919060010190614c29565b5b509050614c529190614d1f565b5090565b828054600181600116156101000203166002900490600052602060002090601f016020900481019282601f10614c8f5780548555614ccc565b82800160010185558215614ccc57600052602060002091601f016020900482015b82811115614ccb578254825591600101919060010190614cb0565b5b509050614cd99190614d1f565b5090565b604051806040016040528060608152602001606081525090565b6040518060800160405280600081526020016060815260200160608152602001606081525090565b614d4191905b80821115614d3d576000816000905550600101614d25565b5090565b9056fe4572726f7220656e206c61206361726761206465206461746f732064652073616c7564a165627a7a72305820988e73f6f7362806c655949bc7942a2b2c6f6881181c126c682f66e1aa4699080029",
  "source": "pragma solidity ^0.5.1;\n\ncontract BloodChain{\n\n\nevent BancoEncontradoExitosamente();\nevent DonanteEncontradoExitosamente(uint cedula, uint edad, uint numeroTelefono, string nombre, string apellido, string Eps, string correoElectronico, string genero);\nevent DatosNoEncontados();\nevent DonanteCreadoExitosamente(uint cedula);\nevent ErrorDeCreacion();\nevent DatosCargadosExitosamente(bool);\nevent EmpleadoCreadoExitosamente(uint idEmpleado);\nevent LoteCreadoExitosamente(uint idLote);\n\n    //listing 3\n    event TraceExists(uint msgOrder, uint from_tru, uint to_tru);\n    event TraceDoesNotExist(uint msgOrder, uint from_tru, uint to_tru);\n    event ActivityCreated(uint msgOrder, uint activityId, address direccionLugar, uint consumedTruId, uint producedTruId);\n    event TruCreated(uint msgOrder, uint truId);\n    event TruConsumed(uint msgOrder, uint truId, uint activityId, address direccionLugar);\n    event TruProducedBy(uint msgOrder, uint currTru, uint currActivity, address direccionLugar);\n    event ActivityConsumes(uint msgOrder, uint currActivity, address direccionLugar, uint currTru);\n    \n\n    constructor () public{\n        msgOrder = 0;\n    }\n    \n    //... remaining listings 2-8\n    \n    \n    //listing 2\n    modifier nonZero(uint num) {\n        if(num == 0){\n            revert('Error el numero es zero');\n        }\n        _;\n    }\n    \n    modifier truDoesNotExist(uint id){\n        if(truLookup[id].created){\n            revert('El tru ya existe');\n        }\n        _;\n    }\n    \n    modifier truExists(uint id){\n        if(truLookup[id].created != true){\n            revert('El tru no existe');\n        }\n        _;\n    }\n    \n    modifier primitiveActivityDoesNotExist(uint id){\n        if(activityLookup[id].created){\n            revert('El activiti ya fue creado');\n        }\n        _;\n    }\n    \n    modifier primitiveActivityExists(uint id){\n        if(activityLookup[id].created != true){\n            revert();\n        }\n        _;\n    }\n    \n    modifier truAvailable(uint id){\n        if(truLookup[id].consumed || truLookup[id].used){\n            revert();\n        }\n        _;\n    }\n    \nstruct BancosSangre{\n    uint idBanco;\n    string direccion;\n    string nombre;\n    uint cantidadLotes;\n    mapping(uint => Empleado) EmpleadosAsociados;\n    mapping(uint => uint) listaLotesPropios;\n}\n\n\nenum TipoBolsa {Extra,Corriente, Doble}\n\nstruct Empleado{\n    uint idEmpleado;\n    string password;\n    string nombre;\n    string rol;\n}\n\n\n  struct Tru{ // Unidad de valor, en pocas palabra que es lo que se esta firmando \n        bool consumed;\n        bool used;\n        bool created;\n        uint id;\n        uint producedBy;\n        uint consumedBy;\n        string long;\n        string lat;\n    }\n    \n    struct PrimitiveActivity{  //Actores que pueden realizar un Trazo\n        bool created;\n        address direccionLugar;\n        uint id;\n        uint inputTruId;\n        uint outputTruId;\n    }\n\n\nstruct Documento{\n    string Hash;\n    string url;\n}\n\nstruct Donante{\n    uint cedula;\n    uint edad;\n    uint numeroTelefono;\n    string nombre;\n    string apellido;\n    string Eps;\n    string correoElectronico;\n    string tipoSangre;\n    string genero;\n    uint[] peso;\n    uint[] altura;\n    uint[] TensionArterial;\n    uint cantidadDonaciones;\n    bool valido;\n}\n\nstruct Donacion{\n    uint idDonacion;\n    uint cantidadExtraida;\n    uint numeroVenoponuciones;\n    uint numeroMinExtraccion;\n    string fechaDonacion;\n    uint idDonante;\n    uint TruInicio;\n    uint TruEnd;\n    Documento HashConsentimiento;\n    Documento HashEtiquetaUnidad;\n    Documento HashFirmaDonante;\n    TipoBolsa tipBolsa;\n    Empleado medicoEncargado;\n}\n\nstruct LoteDonacion{\n    uint idLote;\n    Tru inicio;\n    Tru end;\n    mapping(uint=> Donacion) listaUnidades;\n}\n\n\n\n\n\nmapping(uint=>LoteDonacion) listaLotesTotales;\nmapping(uint=>Donante) listaDonantes;\nmapping(address=>BancosSangre) listaBancos;\nmapping(uint => Tru) truLookup;\nmapping(uint => PrimitiveActivity) activityLookup; // Lista de actores que realizaron un trazo \n\n    uint msgOrder;\n\n\n//Busqueda de una Donacion por lote. \nfunction getDonacionLote(uint idLote, uint idDonacion)public view returns(uint id, uint cantidadExtraida, uint numeroVenoponuciones, uint numeroMinExtraccion,string memory fechaDonacion, TipoBolsa idBolsa, uint idEmpleado){\nDonacion memory u = listaLotesTotales[idLote].listaUnidades[idDonacion];\nreturn (u.idDonacion,u.cantidadExtraida,u.numeroVenoponuciones, u.numeroMinExtraccion, u.fechaDonacion,u.tipBolsa, u.medicoEncargado.idEmpleado);\n}\n\n\n\n//creacion de una donacion que se agrega aun lote.\nfunction setDonacion(address _BancosSangre, uint idDonacion,uint _idLote, uint _cantidadExtraida, uint numeroVenoponuciones, uint numeroMinExtraccion, string memory fechaDonacion, TipoBolsa tipo, uint idMedico, uint idUser)public{\n    if(listaLotesTotales[_idLote].listaUnidades[idDonacion].idDonacion == 0 && listaDonantes[idUser].valido == true ){\n        listaLotesTotales[_idLote].listaUnidades[idDonacion].idDonacion = idDonacion;\n        listaLotesTotales[_idLote].listaUnidades[idDonacion].cantidadExtraida = _cantidadExtraida;\n        listaLotesTotales[_idLote].listaUnidades[idDonacion].numeroVenoponuciones = numeroVenoponuciones;\n        listaLotesTotales[_idLote].listaUnidades[idDonacion].numeroMinExtraccion = numeroMinExtraccion;\n        listaLotesTotales[_idLote].listaUnidades[idDonacion].fechaDonacion = fechaDonacion;\n        listaLotesTotales[_idLote].listaUnidades[idDonacion].tipBolsa = tipo;\n        listaLotesTotales[_idLote].listaUnidades[idDonacion].medicoEncargado = listaBancos[_BancosSangre].EmpleadosAsociados[idMedico];\n        listaDonantes[idUser].cantidadDonaciones++;\n        listaBancos[msg.sender].listaLotesPropios[listaBancos[msg.sender].cantidadLotes++] = _idLote;\n        emit DatosCargadosExitosamente(true);\n    }else{\n        revert('ERROR DE CREACION');\n    }\n}\n\n\n\n// creacion de un donante de sangre\nfunction setDonante(uint cedula, uint edad, uint numeroTelefono, string memory nombre, string memory apellido, string memory Eps, string memory correoElectronico, string memory genero, bool valido)public{\n\nif(listaDonantes[cedula].cedula == 0){\n    listaDonantes[cedula].cedula = cedula;\n    listaDonantes[cedula].edad = edad;\n    listaDonantes[cedula].numeroTelefono = numeroTelefono;\n    listaDonantes[cedula].nombre = nombre;\n    listaDonantes[cedula].apellido = apellido;\n    listaDonantes[cedula].Eps = Eps;\n    listaDonantes[cedula].correoElectronico = correoElectronico;\n    listaDonantes[cedula].genero = genero;\n    listaDonantes[cedula].valido = valido;\n    emit DonanteCreadoExitosamente(cedula);\n}else{\n    emit ErrorDeCreacion();\n    revert('Error en la creacion del Donante');\n}\n}\n\n\nfunction setSaludDonante(uint cedula, uint peso, uint altura, uint TensionArterial, string memory tipoS) public{\n    if(listaDonantes[cedula].cedula!=0){\n        listaDonantes[cedula].peso.push(peso);\n        listaDonantes[cedula].altura.push(altura);\n         listaDonantes[cedula].tipoSangre = tipoS;\n        listaDonantes[cedula].TensionArterial.push(TensionArterial);\n        emit DatosCargadosExitosamente(true);\n    }else{\n        emit DatosNoEncontados();\n        revert('Error en la carga de datos de salud');\n    }\n}\n\n\n//-----------------------------------------------------------------------------------------------------------------\n\n\n// Creaciond de un Empleado\nfunction setEmpleado(address _BancosSangre, uint idEmpleado,string memory password, string memory nombre, string memory rol)public{\n    if(listaBancos[_BancosSangre].EmpleadosAsociados[idEmpleado].idEmpleado == 0){\n        listaBancos[_BancosSangre].EmpleadosAsociados[idEmpleado].idEmpleado = idEmpleado;\n        listaBancos[_BancosSangre].EmpleadosAsociados[idEmpleado].nombre = nombre;\n        listaBancos[_BancosSangre].EmpleadosAsociados[idEmpleado].rol = rol;\n         listaBancos[_BancosSangre].EmpleadosAsociados[idEmpleado].password = password;\n        emit EmpleadoCreadoExitosamente(idEmpleado);\n    }else{\n        emit ErrorDeCreacion();\n        revert('Error en la crecion del Empleado');\n    }\n}\n\n\n//Creacion de un lote\nfunction createLote(uint idLote)public{\n    if(listaLotesTotales[idLote].idLote == 0){\n      listaLotesTotales[idLote].idLote = idLote;\n      emit LoteCreadoExitosamente(idLote);\n    }else{\n        emit ErrorDeCreacion();\n        revert('Error en la creacio del lote');\n    }\n}\n\n\n//Busqueda de un Empleado\nfunction getEmpleado(address _BancosSangre, uint idEmpleado) public view returns(uint, string memory, string memory){\n    if(listaBancos[_BancosSangre].EmpleadosAsociados[idEmpleado].idEmpleado != 0){\n        return(listaBancos[_BancosSangre].EmpleadosAsociados[idEmpleado].idEmpleado,listaBancos[_BancosSangre].EmpleadosAsociados[idEmpleado].nombre,listaBancos[_BancosSangre].EmpleadosAsociados[idEmpleado].rol);\n    }else{\n        return(0,\"\",\"\");\n    }\n}\n\n\n//Busqueda de un Bando de Sangre\nfunction getBancoSangre(address dirrecionBanco)public view returns(uint,string memory, string memory){\n    return(listaBancos[dirrecionBanco].idBanco,listaBancos[dirrecionBanco].direccion, listaBancos[dirrecionBanco].nombre);\n}\n\n\n//Busqueda de un  Donante\nfunction getDonante(uint _cedula) public view returns(uint cedula, uint edad, uint numeroTelefono, string memory nombre, string memory apellido, string memory Eps, string memory correoElectronico, string memory genero){\n    if(listaDonantes[_cedula].cedula != 0){\n        Donante memory  u= listaDonantes[_cedula];\n     return (u.cedula,u.edad,u.numeroTelefono,u.nombre,u.apellido,u.Eps, u.correoElectronico,u.genero);\n    }else{\n        return(0,0,0,\"\",\"\",\"\",\"\",\"\");\n    }\n}\n\n//Busqueda datos Salud Donante\nfunction getSaludDonante(uint _cedula) public view returns(uint cedula, uint peso, uint altura, uint  TensionArterial, string memory tipoSangre){\n    if(listaDonantes[_cedula].cedula != 0){\n        Donante memory  u= listaDonantes[_cedula];\n        uint nElements = u.peso.length;\n     return (u.cedula,u.peso[nElements-1],u.altura[nElements-1],u.TensionArterial[nElements-1], u.tipoSangre);\n    }else{\n        return(0,0,0,0,\"\");\n    }\n}\n\n//BUsqueda de la Ubicacion de una unidad\nfunction getUbicacionUnidad(uint lote, uint donacion) public view returns(string memory, string memory){\n    uint idtru = listaLotesTotales[lote].listaUnidades[donacion].TruEnd;\n    return(truLookup[idtru].long, truLookup[idtru].lat);\n}\n\n\n//Busqueda de la ubicacion de un lote\nfunction getUbicacionLote(uint lote) public view returns(string memory, string memory){\n    return(listaLotesTotales[lote].end.long, listaLotesTotales[lote].inicio.lat);\n}\n\nfunction getTruUnidad(uint idLote,uint idUnidad) public view returns(uint,uint){\nreturn (listaLotesTotales[idLote].listaUnidades[idUnidad].TruInicio, listaLotesTotales[idLote].listaUnidades[idUnidad].TruEnd);\n}\n\n//---------------------------------------------------------------------------------------------------------------------Trazabilidad--------------------------------------------------------------------------------------\n    //listing 4\n    function newTru(uint id) private //Funcion que permite la creacion de la unidad de valor\n    truDoesNotExist(id)\n    nonZero(id)\n    {\n        truLookup[id].created = true;\n        truLookup[id].id = id;\n        truLookup[id].consumed = false;\n        truLookup[id].used = false;\n        truLookup[id].producedBy = 0;\n        truLookup[id].consumedBy = 0;\n        emit TruCreated(msgOrder++, id);\n    }\n    \n    //listing 5\n    function newTru(uint id, uint activityId) private // Metodo que  firma la unidad de valor por su creador.\n    truDoesNotExist(id)\n    nonZero(id)\n    primitiveActivityExists(activityId)\n    {\n        newTru(id);\n        truLookup[id].producedBy = activityId;\n        \n    }\n    \n    //listing 6\n    function consumeTru(uint truId, uint activityId,string memory long, string memory lat, uint idUnidad, uint idLote) private //Meotodo que firman que la unidad de valor fue recibida.\n    truExists(truId)\n    truAvailable(truId)\n    primitiveActivityExists(activityId)\n    {\n        truLookup[truId].consumed = true;\n        truLookup[truId].long = long;\n        truLookup[truId].lat = lat;\n        truLookup[truId].consumedBy = activityId;\n        if(listaLotesTotales[idLote].listaUnidades[idUnidad].TruInicio ==0){\n            listaLotesTotales[idLote].listaUnidades[idUnidad].TruInicio = truId;\n            listaLotesTotales[idLote].listaUnidades[idUnidad].TruEnd = truId;\n        }else{\n             listaLotesTotales[idLote].listaUnidades[idUnidad].TruEnd = truId; \n        }\n        emit TruConsumed(msgOrder++, truId, activityId, activityLookup[activityId].direccionLugar);\n        \n    }\n    \n    //listing 7\n    function newPrimitiveActivity(address name, uint idTrazo, uint inputTruId, uint outputTruId,string memory long, string memory lat, uint idUnidad, uint idLote) // Metodo que permite Crear un Autor que podra firmar el trazo\n    truAvailable(inputTruId)\n    truDoesNotExist(outputTruId)\n    primitiveActivityDoesNotExist(idTrazo)\n    nonZero(idTrazo)\n    public {\n        activityLookup[idTrazo].direccionLugar = name;\n        activityLookup[idTrazo].id = idTrazo;\n        activityLookup[idTrazo].created = true;\n        \n        if(truLookup[inputTruId].created != true){\n            newTru(inputTruId);\n        }\n        emit ActivityCreated(msgOrder++, idTrazo, name, inputTruId, outputTruId);\n        consumeTru(inputTruId, idTrazo,long, lat,idUnidad, idLote);\n        activityLookup[idTrazo].inputTruId = inputTruId;\n        newTru(outputTruId, idTrazo);\n        activityLookup[idTrazo].outputTruId = outputTruId;\n    }\n    \n    //listing 8\n    function primitiveTrace(uint tru_begin, uint tru_end) //metodo que realiza el dibujo de la Trazabilidad  segun quien lo creo y consumio.\n    truExists(tru_begin)\n    truExists(tru_end)\n    public{\n        uint currTru = tru_begin;\n        while(currTru != tru_end && truLookup[currTru].producedBy != 0){\n            uint currActivity = truLookup[currTru].producedBy;\n            address dir  = activityLookup[currActivity].direccionLugar;\n            emit TruProducedBy(msgOrder++, currTru, currActivity, dir);\n            currTru = activityLookup[currActivity].inputTruId;\n            dir = activityLookup[currActivity].direccionLugar;\n            emit ActivityConsumes(msgOrder++, currActivity, dir, currTru);\n        }\n        if(currTru == tru_end){\n           emit TraceExists(msgOrder++, tru_begin, tru_end);\n        }\n        else\n        {\n           emit   TraceDoesNotExist(msgOrder++,tru_begin, tru_end);\n        }\n    }\n    \n\n}",
  "sourcePath": "/home/droro/Documents/BlockChain/Blockchain-Solidity/Proyecto BloodChain/contracts/BloodChain.sol",
  "compiler": {
    "name": "solc",
    "version": "0.5.8+commit.23d335f2.Emscripten.clang"
  },
  "schemaVersion": "3.0.16",
  "updatedAt": "2019-12-02T07:13:18.547Z",
  "devdoc": {
    "methods": {}
  },
  "userdoc": {
    "methods": {}
  }
}